:020000040800F2
:100000009828002001010008392E0008592B00080B
:10001000352E00082F020008E55C000800000000F3
:10002000000000000000000000000000253500086E
:10003000CD020008000000001D320008273500082E
:100040001B0100081B0100081B0100081B01000820
:100050001B0100081B0100081B0100081B01000810
:100060001B0100081B0100081B0100081B01000800
:100070001B010008BD0200081B0100081B0100084D
:100080001B0100081B0100081B0100081B010008E0
:100090002D5C00081B0100081B0100081B01000863
:1000A0001B0100081B0100081B0100081B010008C0
:1000B0001B0100081B0100081B0100081B010008B0
:1000C0001B0100081B0100081B0100080134000887
:1000D0001B0100081B0100081B0100081B01000890
:1000E0001B0100081B0100081B010008DFF80CD0F1
:1000F00000F060F800480047DD5E00089828002006
:100100000648804706480047FEE7FEE7FEE7FEE7B1
:10011000FEE7FEE7FEE7FEE7FEE7FEE7BB35000889
:10012000ED00000810B5431A934209D283188818CD
:1001300003E010F8011D03F8011D521EF9D210BD95
:1001400040EA01039B0703D009E008C9121F08C059
:10015000042AFAD203E011F8013B00F8013B521ED9
:10016000F9D210BDD2B201E000F8012B491EFBD23A
:1001700070470022F6E710B513460A4604461946B2
:10018000FFF7F0FF204610BD30B50B4601460020BA
:100190002022012409E021FA02F59D4205D303FA49
:1001A00002F5491B04FA02F52844151EA2F10102CA
:1001B000F1DC30BD064C074D06E0E06840F001037D
:1001C00094E8070098471034AC42F6D3FFF792FF4B
:1001D000749200089492000870B58C1810F8015BB6
:1001E00015F0070301D110F8013B2A1106D110F8D0
:1001F000012B03E010F8016B01F8016B5B1EF9D1D4
:100200002B0705D40023521E0DD401F8013BFAE759
:1002100010F8013BCB1A921C03E013F8015B01F8C4
:10022000015B521EF9D5A142D8D3002070BD00BF9A
:10023000FEE70346042B15D007DC7BB1012B0ED063
:10024000022B0DD0032B12D10BE0202B0BD0212B36
:100250000AD0222B09D0232B09D107E008E007E0C0
:1002600006E005E004E003E002E001E000E000BF9A
:1002700000BF0020704700207047000010B500222A
:100280000449054803F057FB0449034803F04CFBBD
:10029000002010BDA00F0020F4060020B80B0020A5
:1002A00070B504460D462146034803F03DFB024865
:1002B00003F016FB002070BDF406002010B50248C4
:1002C00000F078F810BD0000700200207047704701
:1002D00070B50A480468001D0568001D06683444AE
:1002E00054B108220649204602F038FC0422044991
:1002F0001031284602F032FC70BD0000E8F7FF1F05
:100300007200002070B50446002594F821000228F0
:1003100003D00420A063012548E02068006820F095
:100320000E00216808602068006820F00100216844
:1003300008601F492068884201D1012026E01C493D
:1003400014312068884201D110201FE0184928315B
:100350002068884201D1801518E015493C31206899
:10036000884201D1801411E011495031206888423F
:1003700002D14FF4803009E00D4964312068884291
:1003800002D14FF4801001E04FF080700849083925
:100390004860012084F8210000BF002084F820007C
:1003A00000BF606B10B12046616B8847284670BD66
:1003B0000800024070B50446E06B056820680668D6
:1003C00094F84010042088402840002846D006F0C9
:1003D0000400002842D02068006800F0200028B9FE
:1003E0002068006820F004002168086057492068F0
:1003F000884201D1042027E0544914312068884202
:1004000001D1402020E0514928312068884201D1A3
:10041000001519E04D493C312068884202D14FF463
:10042000804011E0494950312068884202D14FF4A0
:10043000802009E0454964312068884202D14FF4A8
:10044000800001E04FF08060404908394860E06A70
:1004500000287AD02046E16A884776E094F8401078
:10046000022088402840A0B306F0020088B320682C
:10047000006800F0200040B92068006820F00A0001
:1004800021680860012084F82100304920688842F2
:1004900001D1022028E02D4914312068884201D181
:1004A000202021E0294928312068884201D14015C7
:1004B0001AE026493C312068884202D14FF40050AE
:1004C00012E0224950312068884203D14FF40030B5
:1004D0000AE017E01D4964312068884202D14FF4D8
:1004E000001001E04FF0007018490839486000BF63
:1004F000002084F8200000BFA06A30B32046A16A23
:10050000884722E094F84010082088402840E0B155
:1005100006F00800C8B12068006820F00E002168CD
:10052000086094F8401001208840E16B4860012089
:10053000A06384F8210000BF002084F8200000BFE1
:10054000206B10B12046216B884770BD0800024027
:100550000146002209B901207047164B0868C01AED
:100560001423B0FBF3F08000086412480838C86315
:10057000022081F821000868026843F6F070824387
:10058000D1E901031843CB6818430B6918434B6941
:1005900018438B691843CB6918430243086802600B
:1005A00000208863012081F82100002081F82000CC
:1005B00000BFD1E70800024070B5044600F0A6F97C
:1005C00006462546681C10B104480078054400BF63
:1005D00000F09CF9801BA842FAD370BD0C000020EB
:1005E0002DE9F8470346002294466EE14FF00108DA
:1005F00008FA02F4D1F8008008EA0400A0427DD194
:10060000DFF8DCA2D1F80480A8EB0A09D0453AD083
:1006100014DCB8F1030F50D009DCB8F1000F31D071
:10062000B8F1010F1CD0B8F1020F49D120E0B8F1A8
:10063000110F18D0B8F1120F42D11EE0B9F5881F82
:1006400025D006DCB9F5803F20D0B9F5801F37D121
:100650001AE0B9F5001F18D0B9F5041F30D117E022
:10066000D1F80CC02DE0D1F80C8008F1040C28E082
:10067000D1F80C8008F1080C23E0D1F80C8008F1C7
:100680000C0C1EE000BF00BF00BF00BF00BF00BFDA
:10069000D1F80880B8F1000F02D14FF0040C0BE044
:1006A000D1F80880B8F1010F03D14FF0080C1C619C
:1006B00002E04FF0080C5C6103E04FF0000C00E03A
:1006C00000BF00BFFF2801D8984601E003F10408ED
:1006D0004646FF2802D84FEA820803E0A2F1080844
:1006E0004FEA88084746D6F800804FF00F0909FA0C
:1006F00007F928EA09080CFA07F900E088E048EA57
:100700000908C6F80080D1F8048008F08058B8F1D4
:10071000805F7DD100BFDFF8CC81D8F8188048F029
:100720000108DFF8C091C9F81880C846D8F81880C9
:1007300008F00108CDF8008000BF00BF4FEAB938CB
:100740004FEA920958F829504FEA82784FEA18790F
:100750004FF00F0808FA09F825EA0805DFF8888144
:10076000434502D14FF0000816E0DFF88081434591
:1007700002D14FF001080FE0DFF87481434502D148
:100780004FF0020808E0DFF86C81434502D14FF0DA
:10079000030801E04FF004084FEA82794FEA197923
:1007A00008FA09F848EA0505DFF84C814FEA920992
:1007B00048F82950D1F8048008F48038B8F5803F13
:1007C0000AD1DFF83881D8F8008048EA0008DFF85D
:1007D0002C91C9F8008009E0DFF82081D8F800806A
:1007E00028EA0008DFF81491C9F80080D1F80480E5
:1007F00008F40038B8F5003F10D1DFF8008108F1A7
:100800000408D8F8008048EA0008DFF8F09000E01B
:100810005AE009F10409C9F800800DE0DFF8DC8036
:1008200008F10408D8F8008028EA0008DFF8CC9026
:1008300009F10409C9F80080D1F8048008F480188F
:10084000B8F5801F0ED1DFF8B48008F10808D8F899
:10085000008048EA0008DFF8A49009F10809C9F807
:1008600000800DE0DFF8948008F10808D8F80080D7
:1008700028EA0008DFF8849009F10809C9F8008027
:10088000D1F8048008F40018B8F5001F0ED1DFF885
:100890006C8008F10C08D8F8008048EA0008DFF8FE
:1008A0005C9009F10C09C9F800800DE0DFF84C807C
:1008B00008F10C08D8F8008028EA0008DFF83C901E
:1008C00009F10C09C9F80080521CD1F8008028FAFF
:1008D00002F8B8F1000F7FF489AEBDE8F887000098
:1008E000000011100010024000080140000C0140FF
:1008F00000100140001401400800014000040140C4
:100900000AB1016101E00B0403617047014800680E
:10091000704700000400002070B504460CB90120A7
:1009200070BD94F83D0028B9002084F83C002046B2
:1009300000F0DAF8242084F83D002068006820F0F8
:100940000100216808602068006840F400402168C8
:1009500008602068006820F400402168086001F009
:10096000FBF905465C496068884206D85B488542C9
:1009700001D2012007E0002005E05948854201D25C
:10098000012000E00020012800D1C9E75548B5FB4F
:10099000F0F62068406820F03F003043216848604E
:1009A0004D496068884201D8701C07E04FF496708A
:1009B00070434FF47A71B0FBF1F0401C2168096A72
:1009C00021F03F010843216808624349606888427A
:1009D00014D8681E61684900B0FBF1F0401CC0F3F8
:1009E0000B00042801D204203DE0681E6168490024
:1009F000B0FBF1F0401CC0F30B0034E0A06838B944
:100A0000681E616801EB4101B0FBF1F0401C0AE097
:100A1000681E616801EBC10202EB0111B0FBF1F04D
:100A2000401C40F48040C0F30B0008B901201AE0DC
:100A3000A06848B9681E616801EB4101B0FBF1F0A4
:100A4000401CC0F30B000CE0681E616801EBC102A2
:100A500002EB0111B0FBF1F0401CC0F30B0040F4BD
:100A6000804040F400402168C9694CF6FF72914310
:100A700008432168C861D4E907010843216809686F
:100A800021F0C001084321680860D4E9031008433D
:100A90002168896848F2FF329143084321688860E1
:100AA000D4E9050108432168C96821F0FF01084322
:100AB0002168C8602068006840F001002168086073
:100AC00000202064202084F83D000020206384F86A
:100AD0003E0000BF24E70000A086010080841E00C5
:100AE00000093D0040420F0010B586B004460020CA
:100AF000029003900490059015492068884225D102
:100B000000BF1448806940F0080012498861084617
:100B1000806900F00800019000BF00BFC020029073
:100B2000122003900320059002A90B48FFF758FDFF
:100B300000BF0848C06940F400100649C861084673
:100B4000C06900F40010019000BF00BF06B010BDE6
:100B50000054004000100240000C014003480068AF
:100B600003490978084401490860704704000020DF
:100B70000C00002010B50848006840F0100006493D
:100B80000860032000F0A8F8002000F007F800F04B
:100B90002BF8002010BD00000020024070B5044674
:100BA0000E4800784FF47A71B1FBF0F00C490968F7
:100BB000B1FBF0F5284601F03AFF08B1012070BD05
:100BC000102C07D200222146501E00F047F805489D
:100BD000046001E00120F2E70020F0E70C000020B3
:100BE000100000200800002008B500BF11488069EF
:100BF00040F001000F4988610846806900F001005B
:100C0000009000BF00BF00BF0846C06940F08050A0
:100C1000C8610846C06900F08050009000BF00BF66
:100C200000BF0549486820F0E06040F0007048606F
:100C300000BF08BD00100240000001400146084608
:100C4000002809DB00F01F0301229A4043099B00A2
:100C500003F1E023C3F8002100BF70472DE9F05FE6
:100C600080460D461646002705F056F807463946D9
:100C70002A46334601F00700C0F1070ABAF1040F13
:100C800002D94FF0040A01E0C0F1070AD14600F191
:100C9000040ABAF1070F02D24FF0000A01E0A0F1F6
:100CA000030AD4464FF0010A0AFA09FAAAF1010A26
:100CB0000AEA020A0AFA0CFA4FF0010B0BFA0CFBD3
:100CC000ABF1010B0BEA030B4AEA0B042146404649
:100CD00005F02AF8BDE8F09F00BF00F00702064BC0
:100CE00019684FF6FF031940044B0B4343EA0221F6
:100CF000014B196000BF70470CED00E00000FA05E1
:100D000070B505460C4604F08000802808D104F038
:100D1000070000EB800605F1280000EBC60105E0A6
:100D200004EB840605F5B47000EBC6011AB9002087
:100D30000873CB8004E0012008730B81180C4881F4
:100D4000002070BD704770B504460D4605EB850365
:100D500004F1280101EBC3014A692946D4F8E802ED
:100D600003F05CF970BD70B504460D4605EB8503D4
:100D700004F5B47101EBC3014A692946D4F8E802CD
:100D800003F0CCF970BD70B504460E4606F0800045
:100D900080280AD106F0070000EB800104F128004A
:100DA00000EBC1050120687009E006F0070000EBC8
:100DB000800104F5B47000EBC1050020687006F0F6
:100DC0000700287000BF94F8A802012801D1022072
:100DD00070BD012084F8A80200BF2946206804F0F5
:100DE00025F800BF002084F8A80200BF00BFEFE78D
:100DF00070B504460E4606F00F006168884201D9BE
:100E0000012070BD06F0800080280AD106F007009E
:100E100000EB800104F1280000EBC105012068709F
:100E200009E006F0070000EB800104F5B47000EB68
:100E3000C105002068700020A87006F00700287027
:100E400000BF94F8A802012801D10220D9E70120AF
:100E500084F8A80200BF2946206804F043F900BFC7
:100E6000002084F8A80200BF00BFCAE72DE9F041C6
:100E700005460C46174607F48040002850D02868E5
:100E8000B0F85010207801EBC000801C296801F5F3
:100E9000806131F81000C0F30906A069B04203D3A5
:100EA000A069801BA06101E00020A061A069A8B931
:100EB00000BF22785200296831F812104BF68F7269
:100EC00001EA020080F4005040F4004141F080014A
:100ED00023785B002A6822F8131000BF07F0400057
:100EE000A8B100BF00BF22785200296831F8121063
:100EF00048F68F7201EA020040F4004141F0C0015F
:100F000023785B002A6822F8131000BF00BF002E70
:100F100055D0228961693346286804F093FE4EE07B
:100F20002868B0F85010207801EBC000801D2968B7
:100F300001F5806131F81000C0F30906A069B042E4
:100F400003D3A069801BA06101E00020A061A0691B
:100F5000A8B900BF22785200296831F812104BF668
:100F60008F7201EA020080F4005040F4004141F029
:100F7000800123785B002A6822F8131000BF07F075
:100F80004000A8B900BF00BF22785200296831F89C
:100F9000121048F68F7201EA020040F4004141F05D
:100FA000C00123785B002A6822F8131000BF00BF3D
:100FB0002EB1628961693346286804F043FE3046E9
:100FC000BDE8F0812DE9F04705460C46904608F053
:100FD000400000287ED02868B0F85010207801EB3F
:100FE000C000801C296801F5806131F81000C0F351
:100FF0000907A069B84203D9A069C01BA06101E03C
:101000000020A061A069E8B921782846FFF79BFE7F
:1010100008F48040002814D000BF00BF227852009E
:10102000296831F8121048F68F7201EA020040F484
:10103000004141F4814123785B002A6822F81310B3
:1010400000BF5FE108F48040A8B100BF00BF227874
:101050005200296831F8121048F68F7201EA020036
:1010600040F4004141F4814123785B002A6822F872
:10107000131000BF00BF94F824000128E1D160697B
:1010800038446061E0693844E0612169206A88423F
:1010900004D32669206A801B20620BE0206A20B9F5
:1010A0003E46002084F8240004E0002084F8240058
:1010B000266A206200BF6078C8BB00BF2A68296822
:1010C000B1F850100A442178022303EBC10102F564
:1010D000806300E047E003EB4101084600BF56B9DA
:1010E000038848F2FF3C03EA0C030380038843F4BF
:1010F0000043038019E03E2E0BD800BF710806F0B4
:10110000010303B1491C4FF6FF7303EA81230380F7
:101110000BE000BF710906F01F0303B9491E4FF42D
:10112000004343EA8123038000BF00BF13E0FFE7D1
:10113000607801280FD100BF28682A68B2F85020D3
:1011400010442278022303EBC20200F5806303EB14
:1011500042010E8000BF00BFB3B2228961692868D6
:1011600004F09FFDCEE02868B0F85010207801EB25
:10117000C000801D296801F5806131F81000C0F3BE
:101180000907A069B84203D3A069C01BA06101E0B0
:101190000020A061A069E8B921782846FFF7D3FDB7
:1011A00008F480400028DDD100BF00BF2278520043
:1011B000296831F8121048F68F7201EA020040F4F3
:1011C000004141F4814123785B002A6822F8131022
:1011D00000BF97E008F48040A8B900BF00BF2278A4
:1011E0005200296831F8121048F68F7201EA0200A5
:1011F00040F4004141F4814123785B002A6822F8E1
:10120000131000BF00BF94F8240001287AD1606950
:1012100038446061E0693844E0612169206A8842AD
:1012200004D32669206A801B20620BE0206A20B963
:101230003E46002084F8240004E0266A0020206254
:1012400084F8240000BF2A68607890BB00BFD5F8FE
:1012500000C02968B1F850108C4421784FF006097D
:1012600009EBC1010CF5806909EB4101084600BF9B
:1012700076B9B0F8009048F2FF3A09EA0A09A0F8F6
:101280000090B0F8009049F40049A0F8009020E0E8
:101290003E2E0FD800BF710806F00109B9F1000F0A
:1012A00000D0491C4FF6FF7909EA8129A0F8009087
:1012B0000FE010E000BF710906F01F09B9F1000F3F
:1012C00000D1491E4FF4004949EA8129A0F8009055
:1012D00000BF00BF0FE0607801280CD12868B0F88B
:1012E000500002442078062101EBC00002F5806125
:1012F00001EB40031E8000BFB3B2628961692868B8
:1013000004F0CFFC00BF22785200296831F8121097
:1013100048F6BF7201EA020080F0100080F0200061
:1013200040F4004141F0800123785B002A6822F8F4
:10133000131000BF0020BDE8F087024601F007004F
:1013400000EB800302F5B47000EBC300C069704786
:101350002DE9F04705460E4690461F464FF000091E
:1013600006F0800080280AD106F0070000EB80011B
:1013700005F1280000EBC1040120607009E006F0CF
:10138000070000EB800105F5B47000EBC1040020FC
:10139000607006F007002070C4F81080E770607875
:1013A00008B12078E081022F01D10020207100BF18
:1013B00095F8A802012802D10220BDE8F08701209B
:1013C00085F8A80200BF2146286803F005FB00BF8E
:1013D000002085F8A80200BF4846EEE72DE9F0415D
:1013E00005460E461746984606F0070000EB8001BA
:1013F00005F5B47000EBC1046761C4F818800020E3
:10140000E061607006F00700207006F0070020B968
:101410002146286803F001FF03E02146286803F015
:10142000FCFE0020BDE8F08170B504460D4605F0D5
:1014300007006168884201D9012070BD05F0800075
:1014400080280AD105F0070000EB800104F1280094
:1014500000EBC1060120707007E005EB850104F583
:10146000B47000EBC106002070700120B07005F070
:101470000700307000BF94F8A802012801D10220B3
:10148000DBE7012084F8A80200BF3146206803F0A2
:1014900096FE05F0070020B904F52C71206803F0D2
:1014A0001EFE00BF002084F8A80200BF00BFC4E7F2
:1014B0002DE9F04105460E4690461F4606F007000E
:1014C00000EB800105F1280000EBC104C4F8148092
:1014D000A761012084F8240027620020E061012038
:1014E000607006F00700207006F0070020B9214662
:1014F000286803F092FE03E02146286803F08DFE81
:101500000020BDE8F0817FB50446206804F096FB1A
:1015100000F40040B0F5004F02D1204601F08DFCF0
:10152000206804F08BFB00F48060B0F5806F0FD171
:101530002068B0F844004FF6FF3108402168A1F858
:101540004400204600F09EF90021204600F0BAF940
:10155000206804F073FB00F48040B0F5804F08D1A0
:101560002068B0F844004BF6FF7108402168A1F8EC
:101570004400206804F062FB00F40050B0F5005F06
:1015800008D12068B0F844004DF6FF71084021688A
:10159000A1F84400206804F051FB00F48050B0F53D
:1015A000805F1DD12068B0F840004FF6FB71084005
:1015B0002168A1F840002068B0F840004FF6F771AC
:1015C00008402168A1F84000204600F06DF920682D
:1015D000B0F844004EF6FF7108402168A1F84400BD
:1015E000206804F02BFB00F40060B0F5006F55D1CB
:1015F000002507E06900206830F811002DF815007B
:10160000681CC5B2082DF5D32068B0F8400040F042
:1016100001002168A1F840002068B0F840004FF6B2
:10162000FE7108402168A1F8400000BF2068B0F8B2
:10163000440000F480600028F8D02068B0F844002E
:101640004FF6FF3108402168A1F84400002507E06B
:101650003DF815006A00216821F81200681CC5B227
:10166000082DF5D32068B0F8400040F0080021684C
:10167000A1F840002068B0F844004FF2FF71084024
:101680002168A1F844002068B0F8400040F0040050
:101690002168A1F84000204600F056F9206804F0C7
:1016A000CDFA00F40070B0F5007F0BD12068B0F8DF
:1016B00044004FF6FF5108402168A1F8440020463D
:1016C00000F0F9F8206804F0B9FA00F48070B0F581
:1016D000807F08D12068B0F844004FF6FF610840D1
:1016E0002168A1F844007FBD30B585B0044614B927
:1016F000012005B030BD94F8A90228B9002084F873
:10170000A802204600F09CF8032084F8A902206873
:1017100003F0DBFC142204F110016846FEF702FD21
:1017200094E80F0003F07EFB20B1022084F8A902A8
:101730000120DEE70021206804F0A9FA002531E04D
:10174000012105EB850204F1280000EBC200417085
:1017500005EB850104F1280000F8315005EB850107
:1017600000EBC100C581002105EB850204F12800D2
:1017700000EBC200C17005EB850204F1280000EB0C
:10178000C200016105EB850204F1280000EBC200F4
:10179000416105EB850204F1280000EBC200816184
:1017A000681CC5B26068A842CAD800252AE000219A
:1017B00005EB850204F5B47000EBC200417005EB47
:1017C000850104F5B47000F83150002105EB850265
:1017D00000EBC200C17005EB850204F5B47000EBAC
:1017E000C200016105EB850204F5B47000EBC20094
:1017F000416105EB850204F5B47000EBC200816124
:10180000681CC5B26068A842D1D8142204F1100146
:101810006846FEF787FC94E80F0003F04BFC20B10C
:10182000022084F8A902012063E7002084F8240044
:10183000012084F8A902206803F039FC002058E751
:1018400038B504460D492068884215D100BF0C48C0
:10185000C06940F400000A49C8610846C06900F444
:101860000000009000BF00BF002211461420FFF7C7
:10187000F5F91420FFF7E2F938BD0000005C0040E4
:101880000010024070B504460125A068022801D06E
:10189000FEF71DFD2946D4F8E80202F073FDD4F8E6
:1018A000E80202F025FD70BD10B50446D4F8E80248
:1018B00002F04CFD10BD10B50446D4F8E80202F069
:1018C00050FD10BD70B504460D4600BF94F8A80247
:1018D000012801D1022070BD012084F8A80200BFB8
:1018E00084F824502946206804F0D4F900BF002071
:1018F00084F8A80200BF00BFEDE710B5044604F568
:101900002C71D4F8E80202F054FD10BD10B5044665
:1019100000BF94F8A802012801D1022010BD0120C7
:1019200084F8A80200BF206804F076F9012120465F
:10193000FFF708FA206803F0B7FB00BF002084F827
:10194000A80200BF00BFE9E710B50446D4F8E802DA
:1019500002F088FDA06928B10348006840F0060045
:101960000149086010BD000010ED00E001200149B0
:101970000862704700000E422DE9F04385B006462C
:101980003BA30FCB01AC0FC43DA0006800904FF00B
:101990000008002500270024A146012E30D0022E89
:1019A00055D0102E5ED137484468006800F0807032
:1019B00000B301A8C4F38341475C04F4803070B1E4
:1019C00030484068C0F340401DF8008004F4803087
:1019D00040B12D48B0FBF8F000FB07F502E02B48C2
:1019E00007FB00F52748406800F48000B0F5800F41
:1019F00001D1A94603E068000321B0FBF1F932E010
:101A00002048046A04F44070B0F5807F05D104F0EA
:101A1000020010B14FF4004918E004F44070B0F532
:101A2000007F07D11748406A00F0020010B149F664
:101A300040490BE004F44070B0F5407F06D11148F6
:101A4000006800F4003008B14FF224490BE000F0C8
:101A500093F90C494968C1F38131491C4900B0FB35
:101A6000F1F900E000BF00BF484605B0BDE8F083D3
:101A700002030405060708090A0B0C0D0E0F1010CF
:101A8000010200000010024000127A0000093D002F
:101A9000F8B5044600260025207800F00100002853
:101AA0006BD000274348C06900F0805070B900BF78
:101AB0004048C06940F080503E49C8610846C0694E
:101AC00000F08050009000BF00BF01273A48006836
:101AD00000F48070B0B93848006840F4807036492E
:101AE0000860FEF713FF064606E0FEF70FFF801BB7
:101AF000642801D90320F8BD2F48006800F48070E5
:101B00000028F2D02B48006A00F440752DB3A0885D
:101B100000F44070A84220D02648006A20F44075A6
:101B2000012026490860002008602248056205F06F
:101B3000010090B1FEF7EAFE064608E0FEF7E6FE79
:101B4000801B41F28831884201D90320D3E719482C
:101B5000006A00F002000028F0D01648006A20F465
:101B600040706168084313490862012F04D1084698
:101B7000C06920F08050C86100BF207800F00200EA
:101B8000022807D10B48406820F44040A168084370
:101B900008494860207800F01000102807D1054857
:101BA000406820F48000E168084302494860002052
:101BB000A1E70000001002400070004040044242D3
:101BC00070B504460D460CB9012070BD5A48006836
:101BD00000F00700A8420ED25748006820F0070026
:101BE0002843554908600846006800F00700A842ED
:101BF00001D00120E9E7207800F0020002281DD181
:101C0000207800F00400042805D14C48406840F4D6
:101C1000E0604A494860207800F00800082805D1B3
:101C20004648406840F46050444948604348406832
:101C300020F0F000A168084340494860207800F097
:101C4000010078B36068012806D13C48006800F4C0
:101C5000003090B90120B8E76068022806D1374803
:101C6000006800F0007040B90120AEE7334800681A
:101C700000F0020008B90120A7E73048406820F0D2
:101C80000300616808432D494860FEF73FFE0646A1
:101C900009E0FEF73BFE801B41F28831884202D901
:101CA000032092E707E02548406800F00C006168D7
:101CB000B0EB810FEDD12048006800F00700A8428A
:101CC0000ED91D48006820F0070028431A49086013
:101CD0000846006800F00700A84201D0012074E720
:101CE000207800F00400042807D11448406820F44C
:101CF000E060E168084311494860207800F008007E
:101D0000082808D10D48406820F46050216940EA55
:101D1000C1000A49486000F03FF808494968C1F32A
:101D20000311074A515CC84006490860064800682C
:101D3000FEF734FF002048E7002002400010024078
:101D400058640008100000200800002001480068C6
:101D5000704700001000002000B5FFF7F7FF0449AE
:101D60004968C1F30221034A515CC84000BD00002C
:101D7000001002406864000800B5FFF7E7FF04495F
:101D80004968C1F3C221034A515CC84000BD00004C
:101D90000010024068640008F0B585B00FF26C0CCA
:101DA0009CE8E01001A8A0E8E0101CA52D680095B3
:101DB00000210022002300240020194D696801F051
:101DC0000C05F5B1042D02D0082D19D101E01548FC
:101DD00019E001ADC1F38346AC5D01F4803555B126
:101DE0000F4D6D68C5F340451DF805200D4D654349
:101DF000B5FBF2F302E00C4D04FB05F3184602E0DC
:101E000000BF084800BF00BF05B0F0BD02030405D5
:101E1000060708090A0B0C0D0E0F10100102000036
:101E20000010024000127A0000093D00F8B5044697
:101E30000CB90120F8BD207800F00100002878D00E
:101E4000F848406800F00C0004280CD0F5484068C1
:101E500000F00C00082811D1F248406800F48030EE
:101E6000B0F5803F0AD1EF48006800F40030002848
:101E70005FD0606800285CD10120DBE700BF6068AC
:101E8000B0F5803F06D1E748006840F48030E5496E
:101E9000086028E0606858B9E248006820F48030A3
:101EA000E04908600846006820F4802008601AE0D5
:101EB0006068B0F5A02F0BD1DA48006840F48020AC
:101EC000D84908600846006840F4803008600AE09D
:101ED000D448006820F48030D24908600846006881
:101EE00020F48020086000BF606888B1FEF70EFD16
:101EF000054606E0FEF70AFD401B642801D90320D1
:101F000098E7C848006800F400300028F2D010E0DC
:101F1000FEF7FCFC054606E0FEF7F8FC401B6428D3
:101F200001D9032086E7BF48006800F4003000288C
:101F3000F2D1207800F00200022857D1B948406859
:101F400000F00C0050B1B748406800F00C000828C1
:101F500018D1B448406800F4803098B9B14800689E
:101F600000F0020020B12069012801D0012061E7C2
:101F7000AC48006820F0F800616940EAC100A94956
:101F8000086033E02069E8B10120A7490860FEF746
:101F9000BDFC054606E0FEF7B9FC401B022801D94E
:101FA000032047E79F48006800F002000028F2D0B5
:101FB0009C48006820F0F800616940EAC100994936
:101FC000086013E0002098490860FEF79FFC054672
:101FD00006E0FEF79BFC401B022801D9032029E7FD
:101FE0009048006800F002000028F2D1207800F04C
:101FF000080008282DD1A069B8B101208B490860DC
:10200000FEF784FC054606E0FEF780FC401B022834
:1020100001D903200EE78348406A00F0020000283F
:10202000F2D0012001F0FCF813E000207F490860A5
:10203000FEF76CFC054606E0FEF768FC401B022834
:1020400001D90320F6E67748406A00F00200002834
:10205000F2D1207800F00400042873D100277148E1
:10206000C06900F0805070B900BF6E48C06940F090
:1020700080506C49C8610846C06900F080500090EB
:1020800000BF00BF01276A48006800F48070B0B943
:102090006748006840F4807065490860FEF736FCC8
:1020A000054606E0FEF732FC401B642801D90320F8
:1020B000C0E65F48006800F480700028F2D000BFDE
:1020C000E068012806D15748006A40F001005549F0
:1020D000086227E0E06858B95248006A20F0010021
:1020E000504908620846006A20F00400086219E0BE
:1020F000E06805280BD14B48006A40F004004949CC
:1021000008620846006A40F0010008620AE045489B
:10211000006A20F00100434908620846006A20F086
:102120000400086200BFE068A0B1FEF7EFFB0546BF
:1021300009E0FEF7EBFB401B41F28831884202D9EF
:10214000032077E622E03748006A00F0020000280A
:10215000EFD012E0FEF7DAFB054608E0FEF7D6FB0B
:10216000401B41F28831884201D9032062E62D48A4
:10217000006A00F002000028F0D1012F05D12948A3
:10218000C06920F080502749C86100BFE069C8B32A
:102190002448406800F00C00082860D0E06902285C
:1021A00048D1002020490866FEF7B0FB054606E04E
:1021B000FEF7ACFB401B022801D903203AE6194880
:1021C000006800F000700028F2D1206AB0F5803F6E
:1021D00007D11448406820F40030A1680843114931
:1021E0004860D4E9080108430E49496821F4741194
:1021F00008430C49486001200B490866FEF786FB3E
:10220000054607E03DE0FEF781FB401B022801D9AF
:1022100003200FE60348006800F000700028F2D0A9
:102220002FE00000001002400000424280044242C1
:1022300000700040002014490866FEF767FB054661
:1022400006E0FEF763FB401B022801D90320F1E5FD
:102250000E48006800F000700028F2D111E0E0693B
:10226000012800D1E6E50948466806F48031206A75
:10227000814204D106F47011606A814201D00120CC
:10228000D8E50020D6E500000000424200100240E0
:1022900070B5044600250CB9012070BD607C20B9E2
:1022A00000202074204600F05BF802206074204675
:1022B00000F060F918B1042060740120EDE72046B9
:1022C00000F0CDFF18B1042060740120E5E720681C
:1022D000406820F0070021684860A06828B11F48C6
:1022E000006820F001001D4908601C48001F0068BC
:1022F00020F46070A16808431849091F08606068ED
:10230000401C08B1656809E00120FFF735FB054670
:102310001DB9042060740120BFE76D1E206880682D
:1023200020F00F0040EA1540216888602068C068EE
:1023300065F30F002168C860204600F0ADFF18B1BA
:10234000042060740120A8E70021E173012161737A
:10235000A1730120607400209FE70000306C0040F2
:1023600038B504460B492068884212D1FFF7FEFABF
:1023700000BF0948C06940F000600749C8610846CD
:10238000C06900F00060009000BF00BF0120034959
:10239000086038BD00280040001002403C04424262
:1023A0002DE9F04704460D46904600260027B14629
:1023B00004B115B90120BDE8F08700BF207C0128D9
:1023C00001D10220F7E70120207400BF02206074D1
:1023D000B8F1000F06D1E978E17369786173A978E3
:1023E000A1730BE0E87800F02FFFE073687800F04D
:1023F0002BFF6073A87800F027FFA073A27B617B9E
:10240000E07B00F08CFF2073207B2870204600F0DA
:102410006CFF06464FF46160B6FBF0F9B9F1180F96
:102420002FD91820B9FBF0F000EB4000C000C0EB42
:102430004011C1EB0020A6EB00163146204600F00B
:10244000C7FF38B10420607400BF0020207400BFB3
:102450000120B0E7204600F03CFF0746781C80B121
:10246000B7420ED20B4807443946204600F099FF88
:1024700038B10420607400BF0020207400BF012028
:1024800099E70120607400BF0020207400BF00BFE6
:1024900091E70000805101002DE9F04704460D4608
:1024A00090460026002704B115B90120BDE8F08749
:1024B00000BF207C012801D10220F7E70120207411
:1024C00000BF02206074B8F1000F0BD128784FF4E0
:1024D000616148436978C1EB011100EB8100A97883
:1024E000461812E0287800F0AFFE4FF4616100FB5F
:1024F00001F9687800F0A8FEC0EB001009EB800934
:10250000A87800F0A1FE09EB00063146204600F055
:102510005FFF38B10420607400BF0020207400BF4A
:102520000120C3E72068406820F00500216848606A
:10253000204600F0CEFE0746781C80B1B7420ED28E
:102540000B4807443946204600F02BFF38B10420E1
:10255000607400BF0020207400BF0120A6E70120A6
:10256000607400BF0020207400BF00BF9EE7000021
:102570008051010070B5044600250CB9012070BDE2
:102580002068406820F0080021684860FEF7BEF926
:10259000054607E0FEF7BAF9401BB0F57A7F01D98E
:1025A0000320ECE72068406800F008000028F1D024
:1025B0000020E4E770470000F8B50446206846684C
:1025C00020688568C5F3801048B905F0010030B176
:1025D000C6F3801018B12046216C8847F8BDC5F3BA
:1025E000400030B1C6F3C01018B12046616C884776
:1025F000F4E7C5F3401018B9C5F38010002871D076
:10260000C6F3401000286DD0C5F38010F0B194F8E7
:10261000510003280ED0606D40F00400606500BFDB
:10262000002000902068C0680090206880680090BA
:1026300000BF0BE000BF002000902068C068009041
:1026400020688068009000BF00BFC7E7C5F3401056
:1026500088B1606D40F00100606500BF002000900F
:102660002068806800902068006820F040002168A1
:10267000086000BF00BF606D70B32068406820F044
:10268000E00021684860012084F8510006F0020053
:1026900010B906F0010000B32068406820F0030084
:1026A00021684860E06C50B10F48E16C4863E06C11
:1026B000FDF728FE18B1606D40F040006065A06C29
:1026C00050B10948A16C4863A06CFDF71BFE18B11E
:1026D000606D40F04000606502E02046FFF76AFF51
:1026E0007CE7FFE700BF79E71134000810B5044626
:1026F0000CB9012010BD606A38B96068B0F5827FFE
:1027000000D105E00021E16102E000212161616169
:102710000021A16294F8510028B9002084F85000EB
:10272000204600F043F8022084F851002068006839
:1027300020F0400021680860A08800F482702189A0
:1027400001F404410843A18901F400610843217C9C
:1027500001F002010843217D01F001010843218BB2
:1027600001F400710843217F01F038010843202162
:10277000095D01F080010843218D01F400510843F7
:10278000216808600421A06901EA104021684860BE
:102790002068C06920F400602168C861002060657D
:1027A000012084F851000020A4E7000010B586B095
:1027B0000446002002900390049005902B49206865
:1027C000884250D100BF2A48806940F4805028498F
:1027D00088610846806900F48050019000BF00BF06
:1027E00000BF0846806940F004008861084680699F
:1027F00000F00400019000BF00BFA0200290022062
:1028000003900320059002A91A48FDF7E9FE402035
:10281000029000200390049002A91648FDF7E0FE04
:10282000154816490860102048600021134881604F
:102830008021C16000210161416181614FF48051BB
:10284000C161FDF785FE08B1FDF741FD00BF0B48F2
:10285000A064446200BF002211462320FEF7FEF967
:102860002320FEF7EBF906B010BD00000030014058
:1028700000100240000801403000024070020020B9
:102880002DE9F84F0446884616461D464FF0000ACB
:1028900000BF94F85000012802D10220BDE8F88F53
:1028A000012084F8500000BFFEF730F80746B1461B
:1028B00094F85100012802D04FF0020AADE0B8F1BF
:1028C000000F00D016B94FF0010AA6E0032084F8EB
:1028D000510000206065C4F83080A686E686A063BB
:1028E000A087E08760642064A068B0F5004F0BD13A
:1028F0002068006820F040002168086020680068B7
:1029000040F48040216808602068006800F04000C2
:10291000402805D02068006840F040002168086029
:10292000E068B0F5006F2FD1606810B1B9F1010F08
:1029300009D1206B00882168C860206B801C20634F
:10294000E08E401EE0861BE02068806800F00200F8
:1029500002280AD1206B00882168C860206B801C87
:102960002063E08E401EE0860AE0FDF7CFFFC01B2B
:10297000A84201D3681C00B915B94FF0030A4CE016
:10298000E08E0028E0D12EE0606810B1B9F1010FAF
:1029900009D1206B007821680873206B401C2063EC
:1029A000E08E401EE0861BE02068806800F0020098
:1029B00002280AD1206B007821680873206B401C24
:1029C0002063E08E401EE0860AE0FDF79FFFC01BFB
:1029D000A84201D3681C00B915B94FF0030A1CE0E6
:1029E000E08E0028E0D13A462946204600F01AFD44
:1029F00008B120206065A06850B900BF0020009099
:102A00002068C068009020688068009000BF00BF08
:102A1000606D08B14FF0010A00BF012084F8510039
:102A200000BF002084F8500000BF504636E770B564
:102A300004462546681EB0F1807F01D301200FE0D7
:102A4000681E4FF0E02148610F214FF0FF3003F086
:102A50006BF900204FF0E021886107200861002019
:102A600070BD10B504460CB9012010BDA06900B1BD
:102A700000E000BF94F8390028B9002084F838003D
:102A8000204600F027F8242084F839002068C06828
:102A900020F400502168C860204600F08FFD2068B7
:102AA000006920F49040216808612068406920F0A6
:102AB0002A00216848612068C06840F400502168FD
:102AC000C8600020E063202084F8390084F83A00D0
:102AD0000020CAE710B586B004460020029003909B
:102AE000049005901949206888422DD100BF1848EC
:102AF000C06940F400301649C8610846C06900F456
:102B00000030019000BF00BF00BF0846806940F060
:102B1000040088610846806900F00400019000BF4D
:102B200000BF04200290022003900320059002A918
:102B30000848FDF755FD08200290002003900490FE
:102B400002A90448FDF74CFD06B010BD004400404A
:102B5000001002400008014000BFFEE730B50B4600
:102B6000002100BF16E00A24B4EB107F05D9302401
:102B700004EB107403F8114005E0412404EB1074D9
:102B80000A3C03F81140000100254C00641C1D554F
:102B90004C1CE1B29142E6DB30BD000008B500BF3D
:102BA0000A48406940F00100084948610846406908
:102BB00000F00100009000BF00BF002211460D2070
:102BC000FEF74CF80D20FEF739F808BD0010024062
:102BD00000B585B00020019002900390049000BFE2
:102BE0003348806940F010003149886108468069A7
:102BF00000F01000009000BF00BF00BF08468069D1
:102C000040F0200088610846806900F020000090B4
:102C100000BF00BF00BF0846806940F00400886123
:102C20000846806900F00400009000BF00BF00BFAC
:102C30000846806940F0080088610846806900F015
:102C40000800009000BF00BF00224FF203011948A6
:102C5000FDF756FE00224FF440711748FDF750FE75
:102C600041F2030001900120029000200390022015
:102C7000049001A90F48FDF7B3FC4FF460400190A8
:102C80000120029003900220049001A90948FDF759
:102C9000A7FC4FF4407001900120029000200390A7
:102CA0000220049001A90448FDF79AFC05B000BD7C
:102CB00000100240000C01400008014010B50B4814
:102CC0000B4908600B484860002109488160C160D9
:102CD0004FF480410161002141618161C161016264
:102CE000FDF71AFE08B1FDF7F2FA10BD00540040DE
:102CF000B0010020A08601001CB5002001900090CA
:102D00001848194908604FF0FF3048604FF480714F
:102D100015488160FFF7BCFA08B1FDF7D8FA00202A
:102D20008DF804008DF805008DF80600012201A938
:102D30000D48FFF7B1FB08B1FDF7C9FA01208DF886
:102D400000008DF801008DF8020000208DF80300CE
:102D5000012269460448FFF723FB08B1FDF7B7FAE3
:102D60001CBD0000002800400402002010B50E48E1
:102D70000E4908604FF48270486000210B48816062
:102D8000C160016141614FF4007181611821C1612D
:102D900000210162416281620A21C162FFF7A6FC43
:102DA00008B1FDF794FA10BD003001401802002070
:102DB00010B50B480B4908604FF4E1304860002122
:102DC00008488160C16001610C214161002181617D
:102DD000C161FFF746FE08B1FDF779FA10BD0000AA
:102DE00000440040B402002010B500220D490E48F6
:102DF00001F0D5F808B1FDF76AFA0C490A4801F06C
:102E000067FB08B1FDF763FA0949074800F085FD43
:102E100008B1FDF75CFA044801F024FC08B1FDF7A5
:102E200056FA10BD3C000020F4060020AC00002043
:102E30008C00002000BFFEE770472DE9F0470546F3
:102E4000E2E12868B0F844A00AF00F06002E7ED117
:102E50000AF01000B0BB00BF2968098848F60F725D
:102E600001EA020040F400412A68118000BF05F128
:102E700028042868B0F85010207801EBC000801CAE
:102E8000296801F5806131F81000C0F30900E061A4
:102E9000E16960690844606100212846FDF753FF3D
:102EA00095F824000028CBD0A0690028C8D195F857
:102EB000240040F080002968A1F84C00002085F82B
:102EC0002400A1E1FFE705F5B4742868B0F800809C
:102ED00008F4006030B32868B0F85010207801EB97
:102EE000C000801D296801F5806131F81000C0F331
:102EF0000900E061A18B8BB2E28805F52C7128688E
:102F000002F0A0FE00BF2968098840F68F7201EA2E
:102F1000020040F080012A68118000BF2846FEF7B9
:102F2000ECFC71E108F40040002889D000BF29685A
:102F3000098840F68F7201EA020040F080012A6899
:102F4000118000BF2868B0F85010207800E069E0D8
:102F500001EBC000801D296801F5806131F8100087
:102F6000C0F30900E061E06990B1606980B1B4F834
:102F70001CC01FFA8CF3E2886169286802F062FEC7
:102F8000E16960690844606100212846FDF7EBFEB5
:102F900000BF2A682968B1F850100A4402F20C41B7
:102FA000084600BF236953B9038848F2FF3C03EA8F
:102FB0000C030380038843F4004303801EE023696D
:102FC0003E2B0DD800BF23695908237C03F0010371
:102FD00003B1491C4FF6FF7303EA812303800DE020
:102FE00000BF23695909237C03F01F0303B9491E5D
:102FF0004FF4004343EA8123038000BF00BF00BFBA
:1030000000BF296809884BF68F7201EA020080F43C
:10301000805080F4005040F4004141F080012A6863
:103020001180F1E07100286830F8118008F4004048
:1030300000287ED000BF7200296831F8121040F6D7
:103040008F7201EA020040F0800173002A6822F8C2
:10305000131000BF06EB860105F5B47000EBC10448
:10306000207BB0B92868B0F85010207801EBC00080
:10307000801D296801F5806131F81000C0F309074F
:10308000002F5BD0E28861693B46286802F0DAFDD8
:1030900054E0E078022806D1424621462846FDF752
:1030A000E5FE07464AE000BF00BF227852002968CB
:1030B00031F8121048F68F7201EA020040F4004124
:1030C00041F0C00123785B002A6822F8131000BF8A
:1030D00000BF21784900286830F8110000F48040D2
:1030E000A8B12868B0F85010207801EBC000801C0F
:1030F000296801F5806131F81000C0F30907EFB1CC
:10310000228961693B46286802F09CFD16E0286828
:10311000B0F85010207801EBC000801D296801F53F
:10312000806131F81000C0F309073FB1628961691D
:1031300000E017E03B46286802F084FDE06938446F
:10314000E061606938446061A06910B12069B842EB
:1031500004D921782846FDF706FE03E021462868B9
:1031600002F05BF808F08000A0B306EB860105F1E1
:10317000280000EBC10400BF7200296831F812106A
:1031800048F60F7201EA020040F4004173002A6819
:1031900022F8131000BFE078022805D1E078022859
:1031A0002DD108F4807050BB2868B0F850102078FA
:1031B00001EBC000801C296801F5806131F8100026
:1031C000C0F30909A069484505D9A069A0EB090029
:1031D000A06102E018E00020A061A06920B9217878
:1031E0002846FDF7B0FD0FE0606948446061E06982
:1031F0004844E0612146286802F00FF804E04246A6
:1032000021462846FDF7DEFE2868B0F8440000F4A9
:10321000004000287FF415AEBDE8F087704700003D
:1032200008B508490968C9084FF47A72B1FBF2F190
:103230004143009100BF00BF00994A1E009200293F
:10324000F9D108BD10000020014600BF080900EBBD
:103250008000420001F00F001044C0B2704770B50A
:1032600004460025FDF752FB054607E0FDF74EFB3F
:10327000401BB0F57A7F01D9032070BD20684068FB
:1032800000F020000028F1D02068406840F01000D5
:10329000216848600020F0E770B5044600252068EA
:1032A000406820F0100021684860FDF72FFB0546BC
:1032B00007E0FDF72BFB401BB0F57A7F01D9032017
:1032C00070BD2068406800F020000028F1D0002088
:1032D000F6E70146002200230868006A82B2086807
:1032E000406A83B243EA0240704730B5014600228B
:1032F0000023002400200D68AD69AAB20D68ED69B5
:10330000ACB20D68AD69ABB29A4205D00D68ED69FB
:1033100063F31F45284601E044EA024030BDF0B5A2
:1033200004460B460021002504F5FA61032B1BD24D
:10333000C3EBC30000EB03100926B0FBF6F010440A
:10334000001D4618481E06EB90066427B0FBF7F0F8
:10335000361A481EBF00B0FBF7F030440726B0FB1A
:10336000F6F706FB17051AE0C3EBC30000EB0310EA
:103370000926B0FBF6F01044001D084400EB910054
:103380006426B1FBF6F6801B4FF4C876B1FBF6F667
:103390003044801E0726B0FBF6F706FB1705E8B29F
:1033A000F0BD70B504460D4600262046FFF757FFD6
:1033B00008B101260AE0280C21680862A8B2216839
:1033C00048622046FFF768FF00B10126304670BD15
:1033D00070B504460D4600262046FFF740FF08B1B1
:1033E00001260AE0280C21688861A8B22168C8611A
:1033F0002046FFF751FF00B10126304670BD0000A6
:1034000010B50248FFF7D8F810BD000018020020E0
:1034100070B505466C6A0020E087E0862046FFF71D
:10342000C9F870BDF8B504460D4616462B46002275
:1034300080212046009600F009F828B1606D40F028
:10344000200060650320F8BD0020FCE72DE9F84F5F
:1034500004460D4690461E46DDF82890FDF756FAC4
:10346000A0EB0900371AFDF751FA82462C48006894
:10347000C0F3CB307843009045E0701C002842D068
:10348000FDF744FAA0EB0A00B84200D2A7BB2068BF
:10349000406820F0E000216848606068B0F5827FF5
:1034A0000DD1A068B0F5004F03D0A068B0F5806FD3
:1034B00005D12068006820F0400021680860A06AFB
:1034C000B0F5005F0DD100BF2068006820F4005007
:1034D000216808602068006840F400502168086096
:1034E00000BF012084F8510000BF002084F8500084
:1034F00000BF0320BDE8F88FFFE7009800B9002760
:103500000098401E0090206880682840A84201D1A1
:10351000012000E000204045AFD10020EAE7000094
:1035200010000020704710B5FDF718FB10BD00B566
:1035300093B0282109A8FCF71CFE142104A8FCF76D
:1035400018FE00200090019002900390092009903D
:103550004FF480300A9000200B9001200D900F90C6
:1035600002201090C1031191C104129109A8FEF725
:103570005DFC08B1FCF7ABFE0F2004900220059023
:10358000002006904FF480600790002008900121F1
:1035900004A8FEF715FB08B1FCF799FE1120009076
:1035A0004FF400700190400303906846FEF770FAF4
:1035B00008B1FCF78CFE13B000BD704770B504462F
:1035C0002168096921F44051E268114322681161C0
:1035D0002269A1681143626941EA02052168C9684C
:1035E00041F20C62914329432268D1602168496904
:1035F00021F44071A2691143226851612D4A21686A
:10360000914202D1FEF7B8FB01E0FEF7A5FB00EB0B
:10361000C00101EB001162689200B1FBF2F100EB16
:10362000C00202EB001263689B00B2FBF3F264235A
:10363000B2FBF3F202EBC20303EB0212A1EB820135
:10364000322202EB01116422B1FBF2F101F0F00130
:1036500000EBC00202EB001263689B00B2FBF3F2C6
:103660006423B2FBF3F201EB021200EBC00101EBA9
:10367000001163689B00B1FBF3F100EBC00303EBA7
:1036800000136668B600B3FBF6F36426B3FBF6F3EB
:1036900003EBC30606EB0313A1EB8301322303EB19
:1036A00001116423B1FBF3F101F00F011144226811
:1036B000916070BD003801402DE9F04104460D468F
:1036C000D4F8B862D4F8C072D4F8B80278B305EB75
:1036D000850104F1140000EB8100806808B305EB5C
:1036E000850104F1140000EB810005EB850281687F
:1036F00007F1280000EBC2000069B1FBF0F200FB0B
:10370000121070B9002105EB850204F1140000EBE2
:103710008200816000231A462946204600F0ACFE54
:1037200002E00020C6F814020020BDE8F081FFE7A7
:103730000220FAE770B504460E46D4F8B852314676
:10374000204600F03EFDC5F80C02D4F8B80248B19E
:10375000D5F80402D4F8BC12CA6805F50371904785
:10376000002070BD0220FCE770B504460E4600251F
:103770008121204600F03FFC0021E162012120462A
:1037800000F039FC0021C4F86C118221204600F0C1
:1037900032FC00212164D4F8B80250B1D4F8BC1234
:1037A00048688047D4F8B80201F00FF90020C4F847
:1037B000B802284670BD70B50546D5F8B842D5F8B0
:1037C000BC0278B194F80002FF280BD094F80122D3
:1037D00094F80002D5F8BC128B6821469847FF2068
:1037E00084F80002002070BD01460A2008800148CC
:1037F00070470000A00000200146432008800148D7
:10380000704700002801002001464320088001483D
:1038100070470000E4000020014643200880014872
:10382000704700006C0100202DE9F04104460F466E
:103830000026207C88B94FF40073022281212046A3
:1038400000F026FD0121E1624B020222204600F039
:103850001FFD0121C4F86C110FE0402302228121D9
:10386000204600F015FD0121E1624023022220469E
:1038700000F00EFD0121C4F86C11082303228221FF
:10388000204600F005FD012121644FF4077001F08E
:103890009DF8C4F8B802D4F8B80208B901261CE0B3
:1038A000D4F8B852D4F8BC12086880470020C5F894
:1038B0001402C5F81802207C40B94FF400730121AE
:1038C0002046D5F8042200F0FBFC06E0402301214D
:1038D0002046D5F8042200F0F3FC3046BDE8F08124
:1038E00070B50446D4F8B852D4F8B80298B1207C28
:1038F00040B94FF4007301212046D5F8042200F0AE
:10390000DFFC06E0402301212046D5F8042200F028
:10391000D7FC002070BD0220FCE70246022011B156
:10392000C2F8BC12002070470246D2F8B832C3F881
:1039300004120020704710B50346D3F8B842C4F80B
:103940000812C4F81022002010BD2DE9FC410546E4
:103950000C46D5F8B862002001900090002720782E
:1039600000F0600040B320285FD1E088E0B120780B
:1039700000F0800060B1E2886078D5F8BC128B68F6
:1039800031469847E2883146284600F0C7F812E0F1
:10399000607886F80002A07986F80102E288314654
:1039A000284600F09AF806E06078D5F8BC120022AC
:1039B0008B68214698473EE0607820B10A2812D0F3
:1039C0000B282AD11FE095F89C02032805D102227A
:1039D0006946284600F0A2F804E02146284600F097
:1039E00070F802271FE095F89C02032805D10122F8
:1039F00001A9284600F092F804E02146284600F08C
:103A000060F802270FE095F89C02032804D02146B5
:103A1000284600F056F8022705E02146284600F027
:103A200050F8022700BF00BF05E02146284600F0FD
:103A300048F8022700BF00BF3846BDE8FC8170B5DA
:103A400004460D46D4F8B402294642682046904701
:103A5000002070BD70B504460D4694F89C02012804
:103A600004D0022803D003280CD101E000BF00BF1E
:103A70006888012805D10020C4F8A402204600F07F
:103A80005EF804E02946204600F01BF800BF00BFA6
:103A900070BD70B506460C4615462B4622460021E1
:103AA000304600F00DFC002070BD70B506460C4697
:103AB00015462B4622460021304600F0DDFC002052
:103AC00070BD70B504460D468021204600F0A8FC6C
:103AD0000021204600F0A4FC70BD70B504460E46DF
:103AE00015460320C4F894024FF4AE700551001D32
:103AF00005512B4632460021204600F0E1FB002014
:103B000070BD10B504460520C4F8940200231A467F
:103B10001946204600F0D4FB002010BD70B50446C5
:103B20000E4615460220C4F89402E56125622B4634
:103B300032460021204600F09FFC002070BD10B5E9
:103B400004460420C4F8940200231A46194620466D
:103B500000F092FC002010BD70B505460C462DB952
:103B60002246064906A000F0DBF904E0224603499C
:103B700003A000F0D5F9014870BD0000B80900208D
:103B800043444320436F6E6669670000024612207B
:103B900008800148704700005800002070B50546B5
:103BA0000C462DB92246064906A000F0B9F904E0FA
:103BB0002246034903A000F0B3F9014870BD00009C
:103BC000B809002043444320496E746572666163FE
:103BD000650000000246042008800148704700008C
:103BE0006C00002070B505460C462246024903A031
:103BF00000F096F9004870BDB809002053544D6993
:103C000063726F656C656374726F6E6963730000D5
:103C100070B505460C462DB92246064906A000F0AF
:103C20007FF904E02246034903A000F079F9014836
:103C300070BD0000B809002053544D33322056693E
:103C4000727475616C20436F6D506F727400000068
:103C500070B505460C461A202080FCF739FB014858
:103C600070BD00007000002070B504460D46E88865
:103C7000012804D029462046FFF723FF1EE094F8D0
:103C80009C02012804D0022803D0032810D109E0A7
:103C900000BF0020A060012204F108012046FFF7C8
:103CA0003DFF0AE00122211D2046FFF737FF04E017
:103CB00029462046FFF705FF00BF00BF70BDF8B5DD
:103CC00004460E4600200090002700257088001250
:103CD000082875D2DFE800F0C7040C20C7C7A5B5D7
:103CE000207CD4F8B0120A68694690470746C1E0C4
:103CF000207C40B9D4F8B402816A684688470746F8
:103D00000220787007E0D4F8B402C16A6846884798
:103D1000074602207870ADE0B078062878D2DFE858
:103D200000F00316293C5063D4F8B002406838B163
:103D3000207CD4F8B0124A6869469047074605E0EF
:103D400031462046FFF7BDFE681CC5B267E0D4F8D7
:103D5000B002806838B1207CD4F8B0128A68694615
:103D60009047074605E031462046FFF7AAFE681C4B
:103D7000C5B254E0D4F8B002C06838B1207CD4F8A1
:103D8000B012CA6869469047074605E031462046AA
:103D9000FFF797FE681CC5B241E0D4F8B002006995
:103DA00038B1207CD4F8B0120A69694690470746BA
:103DB00005E031462046FFF784FE681CC5B22EE0C0
:103DC00051E0D4F8B002406938B1207CD4F8B01288
:103DD0004A6969469047074605E031462046FFF7A5
:103DE00070FE681CC5B21AE0D4F8B002806940B118
:103DF000207CD4F8B0128A6969469047074606E0ED
:103E000006E031462046FFF75CFE681CC5B206E0BE
:103E100031462046FFF755FE681CC5B200BF00BF03
:103E200028E0207C30B9D4F8B402416B684688475A
:103E3000074605E031462046FFF743FE681CC5B241
:103E400018E0207C40B9D4F8B402016B684688477A
:103E500007460720787005E031462046FFF731FE1F
:103E6000681CC5B206E031462046FFF72AFE681CF2
:103E7000C5B200BF00BF05B1F8BDBDF8000088B1F4
:103E8000F08878B1F088BDF80010884202DDBDF8F6
:103E9000000000E0F0880090BDF800203946204680
:103EA000FFF73CFEF08810B92046FFF748FE00BF40
:103EB000E2E70146002002E0421CD0B2491C0A7829
:103EC000002AF9D1704770B504460D4694F89C025B
:103ED000012804D0022803D003281AD101E000BF32
:103EE00000BFE888022804D029462046FFF7E9FDF4
:103EF00014E00120E060D4F8A40218B1E06840F0BA
:103F00000200E060022204F10C012046FFF706FEE9
:103F100004E029462046FFF7D4FD00BF00BF70BD76
:103F20002DE9F04104460D4617460026FCB1204617
:103F3000FFF7BFFF022101EB400038803A7830469E
:103F4000711CCEB22A5403223046711CCEB22A54C0
:103F50000AE014F8012B3046711CCEB22A5400221C
:103F60003046711CCEB22A5420780028F1D1BDE829
:103F7000F0810146002031B1012906D0022906D086
:103F8000032908D105E0002007E0022005E0012018
:103F900003E0022001E0022000BF00BF704770B5BF
:103FA00004460D4616460CB9022070BDD4F8B40282
:103FB00010B10020C4F8B4020DB1C4F8B052012011
:103FC00084F89C022670204600F004F90020ECE7FB
:103FD0002DE9F04104460D46002600272946D4F875
:103FE000C002FCF705FF06463046FFF7C2FF074652
:103FF0003846BDE8F0812DE9F04104460D46002623
:1040000000272946D4F8C002FCF7BDFE064630461C
:10401000FFF7AFFF07463846BDE8F0812DE9F041D4
:1040200004460E461746002E64D104F11405D4F858
:104030009402022848D1D5E90301884210D9D5E974
:104040000301401AE860A88982B239462046FFF78A
:104050002CFD00231A461946204600F031F93EE0B7
:104060002969A868B0FBF1F201FB1200B8B929690F
:10407000A868884213D3A868D4F8981288420ED250
:10408000002211462046FFF710FD0020C4F89802D8
:1040900000231A461946204600F012F91FE0D4F812
:1040A000B402C06840B194F89C02032804D1D4F84B
:1040B000B402C168204688478021204600F0B0F94C
:1040C0002046FFF71EFD0AE0D4F89402042802D02F
:1040D000D4F8940218B98021204600F0A1F994F890
:1040E000A002012818D1204600F0FAF9002084F837
:1040F000A00211E0D4F8B402406950B194F89C02D7
:10410000032806D1D4F8B4023146426920469047CC
:1041100002E00220BDE8F0810020FBE72DE9F0413C
:1041200004460E461746BEBB04F5AA75D4F89402A1
:10413000032825D1D5E90301884210D9D5E9030127
:10414000401AE860D5E90301884201D2E86800E03E
:10415000286982B239462046FFF79BFC2FE0D4F84D
:10416000B402006940B194F89C02032804D1D4F849
:10417000B4020169204688472046FFF7E0FC1EE0B4
:10418000D4F8940205281AD10020C4F89402002122
:10419000204600F045F912E0FFE7D4F8B402806948
:1041A00050B194F89C02032806D1D4F8B4023146E9
:1041B00082692046904702E00220BDE8F08100209D
:1041C000FBE770B504460D462946D4F8C002FDF75A
:1041D000B4F870BD10B504461D48C0F8E842C4F8F4
:1041E000C0021C481A49086008204860022118488B
:1041F000816000218161C1610162FDF775FA08B13A
:10420000FCF765F804F53074182300221146206885
:10421000FCF776FD5823002280212068FCF770FD12
:10422000C023002281212068FCF76AFD4FF48873C7
:10423000002201212068FCF763FD2068A4F530749A
:104240004FF4807300228221FCF75AFD002010BD3C
:1042500088130020005C004010B50246D2F8C0323E
:1042600001F08000802809D101F07F0000EB80047C
:1042700003F1280000EBC400807810BD01F07F003E
:1042800000EB800403F5B47000EBC4008078F4E721
:104290002DE9F04704460F4615461E464FF000082C
:1042A000C1462B4632463946D4F8C002FDF750F8D5
:1042B00080464046FFF75DFE81464846BDE8F087F0
:1042C0002DE9F04704460D4616461F464FF00008FC
:1042D000C1463B4632462946D4F8C002FDF77EF877
:1042E00080464046FFF745FE81464846BDE8F087D8
:1042F00010B504464023002211462046FFF7C8FFB0
:1043000001214FF4AC70015140214FF4B2700151C2
:104310004023002280212046FFF7BAFF0121A1613E
:1043200040216162012084F89C020020C4F89402BC
:104330006060C4F8A402D4F8B80228B12179D4F896
:10434000B402426820469047002010BD014691F813
:104350009C02042803D191F89D0281F89C02002060
:10436000704710B5044694F89C02032808D1D4F88D
:10437000B402C06920B1D4F8B402C16920468847AC
:10438000002010BD02461174002070472DE9F04155
:1043900004460D46002600272946D4F8C002FDF742
:1043A00091FA06463046FFF7E4FD07463846BDE879
:1043B000F08170B504460D46294604F52A7000F0D8
:1043C00073F80120C4F8940240F2AE20005BC4F8F8
:1043D000980294F8A80200F01F0020B1012808D02C
:1043E000022812D10BE004F52A71204600F041F9B1
:1043F00013E004F52A71204600F0A8FA0DE004F558
:104400002A71204600F086F907E094F8A80200F02F
:104410008001204600F004F800BF00BF002070BDFE
:104420002DE9F04104460D46002600272946D4F820
:10443000C002FCF7F9FF06463046FFF79AFD074633
:104440003846BDE8F08170B5044600250026D4F852
:10445000C002FDF75BFA05462846FFF78AFD0646CF
:10446000304670BD014691F89C0281F89D020420FF
:1044700081F89C02002070472DE9F04704460D4664
:1044800016461F464FF00008C1463B4632462946B5
:10449000D4F8C002FDF70CF880464046FFF769FDEE
:1044A00081464846BDE8F0870A7802704A78427033
:1044B0008B78CA7803EB022242800B794A7903EBAE
:1044C000022282808B79CA7903EB0222C280704774
:1044D0000246002011B1C2F8B41200E00220704779
:1044E00001460020704770B504460D46A88810BBF1
:1044F000E88800BB688880281DD2A87800F07F0675
:1045000094F89C02032804D129462046FFF7D9FAE3
:1045100015E084F89E6231462046FFF737FF2046BB
:10452000FFF70DFB1EB1022084F89C0207E001207A
:1045300084F89C0203E029462046FFF7C2FA70BDCA
:1045400070B504460D460226D4F8B40238B1D4F84A
:10455000B402294602682046904700B9002630463A
:1045600070BD000070B504460D46A8783649087045
:1045700008460078012804DD29462046FFF7A1FA05
:1045800060E094F89C02022802D003284FD11CE07E
:104590002D480078A8B12C4800786060032084F88A
:1045A0009C02294801782046FFF7CAFF022804D15F
:1045B00029462046FFF785FA70BD2046FFF7BFFA6F
:1045C00002E02046FFF7BBFA3BE01F48007870B9D5
:1045D000022084F89C021C48007860601A48017828
:1045E0002046FFF72CFA2046FFF7A9FA1EE01649ED
:1045F00009786068884216D021792046FFF71FFAB3
:10460000114800786060104801782046FFF798FF55
:10461000022804D129462046FFF753FACCE720466A
:10462000FFF78DFA02E02046FFF789FA09E02946F4
:104630002046FFF746FA044801782046FFF7FFF9C5
:1046400000BF00BF00BFB7E79C00002070B5054663
:104650000C466088012804D1C5F8A4022846FFF75B
:104660006EFA70BD10B504462046FFF7ECFE002040
:1046700010BD70B505460C460026207800F060009D
:1046800060B1202802D040283CD100E000BFD5F81E
:10469000B402214682682846904738E060780A28AC
:1046A00029D2DFE800F01923281E280A0528140F54
:1046B00021462846FFF703FB22E021462846FFF764
:1046C00012FF1DE021462846FFF74CFF18E0214667
:1046D0002846FFF7C9FA13E021462846FFF7F3FB07
:1046E0000EE021462846FFF7B1FF09E021462846A3
:1046F000FFF7B0F904E021462846FFF7E2F900BFD2
:1047000000BF04E021462846FFF7DBF900BF00BFE9
:10471000304670BD2DE9F04105460E464FF00008C9
:104720003479307800F0600060B1202802D0402851
:1047300071D100E000BFD5F8B40231468268284646
:10474000904700E1307800F06000202809D1D5F8CA
:10475000B402314682682846904780464046BDE80C
:10476000F081707800285ED001282FD0032876D100
:1047700095F89C02022802D0032820D110E054B101
:10478000802C08D021462846FFF74AFE8021284683
:10479000FFF746FE03E031462846FFF792F913E0A3
:1047A000708840B93CB1802C05D0F08818B92146FA
:1047B0002846FFF735FE2846FFF7C1F904E03146E9
:1047C0002846FFF77EF900BF00BFB5E095F89C02D0
:1047D000022802D003281FD110E054B1802C08D049
:1047E00021462846FFF71CFE80212846FFF718FEC9
:1047F00003E031462846FFF764F912E0708848B9B3
:1048000004F07F0018B121462846FFF7E1FB284657
:10481000FFF795F905E091E031462846FFF751F999
:1048200000BF00BF88E095F89C02022802D0032850
:1048300076D126E034B1802C04D031462846FFF7EB
:1048400040F972E004F08000802809D104F07F0074
:1048500000EB800105F1140000EB810008E066E048
:1048600004F07F0000EB800105F5AA7000EB8100E9
:10487000074600203860022239462846FFF74EF9E5
:1048800053E004F0800080280ED104F00F0000EB0C
:10489000800105F1140000EB8100406898B93146B1
:1048A0002846FFF70EF940E004F00F0000EB80010E
:1048B00005F5AA7000EB8100406820B93146284612
:1048C000FFF7FFF831E004F08000802808D104F001
:1048D0007F0000EB800105F1140000EB810007E090
:1048E00004F07F0000EB800105F5AA7000EB810069
:1048F00007460CB1802C02D10020386009E0214627
:104900002846FFF7A9FC10B10120386001E0002023
:104910003860022239462846FFF700F905E0FFE734
:1049200031462846FFF7CDF800BF00BF04E031460E
:104930002846FFF7C6F800BF00BF04E0314628460E
:10494000FFF7BFF800BF00BF404608E770B5054657
:104950000C460026207800F0600030B1202802D0FC
:1049600040282AD100E000BF00BF95F89C02012832
:1049700004D0022803D0032818D101E000BF00BFF3
:10498000207901280DDCD5F8B4022146826828463A
:1049900090470646E08840B93EB92846FFF7CFF871
:1049A00003E021462846FFF78CF804E0214628461C
:1049B000FFF787F800BF00BF04E021462846FFF755
:1049C00080F800BF00BF002070BD7047014601485D
:1049D0007047000074160020F0B5024600260878E3
:1049E000400032F8100048F68F1400EA0403C8783B
:1049F00030B101280CD0022805D003280BD104E0E7
:104A000043F4007309E000BF07E043F4C06304E02F
:104A100043F4806301E0012600BF00BF43F400407F
:104A200040F080000C78640022F8140000BF0C787D
:104A3000640032F8144048F68F752C400D7844EA33
:104A4000050040F4004444F080040D786D0022F825
:104A5000154000BF087B00287ED14878002852D03E
:104A600000BF1046B2F8505028440D7800F580671A
:104A700007EB0514CD886D106D00258000BF00BFC9
:104A80000C78640032F8140000F040048CB100BFD0
:104A90000D786D0032F8155048F68F7705EA070457
:104AA00044F4004545F0C0050F787F0022F8175008
:104AB00000BF00BFC878012813D000BF0C78640085
:104AC00032F8144048F6BF7504EA050080F0200073
:104AD00040F4004444F080040D786D0022F8154045
:104AE0009EE100BF0C78640032F8144048F6BF75B0
:104AF00004EA050040F4004444F080040D786D00A1
:104B000022F815408CE100BF1046B2F850502844FE
:104B10000D78042707EBC50500F5806707EB450412
:104B2000CD886D106D00258000BF00BF1546B2F81E
:104B3000504025440C78062707EBC40405F5806730
:104B400007EB4404204600BF0F6967B9078848F2A5
:104B5000FF3C07EA0C0700E057E00780078847F4AE
:104B6000004707801EE00F693E2F0DD800BF0F6978
:104B70007C080F7C07F0010707B1641C4FF6FF7734
:104B800007EA842707800DE000BF0F697C090F7CCE
:104B900007F01F0707B9641E4FF4004747EA842750
:104BA000078000BF00BF00BF00BF0C78640032F870
:104BB000140000F480448CB100BF0D786D0032F811
:104BC000155048F68F7705EA070444F4004545F48C
:104BD00081450F787F0022F8175000BF00BF00BF4B
:104BE0000C78640032F814404BF68F7504EA050027
:104BF00080F4805080F4005040F4004444F080047D
:104C00000D786D0022F815400AE100BF0C786400B1
:104C100032F8144048F68F7504EA050040F4004469
:104C200044F4C0740D786D0022F8154000BF00BF39
:104C300000BF00BF1046B2F8505028440D7800F570
:104C4000806707EB05140D896D106D00258000BF8E
:104C500000BF00BF00BF1046B2F8505028440D7886
:104C6000042707EBC50500F5806707EB45044D8970
:104C70006D106D00258000BF00BF00BF4878002880
:104C80005DD100BF0C78640032F8140000F4804459
:104C90008CB100BF0D786D0032F8155048F68F7753
:104CA00005EA070444F4004545F481450F787F0088
:104CB00022F8175000BF00BF00BF0C78640032F824
:104CC000140000F040048CB100BF0D786D0032F884
:104CD000155048F68F7705EA070444F4004545F07F
:104CE000C0050F787F0022F8175000BF00BF00BF3B
:104CF0000C78640032F814404BF68F7504EA050016
:104D000080F4805080F4005040F4004444F080046B
:104D10000D786D0022F8154000BF00BF0C786400CC
:104D200032F8144048F6BF7504EA050040F4004428
:104D300044F080040D786D0022F8154070E000BF4B
:104D40000C78640032F8140000F480448CB100BF89
:104D50000D786D0032F8155048F68F7705EA070494
:104D600044F4004545F481450F787F0022F8175040
:104D700000BF00BF00BF0C78640032F8140000F0E0
:104D800040048CB100BF0D786D0032F8155048F624
:104D90008F7705EA070444F4004545F0C0050F7815
:104DA0007F0022F8175000BF00BFC878012813D039
:104DB00000BF0C78640032F8144048F6BF7504EA6E
:104DC000050080F0200040F4004444F080040D7899
:104DD0006D0022F8154011E000BF0C78640032F835
:104DE000144048F6BF7504EA050040F4004444F05E
:104DF00080040D786D0022F8154000BF00BF0C78CC
:104E0000640032F814404BF68F7504EA050040F454
:104E1000004444F080040D786D0022F8154000BF76
:104E20003046F0BD10B50446002010BD30B5024636
:104E3000087B00285BD1487860B300BF0B785B002B
:104E400032F8130000F040038BB100BF0C7864000F
:104E500032F8144048F68F7504EA050343F4004421
:104E600044F0C0040D786D0022F8154000BF00BF6B
:104E700000BF0B785B0032F8133048F6BF7403EACA
:104E8000040040F4004343F080030C78640022F8EF
:104E9000143007E100BF0B785B0032F8130000F418
:104EA00080438BB100BF0C78640032F8144048F6A0
:104EB0008F7504EA050343F4004444F481440D78FB
:104EC0006D0022F8154000BF00BF00BF0B785B00EB
:104ED00032F813304BF68F7403EA040040F40043B9
:104EE00043F080030C78640022F81430DAE048784C
:104EF00000286BD100BF0B785B0032F8130000F480
:104F000080438BB100BF0C78640032F8144048F63F
:104F10008F7504EA050343F4004444F481440D789A
:104F20006D0022F8154000BF00BF00BF0B785B008A
:104F300032F8130000F040038BB100BF0C7864001E
:104F400032F8144048F68F7504EA050343F4004430
:104F500044F0C0040D786D0022F8154000BF00BF7A
:104F600000BF0B785B0032F8133048F68F7403EA09
:104F7000040040F4004343F0C0030C78640022F8BE
:104F8000143000BF00BF0B785B0032F813304BF6D3
:104F90008F7403EA040040F4004343F080030C786C
:104FA000640022F8143000BF00BF0B785B0032F8B9
:104FB000133048F6BF7403EA040040F4004343F0A2
:104FC00080030C78640022F814306BE000BF0B788B
:104FD0005B0032F8130000F480438BB100BF0C7803
:104FE000640032F8144048F68F7504EA050343F470
:104FF000004444F481440D786D0022F8154000BF50
:1050000000BF00BF0B785B0032F8130000F04003D4
:105010008BB100BF0C78640032F8144048F68F75ED
:1050200004EA050343F4004444F0C0040D786D0025
:1050300022F8154000BF00BF00BF0B785B0032F8BC
:10504000133048F68F7403EA040040F4004343F43D
:1050500081430C78640022F8143000BF00BF0B7845
:105060005B0032F8133048F6BF7403EA040040F4E2
:10507000004343F080030C78640022F8143000BF32
:1050800000BF0B785B0032F813304BF68F7403EAE5
:10509000040040F4004343F080030C78640022F8DD
:1050A000143000BF002030BD01460020704701468B
:1050B0000020704710B50446012024F8400F00205E
:1050C0002080A0802082403C10BD01464FF43F422A
:1050D000B1F840009043A1F840000020704702461C
:1050E0000020704730B50246087B002865D148781B
:1050F00088B300BF0B785B0032F8130000F0400368
:105100008BB100BF0C78640032F8144048F68F75FC
:1051100004EA050343F4004444F0C0040D786D0034
:1051200022F8154000BF00BFC878012845D000BF55
:105130000B785B0032F8133048F6BF7403EA0400C2
:1051400080F0200040F4004343F080030C786400BA
:1051500022F8143031E0FFE700BF0B785B0032F833
:10516000130000F480438BB100BF0C78640032F868
:10517000144048F68F7504EA050343F4004444F4F0
:1051800081440D786D0022F8154000BF00BF00BFBC
:105190000B785B0032F813304BF68F7403EA04008F
:1051A00080F4805080F4005040F4004343F08003CA
:1051B0000C78640022F8143000BF002030BD10B518
:1051C0000246487898B100BF0B785B0032F8133084
:1051D00048F6BF7403EA040080F0100040F4004376
:1051E00043F080030C78640022F8143013E000BF11
:1051F0000B785B0032F813304BF68F7403EA04002F
:1052000080F4805040F4004343F080030C78640045
:1052100022F8143000BF002010BD2DE9F0470646EB
:105220000C466078012876D12169A069884201D9AD
:10523000256900E0A569207BA0B9ABB2E2883046C1
:10524000616900F02EFD00BF3046B6F850201044D2
:105250002278022303EBC20200F5806303EB4201D4
:105260000D80BBE2E07802287DD12169206A884266
:105270007AD900BF2178490036F8111048F68F72AC
:1052800001EA020040F4004141F4C071227852006A
:1052900026F8121000BF206A401B206220784000D0
:1052A00036F8100000F0400000287DD000BF3346E3
:1052B000607888BB00BF3246B6F850100A442178A7
:1052C0004FF0060909EBC10102F5806909EB4101C4
:1052D000084600BF75B9B0F8009048F2FF3A09EAF5
:1052E0000A09A0F80090B0F8009049F40049A0F82D
:1052F000009021E03E2D10D800BF690805F001099B
:10530000B9F1000F00D0491C4FF6FF7909EA812955
:10531000A0F8009010E077E210E000BF690905F006
:105320001F09B9F1000F00D1491E4FF4004949EAA5
:105330008129A0F8009000BF00BF0FE0607801282D
:105340000CD1B6F8500003442078062101EBC000D0
:1053500003F5806101EB400CACF8005000BF678999
:10536000ABB23A4601E057E12CE13046616900F00A
:1053700098FC6069284460612169206A884203D9E9
:10538000206A401B206202E0256A0020206200BFE4
:105390006078C0BB00BF3246B6F850100A4421788E
:1053A000022303EBC10100E049E002F5806303EB57
:1053B0004101084600BF55B9038848F2FF3C03EAA3
:1053C0000C030380038843F40043038019E03E2D5F
:1053D0000BD800BF690805F0010303B1491C4FF663
:1053E000FF7303EA812303800BE000BF690905F026
:1053F0001F0303B9491E4FF4004343EA812303808E
:1054000000BF00BF12E0FFE7607801280ED100BFA7
:105410003046B6F8502010442278022303EBC20233
:1054200000F5806303EB42010D8000BF00BF2789B8
:10543000ABB23A463046616900F033FCCEE100BFC2
:105440006078B0BB00BF3246B6F850100A442178ED
:10545000022303EBC10102F5806303EB410108461F
:1054600000BF55B9038848F2FF3C03EA0C030380F0
:10547000038843F40043038019E03E2D0BD800BF9E
:10548000690805F0010303B1491C4FF6FF7303EAF5
:10549000812303800BE000BF690905F01F0303B9F6
:1054A000491E4FF4004343EA8123038000BF00BF3D
:1054B00012E0FFE7607801280ED100BF3046B6F851
:1054C000502010442278022303EBC20200F58063CF
:1054D00003EB42010D8000BF00BF2789ABB23A4603
:1054E0003046616900F0DDFB606928446061216934
:1054F000206A884203D9206A401B206202E0256AA4
:105500000020206200BF3346607880BB00BF324677
:10551000B6F850100A4421784FF0060909EBC10192
:1055200002F5806909EB4101084600BF75B9B0F882
:10553000009048F2FF3A09EA0A09A0F80090B0F892
:10554000009049F40049A0F8009020E03E2D0FD8CB
:1055500000BF690805F00109B9F1000F00D0491C2E
:105560004FF6FF7909EA8129A0F800900FE010E0DA
:1055700000BF690905F01F09B9F1000F00D1491EEC
:105580004FF4004949EA8129A0F8009000BF00BF0C
:105590000FE0607801280CD1B6F850000344207861
:1055A000062101EBC00003F5806101EB400CACF873
:1055B000005000BF6789ABB23A463046616900F0DF
:1055C00070FB0BE1256A00BF2178490036F8111005
:1055D00048F68F6201EA020040F4004141F0800188
:1055E0002278520026F8121000BF00BF3046B6F8ED
:1055F000502010442278022303EBC20200F580639E
:1056000003EB42010D8000BF2789ABB23A4630461A
:10561000616900F046FBE1E02078400036F81000B8
:1056200000F04000A0B300BF3346607888BB00BFE5
:105630003246B6F850100A4421784FF0060909EBBB
:10564000C10102F5806909EB4101084600BF75B947
:10565000B0F8009048F2FF3A09EA0A09A0F8009071
:10566000B0F8009049F40049A0F8009021E03E2DE8
:1056700010D800BF690805F00109B9F1000F00D08A
:10568000491C4FF6FF7909EA8129A0F8009010E043
:1056900024E010E000BF690905F01F09B9F1000F0F
:1056A00000D1491E4FF4004949EA8129A0F8009031
:1056B00000BF00BF0FE0607801280CD1B6F85000A1
:1056C00003442078062101EBC00003F5806101EB63
:1056D000400CACF8005000BF67894EE000BF607816
:1056E000B0BB00BF3246B6F850100A4421780223FE
:1056F00003EBC10102F5806303EB4101084600BFE3
:1057000055B9038848F2FF3C03EA0C030380038881
:1057100043F40043038019E03E2D0BD800BF690815
:1057200005F0010303B1491C4FF6FF7303EA81231F
:1057300003800BE000BF690905F01F0303B9491E90
:105740004FF4004343EA8123038000BF00BF12E00F
:10575000FFE7607801280ED100BF3046B6F8502030
:1057600010442278022303EBC20200F5806303EBAE
:1057700042010D8000BF00BF2789ABB23A463046D8
:10578000616900F08EFA00BF607888B900BF2178A7
:10579000490036F8111048F68F7201EA020040F411
:1057A000004141F0C0012278520026F8121014E0A6
:1057B0006078012811D100BF2178490036F8111016
:1057C00048F68F7201EA020040F4004141F4814141
:1057D0002278520026F8121000BF00BF00BF2178C7
:1057E000490036F8111048F6BF7201EA020080F055
:1057F000100080F0200040F4004141F08001227848
:10580000520026F8121005E2207BA0BB2169A06996
:10581000884204D92569A069401BA06102E0A569FE
:105820000020A06100BF3246B6F850100A4421782B
:10583000062303EBC10102F5806303EB4101084637
:1058400000BF55B9038848F2FF3C03EA0C0303800C
:10585000038843F4004303801AE03E2D0CD800BFB8
:10586000690805F0010303B1491C4FF6FF7303EA11
:10587000812303800CE00DE000BF690905F01F03E0
:1058800003B9491E4FF4004343EA8123038000BF5C
:1058900000BFA9E1E07802287DD100BF00BF607899
:1058A000E0BB00BF3246B6F850100A44217802230C
:1058B00003EBC10102F5806303EB4101084600BF21
:1058C000236953B9038848F2FF3C03EA0C030380C1
:1058D000038843F4004303801EE023693E2B0DD868
:1058E00000BF23695908237C03F0010303B1491C5D
:1058F0004FF6FF7303EA812303800DE000BF2369A5
:105900005909237C03F01F0303B9491E4FF40043D8
:1059100043EA8123038000BF00BF13E0FFE7607804
:1059200001280FD100BF3046B6F85020104422782D
:10593000022303EBC20200F5806303EB4201228ADB
:105940000A8000BF00BF00BF33466078E8BB00BFDD
:105950003246B6F850100A4421784FF0060909EB98
:10596000C10102F5806909EB4101084600BFD4F886
:105970001090B9F1000F0FD1B0F8009048F2FF3A43
:1059800009EA0A09A0F80090B0F8009049F400492B
:10599000A0F800902EE06BE0D4F81090B9F13E0F23
:1059A00014D800BFD4F810904FEA590194F8109021
:1059B00009F00109B9F1000F00D0491C4FF6FF7939
:1059C00009EA8129A0F8009014E015E000BFD4F89E
:1059D00010904FEA591194F8109009F01F09B9F18D
:1059E000000F00D1491E4FF4004949EA8129A0F86F
:1059F000009000BF00BF10E0607801280DD1B6F81C
:105A0000500003442078062101EBC00003F58061BB
:105A100001EB400C208AACF8000000BF00BFE06939
:105A2000002824D02078400036F8108008F4804008
:105A300010B108F0400038B908F48040002816D1B1
:105A400008F04000002812D100BF00BF21784900B3
:105A500036F8111048F68F7201EA020040F4004156
:105A600041F0C0012278520026F8121000BFBBE0BE
:105A7000E07801287CD12169A069884204D9256990
:105A8000A069401BA06102E0A5690020A06100BFE1
:105A900000BF6078B0BB00BF3246B6F850100A4471
:105AA0002178022303EBC10102F5806303EB41017E
:105AB000084600BF55B9038848F2FF3C03EA0C03CF
:105AC0000380038843F40043038019E03E2D0BD884
:105AD00000BF690805F0010303B1491C4FF6FF73CD
