:020000040800F2
:1000000050240020D5000008F54100086B3D000891
:1000100000000000000000000000000000000000E0
:10002000000000000000000000000000D14C0008AB
:10003000000000000000000019450008D34C000833
:10004000E7000008E7000008E7000008E7000008F4
:10005000E7000008210D0008E7000008E70000089D
:10006000E7000008E7000008E7000008E7000008D4
:10007000E7000008E7000008E7000008E7000008C4
:10008000E7000008E7000008854D0008E7000008C9
:10009000E7000008E7000008E7000008E7000008A4
:1000A000E7000008314A0008414A0008F9510008F9
:1000B000E7000008E7000008E7000008516C0008AE
:1000C0000348854600F00EFD00480047DDAE0008FD
:1000D000502400200448804704480047FEE7FEE71C
:1000E000FEE7FEE7FEE7FEE7814D0008C1000008DD
:1000F00030B50B46014600202022012409E00D46C0
:10010000D5409D4205D31D469540491B2546954047
:1001100040191546521E002DF1DC30BD70B500248B
:100120002546002801DA01244042002901DA012590
:100130004942FFF7DDFFAC4200D04042002C00D026
:10014000494270BDF0B51FB40646002082B0054696
:100150004024019100901BE0019922460F46304651
:1001600000F020F8049A059B801A994110D310469C
:100170001946224600F06EFB361A8F41019722463F
:1001800001200021009F00F065FB38184D410090D0
:100190002046641E0028DFDC019B00982946324679
:1001A00007B0F0BD10B5202A04DB0846203AD04045
:1001B000002110BD0B46D340D0402024A21A91400C
:1001C0000843194610BD10B5431A934209D283184B
:1001D000881803E0401E01785B1E1970521EF9D288
:1001E00010BD03460B439B0703D009E008C9121F4B
:1001F00008C0042AFAD203E00B780370401C491CA3
:10020000521EF9D210BDD2B201E00270401C491E4C
:10021000FBD270470022F6E710B513460A460446A3
:100220001946FFF7F0FF204610BD421C0178401C24
:100230000029FBD1801A704703460A780270401CDF
:10024000491C002AF9D118467047F8B502464A40C1
:10025000D40F42004B0052085B089A4202D2024679
:10026000084611464A0023D0C30D4A00DDB2120EE3
:10027000AD1A202D35DA49020126490AF6058A19F8
:10028000002C00D0524220214F1B1146B9402A4178
:100290001018C20D9A4221D0002C17D0012D08DC75
:1002A000DA05801AD20F8019D207DBB200F0FDFA0E
:1002B000F8BDDA05801A012340001B06C01880181B
:1002C0005A428018CA0F1043490007E04908C20784
:1002D0001143DA05801A80194008801800F0DDFA11
:1002E000F8BD61000122511A001BF7E70122D20775
:1002F0005140AAE70122D2075040A6E7024670B556
:100300004A40D30FDB0740002DD04A002AD0010E0F
:10031000140E000212020919400A520A8418E5015B
:1003200004465443000A120A2E045043A4194219E9
:10033000200CC543AA18120C0125AD03521C5219FA
:1003400012047F39240400D0521C104301D4400011
:10035000491EC2B20C06C0092018401C4008802A61
:1003600002D003E0002070BD40084000002900DA00
:100370000020184370BD70B502464A40D50F4000BA
:100380004A00ED0740085208002814D0002A12D075
:10039000C40DD30D41020120C0055202490A520A80
:1003A000E41A091812187D34914201D3641C00E04C
:1003B0004900002C01DA002070BD0023914201D3D6
:1003C000891A0343400849000028F7D100290AD0C0
:1003D000914202D10121C90705E0914201D20121D8
:1003E00001E00121C943E005C018401900F055FAA9
:1003F00070BD420005D04200120E52428A4201DB1B
:1004000000207047C905081870470000F0B507467E
:100410000846584087B0C00F049048000E46590067
:1004200040084908BC1A884105D2384631461E4664
:1004300017460B4602465800400810434CD0300D7A
:10044000039040055900400D490D0590401A029057
:10045000402872DA18030121000B090508430190B6
:1004600004980092002805D001995242002088414A
:1004700000920190029840210A1A0199009800F018
:10048000E9F905460C466B4607CB00F0F3F9C019B5
:100490007141039A0E0D0023D71756401A467A4031
:1004A000164344D0049A002A2DD0029A012A039AB6
:1004B00015DC1205C01A914101263605001C714158
:1004C000D20F059ED2070093019202962A46234638
:1004D00000F031FA07B0F0BD38463146FAE71605AC
:1004E000224A0F46B218C01AB74101210905001C63
:1004F0004F4100187F41114618187941E20F10430F
:100500006D19644113E0E2076D0815436408C207E2
:100510001443039A01261205C01A91413605001CA6
:100520007141CE07400830434908C01851412A465E
:10053000234600F0F3F9CDE7FFE7049801224000DD
:10054000C117121A00238B4104983146C417381A78
:10055000A141EEE730B40124E407634030BC55E725
:1005600030B40124E407614030BC4FE70000E0FFF5
:10057000F0B51FB488B00B99099800244840099938
:10058000C00F490049080991C0070B990090490024
:1005900049080B9109990898A64608431CD00B9965
:1005A0000A98084318D0099801244000420D4800D9
:1005B000410D099824050003000B204309900B9876
:1005C0000003000B20430B9050181C4940180022D8
:1005D00001901446104605E0002001460DB0F0BD24
:1005E000032801DA034600E003239C46C11A0AAE41
:1005F0000AE05F0008ADED5B4F00F75B7D4300272D
:10060000AA187C41491C5B1E6145F2DD410004AB28
:100610005A522104120C0A43240C401C0828DFDB28
:10062000019802900099704601910090059B049AF0
:100630000799069800F07FF9D0E700000DFCFFFF56
:10064000F0B50C465C4085B0E40FE40703944C0021
:10065000002664085900944649080246029622433F
:1006600021D062460A431ED06200570D4A000E0395
:100670002303550D012402462C492405781B1B0B2E
:10068000360B401823432643614600901C46501AFF
:10069000B44103D30098401C009002E092180098E7
:1006A0005B41002803DA0020014605B0F0BD0020C0
:1006B000012109050746864611E064461D46141BC4
:1006C000B54106D36546521BB341744607430C43FC
:1006D000A646CD0740084908284392185B410546C5
:1006E0000D43EAD11046184313D0604619465040D6
:1006F0007140084306D06046101AB34106D2012269
:10070000002306E000220123DB0702E00122D2439E
:100710005310009874460105381C6141029C039DEA
:100720000019694100F0FAF8BFE70000FD0300007E
:1007300010B500229623114600F0B7F810BD000056
:100740000EB5C217C10F5040CA0740180021054B13
:100750000293019200910A460B4600F0ECF803B0B8
:1007600000BD0000330400000EB5054902910021D0
:1007700000910A460B46019100F0DDF803B000BD80
:1007800033040000410040020122400AD205090E54
:1007900080187F2901DA00207047962903DC962211
:1007A000511AC840704796398840704770B5CD0FD0
:1007B0004A0009030123090B1B0519430B4BED07E5
:1007C0000024520D9A4201DA002070BD074B3433E9
:1007D0009A4203DC9A1AFFF7E5FC02E0044951183B
:1007E00088402C43F1D0404270BD0000FF03000060
:1007F000CDFBFFFFC20FD207400040080BD0C10D58
:100800000723DB01C91840020905400A1143C20849
:10081000400711437047002001467047CB0FDB07AC
:10082000490010B5490802460A4307D00A0D0724BB
:100830000903E401090B121B002A01DC002010BD92
:10084000C900440F0C43C100E018D205801800F025
:1008500024F810BD10B5202A04DB0146203A91404F
:10086000002010BD914020239C1A0346E340194309
:10087000904010BD10B5202A06DBCB170846203A61
:100880001041C1170B4306E00B461341D040202412
:10089000A21A91400843194610BD002904DA401CF1
:1008A000490001D140084000704770B40024050C95
:1008B00005D11024000402D1002921D01124050EF5
:1008C00001D100020834050F01D10001241D850F5C
:1008D00001D18000A41C002801DB4000641C002919
:1008E00008D020252E1B0D46F540A14000D0012147
:1008F0002943084301061B1B000ADB1D02D500200B
:1009000070BC7047DB05181880180029F8DA401C05
:100910004900F5D170BC40084000704710B5002B6D
:1009200008DA0024401C614192185B411A4301D14E
:100930004008400010BDF0B51FB482B005460C0061
:1009400003D0084606F0EEF902E006F0EBF920309D
:100950000246009021462846FFF77CFF049B059A3B
:1009600004460F4618431143084314D01846104359
:100970001BD0009840210A1A18460599FFF712FC6F
:1009800005460E46009A05990498FFF763FF084351
:1009900005D0012004E02046394607B0F0BD002014
:1009A000C11705430E432C43374300990E98630546
:1009B000401A7905E40A00220C43FD0A0A3002D5E8
:1009C00000200146E9E70105101969410C9C0D9DC5
:1009D00000196941FFF7A2FFDFE7FEB500231A46C1
:1009E0001B1A8A4103DB0020014603B0F0BD4A0018
:1009F0000D0301212D0B0905520D0D43D10702D125
:100A000000186D41521E5110FF31FF310131002796
:100A100004463E46384600970191024601210020D7
:100A20000905FFF7BFFBC3197141F8183246844628
:100A30008E464A4161462846611A904104D3604679
:100A4000241A954176461F46241900986D41401C92
:100A500000903428E1DDF91930467041091BA841A6
:100A600003D20022D243134601E00022134601982C
:100A70000105381C7141FFF751FFB6E74A00090331
:100A80000123090B1B0519430A4B10B5520D9A425D
:100A900002DA0020014610BD064B34339A4203DCD3
:100AA0009A1AFFF77FFB10BD034BD218FFF7D2FE57
:100AB00010BD0000FF030000CDFBFFFF10B50029B3
:100AC00004DB0124E40740428C412146002B04DB77
:100AD0001C460123DB075242A341994200D19042B8
:100AE00010BD0000064C0125064E05E0E36807CC6A
:100AF0002B430C3C98471034B442F7D3FFF7E4FA89
:100B000020F3000840F3000870B54B005B08034376
:100B10000BD04B005C0D002633466542B341D41721
:100B2000AD1AA34102DB0020014670BD120530184A
:100B3000514170BD70B58C180578401C6B075B0F78
:100B400001D10378401C2A1106D10278401C03E031
:100B500006780E70401C491C5B1EF9D12B0705D48A
:100B60000023521E0DD40B70491CFAE70378401C79
:100B7000CB1A921C03E01D780D70491C5B1C521EA1
:100B8000F9D5A142D8D3002070BD000010B50121D5
:100B900000224902034800F002FC03493220487455
:100BA00010BD0000000800480000002004280020BC
:100BB000704700207047000010B500220449054826
:100BC00004F042FC0449034804F034FC002010BD4A
:100BD000500F0020A4060020680B002010B501462D
:100BE000034804F027FC024804F0FAFB002010BD83
:100BF000A4060020FEB504460F461E46002F04D072
:100C00000120C0030243154601E055046D0C002C81
:100C100026D001210022C9022F4800F0C0FB042089
:100C200000F060F869464D70280A0870002C1ED04C
:100C300005230222294802F08DF8042000F052F822
:100C4000002F22D0002C19D0052302226946234808
:100C500001F0C6FF6946087800024E7806431FE09F
:100C6000092000221021C00600F099FBD7E70523D8
:100C7000022269461A4802F06DF8DEE705230222D7
:100C80006946174801F0ACFFE4E769464E70300A48
:100C90000870002C0FD005230222104802F05AF8E9
:100CA000002C0FD00122D1020B4800F078FB002C61
:100CB0000FD03046FEBD052302226946084802F0E7
:100CC00049F8EDE7092001221021C00600F067FB7A
:100CD000EDE73046FEBD000000040048740500202A
:100CE0001005002000220FE0002100BF00BF00BF60
:100CF00000BF00BF00BF00BF00BF00BF491CC9B29A
:100D00001429F2D3521CD2B28242EDD370470000B4
:100D1000024A13185970090A11547047B002002092
:100D200010B5012000F070FA022000F06DFA10BD3D
:100D300072B6FEE770B5012400F046FA1A4A342074
:100D4000D0601A490225D068C007FCD1D068C0061F
:100D500001D5002422E0D068400701D500241DE021
:100D600010692843106151611069402318431061D4
:100D7000D068C007FCD1D068C00601D500240DE0C2
:100D8000D068400701D5002408E01069A84310612D
:100D90000120C002091806488142D4D3106980217D
:100DA00008431061204670BD0020024000F8010891
:100DB000FFFF0108F8B506460C46154601272248F4
:100DC0002249301888423CD800F0FEF9204B3420EC
:100DD000D8602FE0012D0DD06178207809020843FA
:100DE000A41CAD1ED968C907FCD1D968C90605D5B0
:100DF000002721E02078641C0025F3E7D968490723
:100E000001D5002718E019690122114319613080CA
:100E1000D868C007FCD1D868C00601D500270BE010
:100E2000D868400701D5002706E01869400840004F
:100E30001861B61C002DCDD11869802108431861B6
:100E400000E000273846F8BD0008FEF7FF07000065
:100E50000020024010B5054BF8220121FFF7CAFE21
:100E6000FFF766FC0249FFF786FA10BDFFFF00009E
:100E70000000C842F8B507460E4610461946FFF76F
:100E800035FA08F01BFBFFF7B5FC08F0CBFA044677
:100E90000D4601213846FFF7ACFA3146FFF72EFA2E
:100EA000FFF7A8FC22462B46FFF762FB04460D46DF
:100EB00031463046FFF722FA064639463846FFF7F4
:100EC0001DFA3146FFF7C1F9FFF794FC22462B4685
:100ED000FFF740FB0BF0F4FEFFF7A0FCF8BD0000AD
:100EE00010B5074BD9220121FFF784FEFFF73CFC28
:100EF0000022044BFFF7A4FBFFF790FC10BD00009D
:100F0000FFFF000000D06D4010B5074BDA22012131
:100F1000FFF770FEFFF728FC0022044BFFF790FB61
:100F2000FFF77CFC10BD0000FFFF000000D06D400B
:100F300010B5074BDB220121FFF75CFEFFF714FC25
:100F40000022044BFFF77CFBFFF768FC10BD00009C
:100F5000FFFF000000D06D4010B5034B712201214E
:100F6000FFF748FE10BD0000FFFF000010B5074B63
:100F7000FD220121FFF73EFEFFF7F6FB0022044BA6
:100F8000FFF75EFBFFF74AFC10BD0000FFFF00000B
:100F90000000244010B5074BFE220121FFF72AFE76
:100FA000FFF7E2FB0022044BFFF74AFBFFF736FC9A
:100FB00010BD0000FFFF00000000244010B5074BEB
:100FC000FF220121FFF716FEFFF7CEFB0022044BA4
:100FD000FFF736FBFFF722FC10BD0000FFFF00000B
:100FE0000000244010B50948C16A046B406B081822
:100FF000002809D00822064902F042FF04490422D1
:101000001031204602F03CFF10BD000080F7FF1FAA
:1010100016010020F0B5054600201F2301265B1EA7
:101020005C1C05D0DF06FF0E3446BC400C42F6D0F7
:10103000002A06D0082A17D0102A11D0182A0BD05F
:101040000120002807D12B68596129688B68182472
:10105000A34313438B60F0BD072BF2D30120F0E7CD
:10106000082BEED30120ECE7102BEAD30120E8E7B0
:1010700010B50446002C03D0607F002802D006E0A3
:10108000012010BD00202077204600F035F8022016
:1010900060772079002808D02046E268A168FFF731
:1010A000B9FF002809D0012010BD2168114848610E
:1010B000206881681822914381606079002814D0EB
:1010C0002168206908612068816860229143626913
:1010D000114381602068816880229143A269114395
:1010E000816001206077002010BD00202168C0438E
:1010F0000861E8E7B71DC10408B5006805498842E2
:1011000007D10548426940210A43426140690840CD
:10111000009008BD003002400010024030B501468A
:1011200020314A780023022A04D0042282630B7003
:10113000012030BD026814680E25AC4314600268BB
:1011400014686408640014600125046C2A46C06BAE
:10115000A24042604D700B70002030BD70B500247D
:10116000014620314A78022A03D0042181630124F8
:1011700016E0026813680E25AB431360026813681B
:101180005B085B0013600125036C2A469A40C36B21
:101190005A604D7000220A70416B002900D08847C8
:1011A000204670BD70B5044600F000F90546601C8D
:1011B00002D004480078241800F0F8F8401BA04240
:1011C000FAD370BD40010020002006490A691206CA
:1011D00007D5054A4A60054A4A600969090600D5EB
:1011E000012070470020024023016745AB89EFCD05
:1011F000FF220449022800D18A75012800D1CA754E
:10120000704700000000002010B504494A690242FE
:1012100002D04861FFF7ECFF10BD00000004014060
:10122000F8B5002297E0012696403340002B6FD09E
:101230004C68012C05D0022C03D0112C01D0122CAB
:1012400010D1856854000327A740BD43CF68A7404D
:101250002F4387604468B4430D79ED06ED0F954048
:1012600025434560C56856000324B440A646A543FF
:101270008F68B7402F43C7604C68022C01D0122CF6
:101280000ED1D408A4002418256AA4465707FC0EE2
:101290000F27A740BD430F69A7402F43644627622D
:1012A00004687546AC430D79AD07AD0FB5402543D5
:1012B00005604C68E4004DD52A4CA56901263543EC
:1012C000A561A469344000949508274CAD002E19FF
:1012D000B5689407240F0F27A740BD430927FF06D1
:1012E000B84201D1002715E0204FB84201D10127B3
:1012F00010E01F4FB84201D102270BE01D4FB8424A
:1013000001D1032706E01C4FB84202D1042701E0B7
:1013100020E00527A7402F43B760184D2C689C4359
:101320004E68F60300D51C432C606C689C434E68E5
:10133000B60300D51C436C60AC689C434E68F60253
:1013400000D51C43AC60EC689C434E68B60200D5E7
:101350001C43EC60521C0B681C46D44000D062E772
:10136000F8BD0000001002400000014000040048E9
:1013700000080048000C004800100048000401402C
:101380000069084201D0012070470020704742697F
:1013900013460B401B0491430B4383617047002AA3
:1013A00001D0816170478162704700000148806808
:1013B00070470000400100200248816802788918C7
:1013C000816070474001002010B506480168102276
:1013D00011430160002000F007F800F029F8002018
:1013E00010BD00000020024070B504460E4D7D2067
:1013F0002978C000FEF77CFE01460C480068FEF725
:1014000077FE02F03BF9002801D0012070BD042CCA
:1014100007D200222146501E00F02AF86C600020FE
:1014200070BD012070BD0000400100204C01002073
:1014300008B5084881690122114381618169114021
:101440000091C26901040A43C261C069084000906A
:1014500008BD000000100240002805DBC106C90ECF
:1014600001208840014908607047000000E100E069
:1014700010B505F0A9FC10BD10B5016805230122C7
:10148000DB01C3189A661724002364010019037056
:101490004031888A10438882888A022210438882D9
:1014A000002010BD704710B50C0606D54907490F3E
:1014B000282461430818283004E0282461430818D0
:1014C000FF30693099B2002A06D0012202730181EF
:1014D000190C4181002010BD00220273C180F9E780
:1014E00010B528224A4312180523DB01C018D26B1D
:1014F000006F04F094FA10BD10B528224A43121868
:101500000523FF32DB010132C018D26F006F04F0F7
:10151000F3FA10BD70B5CA094907490F0D462823D3
:101520005943091801230024002A02D028314B70A6
:1015300002E0FF3169314C700D701522520185189F
:101540002A7A012A06D02B72006804F093FF2C72CD
:10155000002070BD022070BD70B50A074368120FED
:101560009A4201D9012070BDCA094907490F0D46A9
:1015700028235943091801230024002A02D02831C6
:101580004B7002E0FF3169314C708C700D70152288
:10159000520185182A7A012A06D02B72006805F0BC
:1015A00011F82C72002070BD022070BDF8B50B78C8
:1015B00005689C462C46DE00570440348B69002F9A
:1015C00031DA248A6419324D7519645BA405A40DBF
:1015D000A34202D31B1B8B6101E000238B618B694B
:1015E000002B0BD165460368AD005E5B294F3E4082
:1015F00001277F037E40284F3E435E53520609D5A4
:101600000B7802689B00D55A244E3540224E403656
:101610003543D552002C38D00A89496900682346E1
:1016200005F021FB31E0248A6419194D2D1D75192F
:10163000645BA405A40DA34202D31B1B8B6101E0D4
:1016400000238B618B69002B0BD165460368AD00CD
:101650005E5B104F3E4001277F037E400E4F3E43AE
:101660005E53520609D40B7802689B00D55A0B4E84
:101670003540094E40363543D552002C05D04A89B5
:1016800049690068234605F0EEFA2046F8BD0000DF
:10169000020400008FBF0000808000008F8F0000D8
:1016A000F8B505460C46164620782A688446C000E0
:1016B000864613462046770640332030A169002F26
:1016C00076DA1B8A9F188E4B7246D218BA5A920548
:1016D000920D914202D9891AA16101E00021A16114
:1016E000A169002910D071040AD52F6861468900CC
:1016F0007E5ABE46834F3E40834F3E4377467E52DE
:101700000179012910D0EAE061462846FFF7E8FE9A
:101710007004F8D5217828688900425A794B1A401C
:10172000794B1A434252DAE0616989186161E169D3
:101730008918E1612669216AB14203D33246881AC9
:10174000206205E0002909D0002606710A462662BB
:101750006078002805D001282BD033E000210171EA
:10176000F6E728685021095A08182178C900081896
:10177000C018002A08D03E2A10D85108D30700D03C
:10178000491C890201801DE00188604B19400180DD
:1017900001880123DB031943018013E05109D306BB
:1017A00000D1491E89020123DB031943018009E0AE
:1017B0000FE028685021095A08182178C900081834
:1017C000C018028093B222896169286805F068FA1E
:1017D00085E01B8A4A4F9B1872463F1DD2199A5AC0
:1017E0009205920D914202D3891AA16101E0002174
:1017F000A161A169002910D071040AD42E68614644
:101800008900735AB6463F4E33403F4E33437646C7
:1018100073520179012910D061E061462846FFF733
:101820005FFE70045BD4217828688900425A354BEA
:101830001A40354B1A43425251E06169891861617F
:10184000E1698918E1612369216A994203D31A4643
:10185000881A206205E000290AD00A460021216288
:10186000017128686178002905D0012929D030E06C
:1018700000210171F5E75021095A08182178C900A3
:101880000818C019002A08D03E2A10D85108D307DA
:1018900000D0491C890201801BE001881B4B1940C4
:1018A000018001880123DB031943018011E0510904
:1018B000D30600D1491E89020123DB0319430180AD
:1018C00007E05021095A08182178C9000818C019E2
:1018D000028093B262896169286805F0E1F9217894
:1018E00028688900425A074B30331A4010235A4067
:1018F00020235A40064B1A4342520020F8BD0000F4
:10190000020400008F8F000080C00000FF830000F1
:10191000808000004907490F282251430818FF30F2
:10192000813040687047F8B54F07CC097F0F2821F8
:101930007943091801260025002C02D028314E7069
:1019400002E0FF3169314D700F700A61CB704A7847
:10195000002A00D0CF81022B00D10D711522520137
:101960008418227A012A06D02672006804F04EFC00
:1019700028462572F8BD0220F8BD70B50D466C07EB
:10198000640F282161430918FF3169314A618B6175
:101990000022CA614A700C706A0704D0006804F023
:1019A00073FE002070BD006804F06EFEF9E770B5AC
:1019B0004A074368520F9A4201D9012070BDCD09F0
:1019C00000240123002D05D0282151430918283176
:1019D0004B7005E0282569430918FF3169314C70C7
:1019E0008B700A701522520185182A7A012A06D0B6
:1019F0002B72006804F028FE2C72002070BD0220BB
:101A000070BD70B50D466C07640F2821614309183D
:101A100028314A618B610122242672540B62002313
:101A2000CB614A700C706A0704D0006804F02CFE89
:101A3000002070BD006804F027FEF9E7F8B5044601
:101A4000206805F00DF9000402D5204602F0D4FB11
:101A5000206805F005F940050CD5206840308188E4
:101A6000524A11408180204600F022F90021204690
:101A700000F050F9206805F0F3F8400405D520681F
:101A8000403081884A4A11408180206805F0E8F89A
:101A9000800405D5206840308188464A1140818005
:101AA000206805F0DDF8C10417204001042608274E
:101AB000251800291BDA206840300188B1430180D5
:101AC000206840300188B94301802878012805D179
:101AD0000020287000212046FFF7E4FC204600F09B
:101AE000FBF8206840308188334A114081802068AB
:101AF00005F0B6F8000512D520684030018839435A
:101B000001802068403081882C4A11408180206803
:101B10004030018831430180204600F02FF92068D1
:101B200005F09EF800060BD52068403081888022A1
:101B300091438180287800281CD0204600F01EF9AF
:101B4000206805F08DF8800508D520684030818830
:101B50001B4A11408180204600F0D4F8206805F02F
:101B60007FF8C00505D5206840308188154A1140AE
:101B70008180F8BD206840300188314301802068B1
:101B800040300188394301800120287020684030AE
:101B9000808AF021084005218008C9016118486643
:101BA00001212046FFF77EFCCAE70000FFFB000092
:101BB000FFBF0000FFDF0000FFEF0000FFF70000A5
:101BC000FFFD0000FFFE0000F0B585B00446002CCC
:101BD00007D0152040012618707A0025002803D070
:101BE00006E0012005B0F0BD3572204600F044F853
:101BF00003207072206804F0DBFC002001270DE058
:101C00002821414309190A46203257721072C886AA
:101C1000D5728D63CD630D64401CC0B26168814292
:101C2000EED8002010E02821414309190A46FF326E
:101C3000613255721072D572603A9567D567FF317F
:101C400081310D60401CC0B261688142EBD82146F1
:101C5000142210316846FEF7B6FA20460FC804F089
:101C60009DFC242005557772E069012802D12046A9
:101C7000FFF702FC0020B5E708B500680A49884272
:101C800010D10A48C2690121C9050A43C261C0696D
:101C900008400090002202211F20FFF7E9FB1F20CF
:101CA000FFF7DAFB08BD0000005C004000100240B6
:101CB00070B504460125A068022801D0FFF738F866
:101CC0000520C00124182946206F04F00CF8206F6D
:101CD00003F0C9FF70BD000010B50446A0690028DC
:101CE00006D00748016906229143016102F0F7FF1F
:101CF0000520C0012018006F03F0DDFF10BD0000BB
:101D000000ED00E010B50521C9014018006F03F097
:101D1000DCFF10BD10B5152252018418227A012A69
:101D200009D00122227224221154006804F0B1FF6C
:101D30000020207210BD022010BD10B50521C90180
:101D400041180A6F2B2109014118104603F0D8FFF2
:101D500010BD70B50446152040012518287A0128C9
:101D60000AD001202872206804F068FF206804F07F
:101D70000DFC0020287270BD022070BD10B5044615
:101D80000520C0012018006F03F0FEFFA0690028A5
:101D900004D00348016906221143016110BD00000F
:101DA00000ED00E0024801688215114301607047B0
:101DB00000700040F8B504462068444DC00355D576
:101DC0000026E869C00007D4E96928040143E961F5
:101DD000E9690140009101263D480168C90512D416
:101DE0000168821511430160FFF7E0FA074606E03B
:101DF000FFF7DCFAC01B642801D90320F8BD344882
:101E00000068C005F4D5286A0321090208400028AB
:101E10001FD062680A4082421BD0286A88432A6A1F
:101E2000012109040A432A622A6A8A432A62286233
:101E3000C0070ED0FFF7BAFA074607E0FFF7B6FA79
:101E4000C11B2448814201D90320F8BD286A8007BC
:101E5000F4D5286A0321090288436168084328628F
:101E6000012E03D1E96930078143E9612078C00779
:101E700005D0286BA168800880000843286320787B
:101E8000800706D5286B032109048843E1680843CD
:101E900028632078800605D5286B102188432169A6
:101EA000084328632068800305D5286B8021884378
:101EB000A169084328632088400505D5286B402187
:101EC00088436169084328630020F8BD0010024080
:101ED0000070004088130000F8B504460D46002C41
:101EE00012D043480068C007C00FA8420ED2404835
:101EF000016849084900294301600068C007C00F14
:101F0000A84203D00120F8BD0120F8BD2068394E59
:101F100081070CD5400704D57068072109020843E2
:101F200070607068F0218843A16808437060207871
:101F3000C00732D06068012808D002280BD00328DF
:101F40000ED03168890710D40120F8BD31688903AB
:101F50000BD40120F8BD3168890106D40120F8BDF9
:101F6000716BC90301D40120F8BD7168890889002B
:101F700001437160FFF71AFA074607E0FFF716FA08
:101F8000C11B1D48814201D90320F8BD70680C2196
:101F90000840616889008842F0D115480168C90786
:101FA000C90FA9420BD901684908490029430160BA
:101FB0000068C007C00FA84201D00120F8BD2078FA
:101FC000400706D57068072109028843E168084385
:101FD000706000F02DF87168084A0906090F515C1D
:101FE000C840074908600020FFF7FEF90020F8BD4F
:101FF0000020024000100240881300002FD7000884
:102000004C01002001480068704700004C0100208E
:1020100000B5FFF7F7FF04494968044A4905490F2D
:10202000515CC84000BD0000001002403FD70008CE
:1020300030B589B022A001460EC9C06805AC0EC4F7
:10204000089023A001460EC9C06801AC0EC40490DC
:10205000234B59680C200A4602402248042A05D026
:10206000214D082A04D00C2A00D1284609B030BDE1
:102070008A02120F05ACA45CDA6A01AB1207120FD8
:102080009A5CC903890F022909D003290FD00023C4
:102090001946FEF757F8214604F05BFEE6E70023F9
:1020A0001946FEF74FF8214604F053FEDEE7002301
:1020B00028461946FEF746F8214604F04AFED5E7C1
:1020C00002030405060708090A0B0C0D0E0F101079
:1020D0000102030405060708090A0B0C0D0E0F1078
:1020E0000010024000127A00006CDC02FEB50446CB
:1020F000002C0FD02078F94EF94DC0075AD06868EF
:102100000007800F012822D068680007800F02288E
:1021100002D006E00120FEBD6868C003800F0228DF
:1021200015D0606801281AD00121890400281AD02E
:1021300005281FD02868B043286028688843286095
:102140006068002828D0FFF731F9074620E02868AA
:1021500080032FD5606800282CD10120FEBD28689F
:1021600030432860ECE72868B0432860286888433B
:102170002860E5E72868084328602868304328601D
:10218000DEE7FFF713F9C01B642801D90320FEBD69
:1021900028688003F5D50DE0FFF708F9074606E04B
:1021A000FFF704F9C01B642801D90320FEBD28688D
:1021B0008003F5D4207880074CD568680007800F2D
:1021C00014D068680007800F022804D16868C00333
:1021D000800F01280AD0E068002829D02868012152
:1021E00008432860FFF7E2F8074616E028688007F2
:1021F00004D5E068012801D00120FEBD2968F8203F
:1022000081432069C0000143296023E0FFF7CEF835
:10221000C01B022801D90320FEBD28688007F5D520
:102220002868F82188432169C9000843286011E023
:102230002868400840002860FFF7B8F8074606E025
:10224000FFF7B4F8C01B022801D90320FEBD28689F
:102250008007F5D42078000727D5E069002812D040
:10226000686A012108436862FFF7A0F8074606E0A4
:10227000FFF79CF8C01B022801D90320FEBD686A45
:102280008007F5D511E0686A400840006862FFF7F2
:102290008DF8074606E0FFF789F8C01B022801D930
:1022A0000320FEBD686A8007F5D420780427400724
:1022B000002874DA00200190E869C00008D4E869B9
:1022C000B9060843E861E8690840009001200190E0
:1022D00084480168C90513D401688215114301605F
:1022E000FFF764F8029007E0FFF760F80299401AE0
:1022F000642801D90320FEBD7A480068C005F3D5E3
:10230000A068012811D0002814D005281AD0286A06
:10231000400840002862286AB8432862A068002864
:1023200025D0FFF743F802901DE0286A01210843F9
:102330002862F3E7286A400840002862286AB84308
:102340002862EBE7286A38432862286A012108439B
:102350002862E3E7FFF72AF80299411A62488142AE
:1023600001D90320FEBD286A8007F3D50FE0FFF7EF
:102370001DF8029008E0FFF719F80299411A5A482F
:10238000814201D90320FEBD286A8007F3D4019859
:10239000012804D1E869012109078843E861207810
:1023A000C00641D5606901280CD0401D27D0686B5C
:1023B00038436863686B400840006863FEF7F6FFC7
:1023C00007462EE0686B38436863686B0121084359
:1023D0006863FEF7EBFF074606E0FEF7E7FFC01B6A
:1023E000022801D90320FEBD686B8007F5D5686B14
:1023F000F8218843A169C9000843686314E0686B49
:10240000B8436863686BF8218843A169C900084331
:10241000686309E0FEF7CAFFC01B022801D9032048
:10242000FEBD686B8007F5D4207880063CD56868CF
:102430000007800F032813D068680007800F022868
:1024400004D16868C003800F032809D0206A0028DF
:1024500019D0686B30436863FEF7A8FF06460EE0AC
:10246000686BC00320D5206A01281DD00120FEBD65
:10247000FEF79CFF801B022801D90320FEBD686B7C
:10248000C003F5D510E0686BB0436863FEF78EFFBC
:10249000064606E0FEF78AFF801B022801D90320CA
:1024A000FEBD686BC003F5D4606A00286DD0696812
:1024B0000907890F02294FD001273F06022806D0BD
:1024C0002868B8432860FEF771FF044640E028689A
:1024D000B8432860FEF76AFF06460EE000000100E0
:1024E000001002400070004088130000FEF75EFFFD
:1024F000801B022801D90320FEBD28688001F5D485
:10250000E86A216B000900010843E862A16AE06AF9
:10251000084369687B22D2039143084368602868B6
:1025200038432860FEF742FF044606E0FEF73EFF10
:10253000001B022801D90320FEBD28688001F5D5C3
:1025400023E0FEF733FF001B022801D90320FEBD64
:1025500028688001F5D418E0012814D06868E96A79
:102560000322D203A36A02409A420AD10907226BCE
:10257000090F914205D10F2189040840E16A884280
:1025800003D00120FEBD0120FEBD0020FEBD0000E5
:1025900010B50B46006841680D480140080CD87022
:1025A000CC04E40E5C708C06A40E9C700904490FE8
:1025B0001970002A0AD101F0B0FFD870587801F0E4
:1025C000ACFF5870987801F0A8FF9870002010BDFB
:1025D0003FFFFF0010B50B460168896A596001682A
:1025E00009694904490C9960006801680E48014076
:1025F0008802800E18704C04640E5C704C06640EE9
:102600009C70090C40242140D970002A0AD101F0A5
:1026100084FF1870587801F080FF5870987801F0A6
:102620007CFF9870002010BD7F7F7F0070B504464E
:10263000002C03D0607F002802D006E0012070BD8E
:1026400000202077204600F051F8022060772168B2
:10265000CA204862216853204862204601F070FF7A
:10266000FF250426002804D02068456266770120F3
:1026700070BD206881681C4A1140816020688168B3
:1026800062686369114322691A43114381602168BA
:10269000E068086120680169228912041143016120
:1026A0002068C16880229143C160206880688006EC
:1026B00009D4204600F00CF9002804D020684562B7
:1026C0006677012070BD2068016C0122920491435D
:1026D00001642068016CA2691143016420684562AD
:1026E00001206077002070BDBFFF8FFF00680549A3
:1026F000884205D10448016A0122D20311430162D4
:10270000704700000028004000100240F8B5044661
:102710000B46207F012806D0012020770220607719
:10272000002A02D008E00220F8BD5878C10603D57F
:10273000EF2108400A305870002A1DD0D8789D78C3
:1027400000040543587819780002490308430543FB
:102750002168CA204862216853204862204601F05F
:10276000EFFE0026FF27002817D0206847620420CC
:10277000607726770120F8BDD87801F0D6FE0504F1
:10278000587801F0D2FE00020543987801F0CDFEA2
:102790000543187840030543DAE7104805402068F0
:1027A00045602068C16880229143C16020688068CC
:1027B00080060BD4204600F08BF8002806D0206855
:1027C00047620420607726770120F8BD20684762C1
:1027D0000120607726770020F8BD00003FFFFF0052
:1027E000F8B504460D46207F012828D00120207727
:1027F000022060770026002A23D0206880684006E7
:1028000000D4EE702878AF78000407436878E97840
:1028100000020904084307432168CA20486221686E
:1028200053204862204601F08BFE00281FD021680B
:10283000FF2048620420607726770120F8BD02203F
:10284000F8BD20688068400600D4EE70287801F05A
:102850006CFE0704687801F068FE00020743A87860
:1028600001F063FE0743E87800040743D4E7174804
:102870000740206807602068816801229204914324
:102880008160E9682869014320688268114381609A
:102890002068C16880229143C160206880688006FA
:1028A0000CD4204600F014F8002807D02168FF203F
:1028B00048620420607726770120F8BD2168FF2058
:1028C00048620120607726770020F8BD7F7F7F0077
:1028D00070B505462868C168A0229143C160FEF723
:1028E00065FD04467D26F60006E0FEF75FFD001B51
:1028F000B04201D9032070BD2868C0688006F4D5B5
:10290000002070BD70470000F8B50446206842689A
:102910008168C9434B0608D5CB0706D1D3435B0674
:1029200003D4E16C20468847F8BD8B0706D4D34317
:102930001B0603D4216D20468847F8BD8B0603D5BE
:102940004B0601D5CB05F8D4D3439B06F5D42346DB
:102950004D064033002D09DB5D7F032D48D0256EE9
:10296000042635432566C568856800958E060127CF
:102970004025002E07DB266E3E43266686680096BD
:102980000668AE430660C80506D4206E08210843D9
:102990002066206880680090206E0028CDD02068D6
:1029A0004168E026B14341605F77900701D4D007CA
:1029B00022D020684168890889004160A06D104ECE
:1029C000002808D04663A06DFEF7C8FB002802D09F
:1029D000206E28432066606D0028AED04663606D8F
:1029E000FEF7BCFB0028A8D0206E28432066F8BD67
:1029F000C16880680090F8BD2046FFF783FFF8BDEE
:102A0000514A0008F8B50446002C0CD0606A002634
:102A100000280AD026616661A66225464035687F97
:102A2000002808D00BE00120F8BD6168C81FFD3800
:102A3000F2D0E661F0E72E77204600F05BF8022244
:102A40006A77206801684023994301600723E168A1
:102A50001B02994201D9002001E0012000030F2749
:102A60003F02B94202D0994200D0A662FF236168BA
:102A7000053319402127A368BF023B40194323694E
:102A80001340227D1943D207D20F11430123A269BB
:102A90005B021A401143E26938231A401143226A4B
:102AA00080231A401143A26A9B011A4011432268F5
:102AB0001160A1690422090C1140626A10231A40B6
:102AC0001143626B08231A4011430F23E2681B0273
:102AD0001A40114301221203104001432068416053
:102AE0002068C16952109143C16126660120687750
:102AF0000020F8BD70B586B00446142101A8FDF78A
:102B000089FB324A2168002431480225032691427C
:102B100022D1826981140A43826182690A4000924B
:102B2000426949010A434261406908400090E0203F
:102B300001900295039404960594092001A9C0060A
:102B4000FEF76EFB002201211920FEF791FC1920EF
:102B5000FEF782FC06B070BD1E4A9142FAD1C269EE
:102B600009140A43C261C2690A4000924169012204
:102B7000D2041143416141691140009141695210F1
:102B8000114341614069104000900C200190029572
:102B9000039404960120059001A90F48FEF740FB1D
:102BA000012080020190029503940496052005906F
:102BB00001A90A48FEF734FB002201211A20FEF782
:102BC00057FC1A20FEF748FCC4E700000030014023
:102BD000001002400038004000080048000400488F
:102BE000FFB583B004461E460027FF2125466068D6
:102BF00005314035884202D1A06800280CD0287FDA
:102C0000012814D001202877FEF7D0FB0290687FBE
:102C100001280ED0022795E004206877049A0096D8
:102C200011462046059B00F057F907B0F0BD022081
:102C3000FBE7049800281DD0059800281AD004202E
:102C4000687700202066049921640599A980059978
:102C5000E980A063A087E087E06420650720012168
:102C6000E26800020903824206D9206842688A436A
:102C7000426005E0012765E0206842680A4342603F
:102C80000122A068D2034021904208D12068026846
:102C90008A430260206802680B029A43026020683F
:102CA0000268520602D402680A4302600720E16803
:102CB0000002814218D935E020688168C90709D02F
:102CC000007B216C0870206C401C2064E888401E4A
:102CD000E88009E0FEF76AFB0299401AB04201D38E
:102CE000701C05D1002E03D0E8880028E4D11CE038
:102CF000032727E020688168C90709D0C068216CD4
:102D00000880206C801C2064E888401EE88009E070
:102D1000FEF74CFB0299401AB04201D3701C17D148
:102D2000002E15D0E8880028E4D131462046029ACA
:102D300001F097FE002801D020202066206E002898
:102D400000D00127012068770020287738466CE7FB
:102D50000327F7E7FFB583B004461D460027264644
:102D60004036307F01280AD001203077FEF71EFB65
:102D700002900599707F012804D00227A6E0022066
:102D800007B0F0BD0498002833D00598002830D053
:102D90000320707700202066049AA263059AA28718
:102DA000059AE2872064B080F0802065E06401220B
:102DB000A068D203904209D12068026840239A4358
:102DC0000260206802681B021A43026020680268E1
:102DD000520603D4026840231A4302600722E068C7
:102DE0001202904230D96068002804D0012902D034
:102DF00024E001276AE0A06B21680088C860A06B0E
:102E0000801CA063E08F401EE08717E02068816887
:102E1000890709D5A16B0988C160A06B801CA063DC
:102E2000E08F401EE08709E0FEF7C0FA0299401AE1
:102E3000A84201D3681C05D1002D03D0E08F0028E3
:102E4000E4D12CE0032741E06068002801D001298B
:102E500022D1A06B216800780873A06B401CA0638E
:102E6000E08F401EE08717E020688168890709D558
:102E7000A16B09780173A06B401CA063E08F401E1A
:102E8000E08709E0FEF792FA0299401AA84201D3BE
:102E9000681C11D1002D0FD0E08F0028E4D1294605
:102EA0002046029A01F01FFE002801D02020206653
:102EB000A068002802D005E0032707E02068C16869
:102EC00080680190206E002800D0012701207077D3
:102ED00000203077384653E7FFB583B00C9F044697
:102EE00001260020019025464035287F012810D07A
:102EF00001202877FEF75AFA0290697F62680698E7
:102F000001290ED0D31FFD3B08D1A268002A05D1AC
:102F100002E0022007B0F0BD042902D00220019097
:102F2000D2E00499002926D00599002923D00699DA
:102F3000002920D0697F042901D00521697700216B
:102F40002166059A2264069AEA80069AAA80049A63
:102F5000A263069AE287069AA287E16421650723A5
:102F60000122E1681B021203994207D921684B68CC
:102F700093434B6006E001200190A5E021684B6877
:102F800013434B6021680A68520603D40A68402341
:102F90001A430A600721E26809028A4245D961683A
:102FA000002901D0012839D1A06B21680088C860B0
:102FB000A06B801CA063E08F401EE0872EE020689D
:102FC000816889070ED5E18F00290BD0012E09D128
:102FD000A16B0988C160A06B801CA063E08F401EBC
:102FE000E087002620688168C9070CD0E98800299D
:102FF00009D0C068216C0880206C801C2064E8889F
:10300000401EE8800126FEF7D1F90299401AB84225
:1030100004D3781C02D00320019055E0E08F0028F3
:10302000CDD1E8880028CAD143E06168002901D0E9
:10303000012838D1A06B216800780873A06B401C70
:10304000A063E08F401EE0872DE02068816889073B
:103050000ED5E18F00290BD0012E09D1A16B097883
:103060000173A06B401CA063E08F401EE087002628
:1030700020688168C9070CD0E988002909D0007B45
:10308000216C0870206C401C2064E888401EE88099
:103090000126FEF78BF90299401AB84201D3781C39
:1030A00018D1002F16D0E08F0028CED1E888002854
:1030B000CBD139462046029A01F015FD002803D0F5
:1030C00001200190202020660120687700202877C9
:1030D00001981FE703200190F6E70000F8B5FE4CC9
:1030E000E08D401CE085607C00280AD0607C401E9A
:1030F00040B26074002804DC01225102F748FEF758
:103100004EF9F54F8037786A012600281BD0786A7F
:10311000401E7862002816DCF14D0122110228467B
:10312000FEF73DF9012251022846FEF738F9A07C4E
:10313000002803D0A07C022802D004E0A67402E09C
:103140000020A074E674A07A00287DD0E248808C2C
:10315000E14C254620354034002876D0DE49888C65
:10316000401E00B2888400286FDC00208884208EF6
:10317000012805D00020C877608F01284FD06CE06F
:10318000608F012817D0012100224903D348FEF7A0
:1031900006F9D1480674608E002829D0CE483E2218
:1031A000418FA25E914267DC1022818EA25E914225
:1031B00062DD067260E0C848C07F002815D0C948AB
:1031C000786201221102C648FEF7E9F801210022C7
:1031D0004902C348FEF7E3F802202870BE48467350
:1031E00003214175C048F862D5E7BB48C673D2E7F2
:1031F000B9483E22418FA25E91423DDC1022818E71
:10320000A25E914238DD1022C18EA25E914233DD72
:103210001022018FA25E91422EDD06722CE0AE4894
:10322000807F002817D0AF487862FF21002201314B
:10323000AB48FEF7B4F801225102A948FEF7AFF8F7
:103240002E70A548467301E0B9E13AE003214175CB
:10325000A548F86201E0A0488673608E002812D06D
:103260003E216088615E884206DC9B481022818F87
:10327000A25E914200DD0672974802218170C18CE6
:10328000002917D01DE03E216088615E8842F3DC92
:1032900091481022818FA25E9142EDDD1022C18FF4
:1032A000A25E9142E8DD10222188A25E9142E3DD18
:1032B0000672E1E7018D002903D1418D002900D17B
:1032C00081728548C08C00287ED08349C88C401EFE
:1032D00000B2C884002877DC0020C884208E012832
:1032E00006D00846C6777C488078032845D067E03A
:1032F0007948807F002822D0774900208870608F2D
:10330000012825D077487862FF21002201317448D6
:10331000FEF745F8012251027148FEF740F82E7081
:103320006D4846736C49032048756F48F862012266
:1033300051036A48FEF733F867490020087466486D
:103340000022418FBA5E9142CDDB00210172CAE7B3
:1033500064487862FF21002201316148FEF71FF8BE
:10336000012251025E48FEF71AF82E705A48467341
:10337000032141755C48F862E1E7574900208870F5
:10338000608F012814D157487862012211025448F5
:10339000FEF705F80121002249025148FDF7FFFF21
:1033A000022028704C484673032141754E48F8624C
:1033B00000216088795E884202DB4749002008725C
:1033C0004548818C002900E007E006D1018D0029E5
:1033D00003D1418D002900D181723F48008D002822
:1033E00070D03D49088D401E00B20885002869DC78
:1033F00000200885208E012805D00020C877608F26
:10340000012830D04AE0608F01280FD0012100222E
:1034100049033248FDF7C3FF2F4806742E480622A1
:10342000418FBA5E914240DB46723EE02A48C07F3F
:10343000002815D02B487862012211022848FDF798
:10344000AEFF0121002249022548FDF7A8FF022016
:10345000287021484673032141752348F862DDE74F
:103460001D48C673DAE71C48807F002814D01D4829
:103470007862FF21002201311948FDF790FF0122F7
:1034800051021748FDF78BFF2E7013484673032136
:1034900041751548F86201E00F488673062160887F
:1034A000795E884201DB0C4846720B480621817028
:1034B000C18C002906D1C18C002903D1418D00297E
:1034C00000D181720449488D002878D0488D401E73
:1034D00000B24885002809E00000002000080048EC
:1034E00000040048881300001F4E000067DC002025
:1034F0004885208E012832D00846C07F002821D080
:1035000000208870608F012870D057487862FF21B2
:10351000002201315548FDF742FF01225102534874
:10352000FDF73DFF2E705248467351490320487500
:103530005048F862012251034F48FDF730FF4C49D3
:103540000020087408216088795E884202DC4849BE
:10355000002048724648807803285DD078E04448CF
:10356000807F002822D0424900208870608F012887
:1035700026D03D487862FF21002201313B48FDF70B
:103580000EFF012251023948FDF709FF2E7038481D
:1035900046733749032048753648F86201225103C3
:1035A0003548FDF7FCFE32490020087430480822F7
:1035B000418FBA5E9142CDDC00214172CAE752E0F0
:1035C00029487862FF21002201312848FDF7E7FEF3
:1035D000012251022548FDF7E2FE2E702448467371
:1035E000032141752348F862E0E7FFE71E4878624F
:1035F000012211021D48FDF7D2FE012100224902DD
:103600001A48FDF7CCFE02202870194846730321A2
:1036100041751848F86295E7154900208870608F59
:10362000012815D110487862104C01221102204661
:10363000FDF7B5FE0121002249022046FDF7AFFE4D
:10364000022028700A484673032141750948F86230
:103650000748818C002906D1C18C002903D1018D36
:10366000002900D18172F8BD8813000000040048D1
:10367000000000201F4E00000008004810B5094956
:10368000401E884201D9012010BD074C6061032112
:10369000081F03F099FB0020A06107202061002093
:1036A00010BD0000FFFFFF0000E000E010B5FFF7D5
:1036B00015FD10BD70477047F0B502462032137FEC
:1036C000012B21D0012616770223537703685D680A
:1036D0009C687027BD430F682F435F6000680B4BE9
:1036E000984208D0B307984205D0094B984202D0BF
:1036F000084B984204D180239C4349682143816050
:10370000567700201077F0BD0220F0BD002C01405C
:10371000000400400040014070B50446002C05D074
:1037200025462035687F002802D006E0012070BDC4
:1037300000202877204600F015F802206877211D28
:10374000206801F027FB01224034A271AA77EA77B2
:1037500022706270A270E270227162716A7700203A
:1037600070BD000008B50068094988420FD10948BA
:10377000C26920210A43C261C0690840009000224A
:1037800003211220FDF774FE1220FDF765FE08BD2F
:103790000014004000100240014620314A7F012AF7
:1037A00001D00120704702224A770168CB680122CC
:1037B0001343CB6000680D49884208D091078842C6
:1037C00005D00B49884202D00A49884208D1816855
:1037D0004907490F062906D001681143016002E03C
:1037E000016811430160002070470000002C014077
:1037F0000004004000400140704770B50446206856
:1038000001690025C9438907002916DBC168C9433E
:10381000890712D4E91E01610120207720688069A0
:10382000800703D02046FFF7E7FF05E0204600F0C1
:1038300099F8204600F097F8257720680169C94378
:10384000490718D4C168C943490714D40421C9439E
:10385000016102202077206880698005800F03D0F5
:103860002046FFF7C9FF05E0204600F07BF8204620
:1038700000F079F8257720680169C943090717D452
:10388000C168C943090713D40821C9430161042051
:1038900020772068C069800703D02046FFF7ACFF7F
:1038A00005E0204600F05EF8204600F05CF8257741
:1038B00020680169C943C90618D4C168C943C9064B
:1038C00014D41021C9430161082020772068C06901
:1038D0008005800F03D02046FFF78EFF05E02046CD
:1038E00000F040F8204600F03EF825772068016996
:1038F000C943C90708D1C168C943C90704D1891E92
:103900000161204600F030F820680169C9430906CA
:1039100009D4C168C943090605D48021C94301619E
:103920002046FFF7C7FE20680169C943490609D44C
:10393000C168C943490605D44021C94301612046F5
:1039400000F088F820680169C943890609D4C16874
:10395000C943890605D42021C94301612046FFF7E8
:10396000AAFE70BD7047704770B500683349884241
:1039700062D1334C207C012807D1E07F002804D19C
:1039800009200221C006FDF702FD207D2C4E0025F6
:10399000803600280AD0207D401E40B220750028C5
:1039A00004D1032060752748F0622575607D0028EA
:1039B00006D0607D401E40B26075002800D165755C
:1039C000207E00281BD0207E401E40B2207600289A
:1039D00015DC2576E5702571657125701848403035
:1039E000408E012800D1E57105F07AFC002806D050
:1039F000FDF7A0F9802214491448FDF7DBF9E07ABD
:103A000000280AD0E07A401E40B2E072002804DCB0
:103A1000E57201202073A5747562A08D00280BD07B
:103A2000A08D401E00B2A085002805DCA5850122DE
:103A300051030748FDF7B3FC70BD000000140040BF
:103A4000000000201F4E0000B002002000F8010816
:103A5000000800487047704770477047F8B5044643
:103A60002268D06911689368834D0540002D09D103
:103A7000860607D58E0605D5616E002901D0204641
:103A80008847F8BD2026002D7CD0DF077B4DFF0F37
:103A9000BC460D402F4375D02546C7078035002F03
:103AA00006D0CF0504D5012717622A683A432A6059
:103AB000820708D5DA0706D0276802223A622A6808
:103AC00004273A432A60420708D5DA0706D023685C
:103AD00004221A622A6802231A432A6002070AD5BE
:103AE0000A46324063461A4305D0236808221A6208
:103AF0002B6813432B60020508D54A0106D5012225
:103B00002368D2021A622A6832432A602A68002A8D
:103B1000B7D0800606D5880604D5616E002901D08D
:103B200020468847286821688968490602D42821E8
:103B3000084221D0204601F01BFA2068816849061E
:103B400016D5826840218A438260206F00280AD0FF
:103B50004B494163206FFDF701FB002891D0206F96
:103B6000416B8847F8BD2046FFF777FFF8BD09E0B5
:103B70002046FFF772FFF9E72046FFF76EFF0020AF
:103B80002860F3E7256E012D58D1C50656D5CD0620
:103B900054D51023136220688168254649064035B4
:103BA00000292CDA226F1168496889B20029DDD01A
:103BB0002F8B8F42DAD969839169202917D0016848
:103BC0001A019143016020688168490849008160B9
:103BD00020688168402291438160E667002020666A
:103BE0002068016899430160206FFDF797FA288BE0
:103BF000698B401A81B22046FFF72DFFB6E7298B6B
:103C00006A8B891A89B26A8B002AAFD00029ADD09D
:103C10000268FF252135AA430260206882685208A5
:103C200052008260E66700202066606620680268B5
:103C30009A4302602046FFF70EFF97E7C50208D5BA
:103C40005B0206D50120000510622046FFF704FF45
:103C50008CE7020607D50A0605D5A16E002985D096
:103C60002046884782E7400680D5480689D5204609
:103C700001F097F97AE700000F0800002001000426
:103C80005D4F000810B50446002C03D0A06F00283B
:103C900002D007E0012010BD00217420015520460C
:103CA00000F028F82420A06720680168490849002E
:103CB0000160204601F082F9012819D0606A0028CD
:103CC00002D0204601F0B0F8206841680922D202F3
:103CD00091434160206881682A2291438160206875
:103CE0000168012211430160204601F003F910BD73
:103CF000012010BD10B586B00446142101A8FCF7C0
:103D000089FA17492068884227D11648826901211B
:103D100089030A43826182690A4000924269C900AC
:103D20000A4342614069084000900320400201902C
:103D300002200290002003900320049001200590AF
:103D4000092001A9C006FDF76BFA002202211B2001
:103D5000FDF78EFB1B20FDF77FFB06B010BD0000BA
:103D600000380140001002407047FEE770B504467D
:103D70003E4B3F4D002C67D0702200212046FCF7BF
:103D800039FF2B467F2200212046FCF733FF00221B
:103D9000012311462046FCF72DFF364B75220021EA
:103DA0002046FCF727FF344B762200212046FCF703
:103DB00021FF0123732200212046FCF71BFF012372
:103DC000742200212046FCF715FF872333220021AF
:103DD0002046FCF70FFF264B3422553B002120469E
:103DE000FCF708FF00233B2201212046FCF702FFDD
:103DF00000234D2201212046FCF7FCFE00236F2208
:103E000001212046FCF7F6FE1C4D30222B460021F6
:103E10002046FCF7EFFE2B46402200212046FCF70F
:103E2000E9FE2B46602200212046FCF7E3FE00233A
:103E3000072219462046FCF7DDFE00237F221946A3
:103E40002046FCF7D7FE70BD702200212046FCF70B
:103E5000D1FE2B467F2200212046FCF7CBFE00221C
:103E6000012311462046FCF7C5FE96E79A7800002C
:103E7000AA5500006FB70000FDDD00006587000057
:103E800070B5002300250FE0040F0A2C03D2303454
:103E90005E008C5502E037345E008C5500015C00FA
:103EA000641865705B1CDBB29342EDD370BD0000FB
:103EB00010B5094807490160002101714171416154
:103EC000816101210162FDF7D3F8002801D0FCF7E0
:103ED0002FFF10BD00300240CC040020F0B587B0A9
:103EE000142102A8FCF796F94D4842690121C90442
:103EF0000A43426142690A4001924269C9000A4389
:103F0000426142690A400192426949110A43426191
:103F100042690A400192426949000A43426142698A
:103F20000A400192426989000A434261406908409F
:103F300001903C4E0122C9113046FDF730FA0927A5
:103F4000FF21FF06002218313846FDF728FA01222A
:103F500008213846FDF723FA3F21002209013046A7
:103F6000FDF71DFA002230493048FDF718FA032109
:103F7000012209022D48FDF712FA2D480290012571
:103F8000039500240494059402A93046FDF748F9EE
:103F90000320029027480390049402A93046FDF7BD
:103FA0003FF9FF202030029003950494059402A964
:103FB0003846FDF735F9204802900395049405949E
:103FC00002A91A48FDF72CF9E8030290039404951E
:103FD00002A93846FDF724F90720800202900394D5
:103FE000049502A93046FDF71BF9042002900394C2
:103FF000049502A91148FDF713F9F82002900394E3
:10400000049502A90948FDF70BF9002202210520B9
:10401000FDF72EFA0520FDF71FFA07B0F0BD0000EE
:10402000001002400008004807F8000000040048A3
:10403000F02300000000111007FB0000000C0048F6
:1040400000B587B0142102A8FCF7E4F80021019123
:104050000A48094A026041607F228260FF22C260F2
:10406000016141618161FEF7E1FA002801D0FCF7AE
:104070005FFE07B000BD000000280040F0040020F3
:1040800010B511480F490160FF2105314160002141
:10409000816007221202C260016141610122520265
:1040A00082612822C2610162416281620722C2628A
:1040B00001634163FEF7A6FC002801D0FCF738FE3F
:1040C00010BD0000003001401005002010B511485F
:1040D0000F490160FF210531416000218160072205
:1040E0001202C260016141610122520282612822F2
:1040F000C2610162416281620722C262016341635F
:10410000FEF780FC002801D0FCF712FE10BD000075
:1041100000380040740500201CB500240094019470
:104120000E480D4901600E49416084600D49C1602F
:1041300080218161FFF7F0FA002801D0FCF7F8FD3B
:104140000094019469460548FFF7B6FA002801D0AB
:10415000FCF7EEFD1CBD000000140040D805002057
:10416000ED020000FFF9000010B50C480A4901609B
:104170004B21C901416000218160C16001610C22B5
:1041800042618161C16101624162FFF77BFD0028EC
:1041900001D0FCF7CDFD10BD003801402006002005
:1041A00010B500220F49104801F00EFC002801D084
:1041B000FCF7BEFD0D490C4801F00DFE002801D0B2
:1041C000FCF7B6FD0A49084801F02AF9002801D099
:1041D000FCF7AEFD044801F0AEFE002801D0FCF76C
:1041E000A7FD10BDE0000020A40600202C02002046
:1041F00030010020FEE70000FEB5044620462030D6
:10420000029073E18A881607360F002E39D0B1006C
:104210000191415A0091009909047DD50199415AB3
:10422000B74A114080221143019A815228207043DD
:104230000519FF356935287B00286ED0E8780228FB
:104240006CD0297820688900425AAE4B1A40AE4B98
:104250001A434252297820688A00825A52047DD536
:104260005022125ACB00A94912185918515A8F05D9
:10427000BF0D002F04D02A893B46696902F0F3FC88
:10428000DEE0D2062ED401889E4A803A11400122F7
:10429000D203114301802546283520685021095A50
:1042A00009182878C20099481018085A8005800D0E
:1042B000E86169690818686100212046FDF710F976
:1042C0000298007900289CD0A869002899D102980A
:1042D00000798021084321684031888102990020BB
:1042E000087103E12546FF3569350288130520D59D
:1042F000098A09182878C2008448001D1018085A35
:1043000083059B0DEB612B210901EA886118206868
:1043100002F0A9FC206802E0A7E065E078E00188EF
:10432000774A11408022114301802046FDF705FDA8
:10433000DCE01104D5D50188714A11408022114377
:10434000018020685021095A704E08182978361DBE
:10435000C9008919405A8005800D00E05FE0E861DE
:1043600000280FD0696900290CD083B2EA88206840
:1043700002F079FCE969686940186861002120460B
:10438000FDF7BAF820685021095A081880192969E0
:10439000002908D03E2910D84A08C90700D0521C6D
:1043A0009102018012E00188594A11400180018880
:1043B0000122D2031143018008E04A09C90600D155
:1043C000521E91020122D20311430180206801880C
:1043D000504A1140012212035140520051404A4AB2
:1043E000403A1143018081E020685021095A0A189F
:1043F0002978CB004549091D5918515A8F05BF0D21
:10440000002F1DD0EA883B46696902F02CFC17E0BA
:1044100029462046009AFDF7C9F8074610E05022C9
:10442000CB00125A39491218091D5918515A8F05D3
:10443000BF0D002F04D06A893B46696902F013FC66
:10444000E869C019E8616869C0196861A86900284D
:1044500002D02869B84204D929782046FDF74CF8E3
:1044600003E02946206802F00FF9009800063DD5C8
:1044700028204643311928312068019A825A214B5D
:10448000803B1A400123DB031A43019BC252C878C8
:10449000022802D10098C00524D420685022125A64
:1044A00012180878C30019481818105A8005800D92
:1044B0008A69824202D9121A8A6101E000228A6165
:1044C0008A69002A09D04A6912184A61CA69101813
:1044D000C861206802F0D8F808E009782046FCF7A7
:1044E000FFFF03E02046009AFDF7DAF82068014656
:1044F00040318A88120400D584E60020FEBD000009
:104500008F0F00008F8F0000C080000002040000A9
:10451000FF8300008FBF0000704701090A2251434A
:104520000007000F4018C0B27047002102E0491C8C
:104530000A38C0B20A28FAD20907090E08437047A0
:1045400070B505462868C168490613D40021C943DF
:10455000C160FCF72BFF04467D26F60006E0FCF761
:1045600025FF001BB04201D9032070BD2868C06838
:104570004006F4D5002070BDF0B5FE48FE4C017831
:104580002182218A090221824178228A11432182D3
:1045900081782184218C09022184C178228C1143E5
:1045A000218401796182618A090261824179628A8A
:1045B0001143618281796184618C09026184C179CE
:1045C000628C11436184017AA182A18A0902A182CD
:1045D000417AA28A1143A182817AA184A18C090225
:1045E000A184C17AA28C1143A184017BE182E18A7A
:1045F0000902E182417BE28A1143E182817BE1840D
:10460000E18C0902E184C17BE28C1143E184017CED
:104610002186218E09022186417C228E114321862A
:10462000817C6186618E09026186C17C628E114344
:104630006186017D2187218F09022187417D228F9B
:1046400011432187817D6187618F09026187C17D67
:10465000628F11436187017EE187E18F0902E18763
:10466000417EE28F1143E1872146827E40310A80FC
:104670000A8812020A80C27E0B881A430A80027FCF
:10468000CA80CA881202CA80427FCB881A43CA8075
:10469000827F0A810A8912020A81C07F0A89104337
:1046A0000881B44820300278CA81CA891202CA81BE
:1046B0004278CB891A43CA8182780A820A8A120216
:1046C0000A82C2780B8A1A430A82AC4D017969804A
:1046D0006988090269806988427911436980817912
:1046E00029802988090229802988C27911432980D3
:1046F000017A69816989090269816989427A11436C
:104700006981817A29812989090229812989C27AC5
:1047100011432981017BA980A9880902A980A98860
:10472000427B1143A980817BE980E9880902E98005
:10473000E988C27B1143E980017CA981A98909022A
:10474000A981A989407C0143A9811020205EDC2831
:1047500003DC1020205E962801DAC8202082202069
:10476000205EFF211931884203DC2020205EEB28E7
:1047700001DAF02020841220205EDC2806DC1221E1
:10478000615E1020205E401D814202DA208A401DB9
:1047900060822221615E2020205E401F814203DC76
:1047A0002220205EDC2802DA208C401F6084142145
:1047B000615E00203C2903DC1421615E002900DADF
:1047C000A0822421615E3C2903DC2421615E002952
:1047D00000DAA0841622A25E05213C2A03DC162200
:1047E000A25E002A00DAE1822622A25E3C2A03DCD5
:1047F0002622A25E002A00DAE184628E012A00D914
:104800006086628F012A01D8628F00E06087678F1F
:10481000594E0122203E0223002F05D0278E022F61
:1048200005D92286327011E0228632700EE0278E82
:10483000012F06D0278E022F05D0278E002F04D0FF
:1048400004E0327002E0337000E030703E26A65F74
:10485000462E03DC3E26A65F282E01DA2F26E687A9
:10486000454E40360027F75F462F03DC0027F75FF1
:10487000282F01DA302737800627F75F462F03DC21
:104880000627F75F322F01DA3527F7800827F75F11
:10489000462F03DC0827F75F322F01DA34273781F0
:1048A0000E27F75F3C2F03DC0E27F75F002F00DA9F
:1048B000F1811027F75F3C2F03DC1027F75F002FF3
:1048C00000DA31820227EF5F012F03DC0227EF5F5E
:1048D000002F00DA68800020285E022803DC002018
:1048E000285E002800DA2B800A20285E1F2803DCBF
:1048F0000A20285E012800DA6A810820285E07283D
:1049000003DC0820285E012801DA07202881042022
:10491000285E172803DC0420285E002801DA08201E
:10492000A8800C20285EFF226932904203DC0C2014
:10493000285E012800DAA981208A81B20020FCF7D4
:10494000E7F9608A81B20420FCF7E2F9A08A81B21B
:104950000820FCF7DDF9E08A81B20C20FCF7D8F9D9
:10496000208C81B20220FCF7D3F9608C81B2062042
:1049700006E0000000F8010840000020B00400201C
:10498000FCF7C6F9A08C81B20A20FCF7C1F9E08CD3
:1049900081B20E20FCF7BCF9218E1020FCF7B8F98B
:1049A000618E1220FCF7B4F9218F1420FCF7B0F9C6
:1049B000618F1620FCF7ACF9E08F81B21820FCF76C
:1049C000A7F9308881B21A20FCF7A2F9F08881B2E9
:1049D0001C20FCF79DF9308981B21E20FCF798F964
:1049E000F08981B22020FCF793F9308A81B222202D
:1049F000FCF78EF969882420FCF78AF9298826209B
:104A0000FCF786F969892820FCF782F929892A2090
:104A1000FCF77EF9A9882C20FCF77AF9E9882E208A
:104A2000FCF776F9A9893020FCF772F9F0BD000097
:104A300010B50248FDF768FF10BD0000100500200A
:104A400010B50248FDF760FF10BD0000740500209E
:104A500010B5406A002146221152C187FDF752FF6E
:104A600010BDF7B582B004461546FF2660680536CE
:104A7000B0420CD10121A068C903884202D049117B
:104A8000884204D12068016840229143016000956A
:104A9000002280212046039B00F0BCF8202700283C
:104AA00005D0206E38432066032005B0F0BD606855
:104AB000B04216D10121A068C903884202D0491131
:104AC00088420ED103210095002249022046039B13
:104AD00000F03CF8002804D0206E38432066032004
:104AE000E3E70020E1E7F8B504460F461546032149
:104AF0003B460022C9022046009500F027F82026F8
:104B0000002804D0206E304320660320F8BD3B46C9
:104B1000002280212046009500F07CF8002804D077
:104B2000206E304320660320F8BD03213B4600225F
:104B300049022046009500F009F8002804D0206EB4
:104B4000304320660320F8BD0020F8BDFFB583B0D8
:104B500004460E4617460C9DFCF728FC411B0698A0
:104B6000451AFCF723FC019029482321006848439B
:104B7000000D6843029044E0032149028E4202D1B5
:104B8000002F00D1007B0698401C3AD0FCF70EFCA9
:104B90000199401AA84205D2002D03D0029800289E
:104BA0002BD02BE020684168E0229143416060688F
:104BB000C11FFD390CD10121A068C903884202D070
:104BC0004911884204D12068016840229143016064
:104BD0000121A06A4903884207D1206802688A43FC
:104BE0000260206802680A43026001204034607756
:104BF00000202077032007B0F0BD00250298401E5A
:104C00000290206881683140B942B5D10020F2E7B6
:104C10004C010020FFB581B004461E460A9DFCF7FA
:104C2000C5FB401B351AFCF7C1FB07462748006847
:104C30004001000D684300903BE0701C39D0FCF748
:104C4000B5FBC01BA84205D2002D03D00098002858
:104C50002BD02BE020684168E022914341606068DE
:104C6000C11FFD390CD10121A068C903884202D0BF
:104C70004911884204D120680168402291430160B3
:104C80000121A06A4903884207D1206802688A434B
:104C90000260206802680A430260012040346077A5
:104CA00000202077032005B0F0BD00250098401EAD
:104CB0000090206881680298884305D000200399FD
:104CC0008842BAD10020EEE70120F8E74C0100202D
:104CD000704710B5FCF770FBFEF7E8FC10BD10B58F
:104CE00000F002F810BD000030B599B034210CA8D6
:104CF000FBF790FA0024089409940A940B941C2161
:104D000001A8FBF787FAFDF74DF81B48016A182246
:104D10001143016225200C9001200D900E901490FB
:104D200002251595000416900001179018940CA800
:104D3000FDF7DCF9002801D0FBF7FAFF0720089007
:104D400009950A940B94012108A8FDF7C5F80028DD
:104D500001D0FBF7EDFF094801900394FF200130DB
:104D60000290079401A8FDF725F8002801D0FBF771
:104D7000DFFF19B030BD0000001002400100030049
:104D80007047000010B50248FEF737FD10BD000067
:104D9000D8050020F0B502681D4B0124A4071D4D65
:104DA000984203D0A04201D0A84203D17026B2435A
:104DB0004E683243184E194F98420DD0A0420BD086
:104DC000A84209D0164CA04206D0B04204D0B84246
:104DD00002D0144CA04204D103242402A243CC6884
:104DE00022438024A2434C69224302608A68C26243
:104DF0000A688262984206D0B04204D0B84202D01B
:104E0000084A904201D10969016301214161F0BD65
:104E1000002C0140000400400040014000440140DB
:104E2000002000400048014010B5818CC90707D020
:104E300001684A6801235B049A43836A1A434A6003
:104E4000818C890707D501684A6801231B049A43AE
:104E5000C36A1A434A60818C490707D501684A68CA
:104E600001239B049A43036B1A434A60818C090710
:104E700007D501684A680123DB039A43436B1A4351
:104E80004A60818CC90607D501688A6801231B0323
:104E90009A43836B1A438A60818C890607D501681F
:104EA0008A6801235B039A43C36B1A438A60818C2F
:104EB000490612D501684B6801221205046C934320
:104EC00023434B60016C914207D101684A68032378
:104ED0005B059A43436C1A434A60818C090607D5E7
:104EE00001684A680123DB04806C9A4302434A60EC
:104EF00010BD0000F8B50446002580200551FCF7E0
:104F000055FA074620680068134E00070BD50121AB
:104F10003B46002249052046009600F01BF9002878
:104F200001D00320F8BD2068006840070BD501219F
:104F30003B46002289052046009600F00BF9002828
:104F400001D00320F8BD2020A067E067256660340B
:104F500025750020F8BD0000FFFFFF0110B5406A75
:104F60000022014640314A834A82FEF776FD10BD99
:104F700001680A68FF2321339A430A6001688A683E
:104F8000520852008A60016E012904D101680A6842
:104F900010239A430A602021C167002101664166FF
:104FA000704710B501680A6840239A430A602021BF
:104FB000816700218166FEF7D7FE10BD70B50446FB
:104FC0000025A1682069E26901436069104301433B
:104FD00020680268574B1A400A4302602068416803
:104FE000032212039143E26811434160A069216AE0
:104FF0000143206882680B231B029A430A438260A4
:105000004D4A20684D49904213D1086B8007800FAC
:1050100007D0012809D0022809D0032803D0102086
:105020002CE000202AE0022028E0042026E00820CE
:1050300024E0434A904216D1086B0321090408403A
:105040000BD001210904401A09D0401A09D0884226
:1050500001D1022012E0102010E000200EE0042018
:105060000CE008200AE03749884201D1002005E021
:105070003549884201D1002000E010200122E36977
:10508000D2033249324E93422BD100281DD0022840
:105090001FD004281FD0082801D000220125002A93
:1050A00043D0616850004A088018FBF721F880B2AD
:1050B00001461039B14212D82549491C0140000768
:1050C000420F0A432068C2602FE0FCF7A1FF0246AE
:1050D000E5E70A46E3E7FCF7ABFF0246DFE7012519
:1050E00023E0002816D0022818D0042818D0082859
:1050F00001D000220125002A17D0616848088018D5
:10510000FAF7F6FF80B201461039B1420CD8216897
:10511000C8600AE0FCF77CFF0246ECE70A46EAE7D3
:10512000FCF786FF0246E6E7012500206066A066E0
:10513000284670BDF369FFEF0038014000100240BF
:105140000044004000480040004C004000127A003B
:10515000EFFF0000FFB581B00A9D04460F462646CA
:1051600060363CE0681C3AD0FCF720F90499401AFC
:10517000A84222D8002D20D02068016849072ED5EA
:10518000C069C04300052AD401202168C00208621A
:1051900020680168FF22A132914301602068816884
:1051A0004908490081602020A067E06780342060C2
:1051B00000203075032005B0F0BD20680168FF2293
:1051C000A1329143016020688168490849008160EB
:1051D0002020A067E067002030750320EBE72068FF
:1051E000C1693846884305D0002003998842B9D068
:1051F0000020E0E70120F8E710B50248FEF72EFC9A
:1052000010BD000020060020F8B506460D4605201A
:10521000C0013018846B016C002C1DD01420684331
:105220008719F869002807D028226A435118896B2A
:10523000FAF75EFF002906D0FF340020FF34023465
:1052400060610020F8BD0020F86100231A4629465D
:10525000304600F0A2FDF4E70220F8BD70B505224B
:10526000D2018518AC6B00F08AFCE21DFF32FA32E5
:10527000D060A86B002808D0E96B5068CA68832109
:10528000890061189047002070BD022070BD70B584
:10529000044600268121204600F0B7FB0025E56288
:1052A0000121204600F0B1FBFF206D300551822125
:1052B000204600F0AAFB25640520C0012418A06B3D
:1052C000002806D0E06B40688047A06B00F099FF93
:1052D000A563304670BD10B50521C9014018816B2A
:1052E000C36B002B0AD0CC1DFF34FA342078FF2882
:1052F00004D09B6862789847FF202070002010BD82
:105300000A21018000487047540100204321018098
:1053100000487047A40100204321018000487047E5
:10532000600100204321018000487047E80100200F
:10533000F8B504460026207CE51DF9350127002834
:1053400033D0402302228121204600F075FCE76221
:10535000402302220121204600F06EFCEF66082364
:1053600003228221204600F067FC2764872080000A
:1053700000F048FF0521C90161188863002825D085
:105380000546C86B00688047FF350020FF350235B1
:105390006861A861207C00281AD0402301212046A2
:1053A0006A6800F056FC3046F8BD01235B02022219
:1053B0008121204600F040FCE76201235B020222CB
:1053C0000121204600F038FCEF66C8E70126EAE735
:1053D00001235B02012120466A6800F03AFCE2E703
:1053E00010B50521C9014118896B002916D0027C2E
:1053F000002A09D0FF31FF3102314A6840230121E0
:1054000000F027FC002010BDFF31FF3102310123E5
:105410004A685B02012100F01CFCF3E7022010BD8A
:1054200002460220002904D00520C0011018C163E3
:10543000002070470522D2018018806BFF30FF30BA
:1054400002304160002070470523DB01C018806BEB
:10545000FF30FF3002308160026100207047FEB5EE
:1054600007460C460520C00139188E6B00200190BC
:105470000090002520786022034610402CD0202880
:1054800006D02146384600F08AF802252846FEBD9F
:10549000E288002A19D018060AD5C96B60788B6893
:1054A00031469847E2883146384600F0A0F8EDE7EB
:1054B000F01DFF306178FA300170A1794170E28807
:1054C0003146384600F076F8E0E7C96B60788B68C3
:1054D000002221469847D9E76078002809D00A2899
:1054E00016D00B2823D02146384600F058F8022564
:1054F000CCE7087F032805D02146384600F04FF856
:105500000225C3E702226946384600F070F8BDE77D
:10551000087F032805D02146384600F040F80225D0
:10552000B4E7012201A9384600F061F8AEE7087F30
:105530000328ABD02146384600F031F80225A5E714
:1055400010B50522D2018218526B52689047002094
:1055500010BD10B50522D20183181A7F012A06D08A
:10556000022A04D0032A02D000F019F810BD49889D
:105570000129FBD10021596200F048F810BD10B597
:1055800013460A46002100F064FB002010BD10B550
:1055900013460A46002100F000FC002010BD10B5A3
:1055A00004468021204600F0DBFB0021204600F06D
:1055B000D7FB10BD10B505240323E4010419636172
:1055C000C31DF933DA651A6613460A46002100F056
:1055D00040FB002010BD10B50521CA0182185161A1
:1055E00000231A46194600F034FB002010BD10B508
:1055F00005240223E40104196361C26102621346B7
:105600000A46002100F0C9FB002010BD10B505229C
:105610000421D2018218516100231A46194600F074
:10562000BCFB002010BD000010B5002806D00A46C3
:10563000054906A000F098F9034810BD0A46024942
:1056400002A000F091F9F7E76809002043444320E5
:10565000436F6E666967000012200880004870473B
:105660000001002010B5002806D00A46054906A012
:1056700000F07AF9034810BD0A46024902A000F082
:1056800073F9F7E76809002043444320496E7465C5
:10569000726661636500000004200880004870475E
:1056A000FC00002010B50A46024903A000F05CF996
:1056B000004810BD680900204553502054656368B8
:1056C0006E6F6C6F676965730000000010B500288D
:1056D00006D00A46054906A000F046F9034810BD69
:1056E0000A46024902A000F03FF9F7E768090020E6
:1056F00053544D3332205669727475616C20436F78
:105700006D506F727400000010B51A200880FBF70E
:1057100069FC014810BD00001401002010B50A46C4
:10572000D188012903D01146FFF739FF10BD0521AB
:10573000C9014118097F012907D0022905D0032991
:105740000BD01146FFF72BFF10BD002181600146F1
:1057500001220831FFF74BFF10BD0122011DFFF7A9
:1057600046FF10BDF8B505460F4600200090002604
:105770000024798805200A0AC0012818130001F0C6
:1057800000FB08A8050D20A8A88897A8006B2A7C14
:10579000036869461046984706469FE0297C002921
:1057A00007D0406BC16A6846884706460220707081
:1057B00094E0406B816A6846884706460221717012
:1057C0008CE0C9B20B0001F0DCFA06041322314070
:1057D0004F5E006B4268002A04D0287C69469047DF
:1057E00006467BE039462846FFF7D9FE012475E0DE
:1057F000006B8268002A04D0287C694690470646E0
:105800006CE039462846FFF7CAFE012466E0006BCB
:10581000C268002A04D0287C6946904706465DE0AD
:1058200039462846FFF7BBFE012457E0006B0269AA
:10583000002A04D0287C6946904706464EE0394647
:105840002846FFF7ACFE012448E0006B4269002ABD
:1058500004D0287C6946904706463FE039462846F2
:10586000FFF79DFE012439E0006B8269002A04D015
:10587000287C69469047064630E039462846FFF7BF
:105880008EFE01242AE039462846FFF788FE0124CF
:1058900024E0297C002905D039462846FFF77FFE01
:1058A00001241BE0406B416B68468847064615E0C3
:1058B000297C002905D039462846FFF770FE0124CF
:1058C0000CE0406B016B6846884706460721717003
:1058D00004E039462846FFF762FE0124002C14D16B
:1058E0006846008800280AD0FA88002A07D0824239
:1058F00000D90246009231462846FFF778FEF88824
:10590000002802D12846FFF781FEF8BD002102E001
:10591000491CC9B2401C0278002AF9D108467047D8
:1059200010B50A460521C9014318197F012907D07E
:10593000022905D0032903D01146FFF730FE10BD20
:10594000D188022903D01146FFF729FE10BD01219D
:10595000C160596A002901D00321C16001460222B9
:105960000C31FFF744FE10BD70B504460D461646D7
:10597000002C16D02046FFF7C9FF4000801C308065
:1059800030782870032102206970002306E0411C52
:10599000C9B22A54641C481CC0B26B542278002A35
:1059A000F5D170BD01460020002906D0012905D09F
:1059B000022905D0032905D0022070470220704734
:1059C000012070470220704710B5002811D0052330
:1059D000DB01C3185C6B002C01D000245C63002940
:1059E00000D0196301211977027000F0D1F800206E
:1059F00010BD022010BD10B50522D2018018006C28
:105A0000FBF7AAFDFFF7CEFF10BD10B50522D201AE
:105A10008018006CFBF77EFDFFF7C4FF10BDF8B5E2
:105A20000646084611460522D201B418002808D0BF
:105A3000616B4A69002A02D0217F032957D00220D6
:105A4000F8BD354614356069022804D004283ED0DC
:105A500000283CD03FE02F69E868B8420CD9C01B51
:105A6000E86082B23046FFF792FD00231A461946DD
:105A7000304600F0EEF82EE0AD6839462846FAF7D9
:105A800037FB002912D1BD4210D3A06985420DD247
:105A9000002211463046FFF77AFD0020A061002366
:105AA0001A461946304600F0D4F814E0606BC1681D
:105AB000002904D0207F032801D130468847802167
:105AC000304600F04DF93046FFF785FD03E08021B8
:105AD000304600F045F915204001311808780128BA
