:020000040800F2
:10000000A0220020D5000008654C00089345000898
:1000100000000000000000000000000000000000E0
:100020000000000000000000000000005D5B000810
:100030000000000000000000955000085F5B000811
:10004000E7000008E7000008E7000008E7000008F4
:10005000E70000080D0B0008E7000008E7000008B3
:10006000E7000008E7000008E7000008E7000008D4
:10007000E7000008E7000008E7000008E7000008C4
:10008000E7000008E70000081D5C0008E700000822
:10009000E7000008E7000008E7000008E7000008A4
:1000A000E7000008695800087958000861610008F5
:1000B000E7000008E7000008E700000811890008D1
:1000C0000348854600F0DAFB0048004759C30008A2
:1000D000A02200200448804704480047FEE7FEE7CE
:1000E000FEE7FEE7FEE7FEE7195C0008C100000836
:1000F00030B50B46014600202022012409E00D46C0
:10010000D5409D4205D31D469540491B2546954047
:1001100040191546521E002DF1DC30BD70B500248B
:100120002546002801DA01244042002901DA012590
:100130004942FFF7DDFFAC4200D04042002C00D026
:10014000494270BDF0B51FB40646002082B0054696
:100150004024019100901BE0019922460F46304651
:1001600000F020F8049A059B801A994110D310469C
:100170001946224600F0ECF9361A8F4101972246C3
:1001800001200021009F00F0E3F938184D41009054
:100190002046641E0028DFDC019B00982946324679
:1001A00007B0F0BD10B5202A04DB0846203AD04045
:1001B000002110BD0B46D340D0402024A21A91400C
:1001C0000843194610BD10B5431A934209D283184B
:1001D000881803E0401E01785B1E1970521EF9D288
:1001E00010BD03460B439B0703D009E008C9121F4B
:1001F00008C0042AFAD203E00B780370401C491CA3
:10020000521EF9D210BDD2B201E00270401C491E4C
:10021000FBD270470022F6E710B513460A460446A3
:100220001946FFF7F0FF204610BD421C0178401C24
:100230000029FBD1801A704703460A780270401CDF
:10024000491C002AF9D11846704770B502464A4049
:10025000D50F40004A00ED0740085208002814D08E
:10026000002A12D0C40DD30D41020120C005520254
:10027000490A520AE41A091812187D34914201D32E
:10028000641C00E04900002C01DA002070BD00234E
:10029000914201D3891A0343400849000028F7D14D
:1002A00000290AD0914202D10121C90705E09142FB
:1002B00001D2012101E00121C943E005C018401924
:1002C00000F056F970BD0000F0B51FB488B00B996E
:1002D0000998002448400999C00F4900490809912C
:1002E000C0070B990090490049080B91099908989B
:1002F000A64608431CD00B990A98084318D00998C1
:1003000001244000420D4800410D099824050003D6
:10031000000B204309900B980003000B20430B9027
:1003200050181C494018002201901446104605E060
:10033000002001460DB0F0BD032801DA034600E0BD
:1003400003239C46C11A0AAE0AE05F0008ADED5BCC
:100350004F00F75B7D430027AA187C41491C5B1EB8
:100360006145F2DD410004AB5A522104120C0A43EC
:10037000240C401C0828DFDB01980290009970468D
:1003800001910090059B049A0799069800F03EF9A8
:10039000D0E700000DFCFFFFF0B50C465C4085B0D7
:1003A000E40FE40703944C000026640859009446C7
:1003B000490802460296224321D062460A431ED0D3
:1003C0006200570D4A000E032303550D0124024617
:1003D0002C492405781B1B0B360B4018234326435E
:1003E000614600901C46501AB44103D30098401C4B
:1003F000009002E0921800985B41002803DA002088
:10040000014605B0F0BD00200121090507468646DA
:1004100011E064461D46141BB54106D36546521BC8
:10042000B341744607430C43A646CD07400849082C
:10043000284392185B4105460D43EAD11046184304
:1004400013D06046194650407140084306D06046BC
:10045000101AB34106D20122002306E00022012334
:10046000DB0702E00122D2435310009874460105D5
:10047000381C6141029C039D0019694100F0B9F8E4
:10048000BFE70000FD03000010B5002296231146CF
:1004900000F076F810BD00000EB50549029100216C
:1004A00000910A460B46019100F0B0F803B000BD80
:1004B00033040000410040020122400AD205090E27
:1004C00080187F2901DA00207047962903DC9622E4
:1004D000511AC8407047963988407047C20FD207FA
:1004E000400040080BD0C10D0723DB01C9184002B2
:1004F0000905400A1143C208400711437047002014
:1005000001467047CB0FDB07490010B5490802468A
:100510000A4307D00A0D07240903E401090B121B43
:10052000002A01DC002010BDC900440F0C43C100AB
:10053000E018D205801800F01BF810BD0122D20788
:10054000002800DB101A002900DB511A884270478E
:1005500010B5202A04DB0146203A9140002010BD4E
:10056000914020239C1A0346E3401943904010BD5C
:10057000002904DA401C490001D1400840007047BE
:1005800070B40024050C05D11024000402D1002908
:1005900021D01124050E01D100020834050F01D12C
:1005A0000001241D850F01D18000A41C002801DB5F
:1005B0004000641C002908D020252E1B0D46F54064
:1005C000A14000D001212943084301061B1B000A5A
:1005D000DB1D02D5002070BC7047DB0518188018A1
:1005E0000029F8DA401C4900F5D170BC40084000F1
:1005F000704710B5002B08DA0024401C61419218A6
:100600005B411A4301D14008400010BDF0B51FB452
:1006100082B005460C0003D0084608F0F9F902E064
:1006200008F0F6F920300246009021462846FFF7F0
:100630008FFF049B059A04460F4618431143084355
:1006400014D0184610431BD0009840210A1A1846AF
:100650000599FFF7A7FD05460E46009A05990498EF
:10066000FFF776FF084305D0012004E02046394615
:1006700007B0F0BD0020C11705430E432C4337439C
:1006800000990E986305401A7905E40A00220C438C
:10069000FD0A0A3002D500200146E9E701051019DC
:1006A00069410C9C0D9D00196941FFF7A2FFDFE72E
:1006B000F0B507460846584087B0C00F0490480080
:1006C0000E46590040084908BC1A884105D23846F0
:1006D00031461E4617460B46024658004008104356
:1006E0004CD0300D039040055900400D490D059048
:1006F000401A0290402872DA18030121000B090504
:100700000843019004980092002805D001995242B4
:100710000020884100920190029840210A1A019914
:100720000098FFF715FF05460C466B4607CB00F017
:10073000B7F8C0197141039A0E0D0023D717564020
:100740001A467A40164344D0049A002A2DD0029AC1
:10075000012A039A15DC1205C01A914101263605BB
:10076000001C7141D20F059ED207009301920296A0
:100770002A462346FFF74AFF07B0F0BD3846314608
:10078000FAE71605224A0F46B218C01AB7410121EE
:100790000905001C4F4100187F4111461818794186
:1007A000E20F10436D19644113E0E2076D08154331
:1007B0006408C2071443039A01261205C01A914126
:1007C0003605001C7141CE07400830434908C01867
:1007D00051412A462346FFF70CFFCDE7FFE7049877
:1007E00001224000C117121A00238B4104983146A0
:1007F000C417381AA141EEE730B40124E40763407E
:1008000030BC55E730B40124E407614030BC4FE709
:100810000000E0FF4A0009030123090B1B051943EF
:100820000A4B10B5520D9A4202DA0020014610BD63
:10083000064B34339A4203DC9A1AFFF7B3FC10BD1F
:10084000034BD218FFF784FE10BD0000FF03000029
:10085000CDFBFFFF10B5002904DB0124E407404273
:100860008C412146002B04DB1C460123DB0752424E
:10087000A341994200D1904210BD0000064C0125D1
:10088000064E05E0E36807CC2B430C3C9847103438
:10089000B442F7D3FFF718FCD8130108F813010886
:1008A00010B5202A06DBCB170846203A1041C117A5
:1008B0000B4306E00B461341D0402024A21A91407E
:1008C0000843194610BD70B58C180578401C6B079D
:1008D0005B0F01D10378401C2A1106D10278401C1D
:1008E00003E006780E70401C491C5B1EF9D12B07F3
:1008F00005D40023521E0DD40B70491CFAE703786F
:10090000401CCB1A921C03E01D780D70491C5B1C27
:10091000521EF9D5A142D8D3002070BD10B50022D7
:1009200001214902034800F0AEFC32200249087060
:1009300010BD000000080048C60000200346042B3C
:1009400016D008DC002B0FD0012B0ED0022B0DD0BF
:10095000032B12D10BE0202B0BD0212B0AD0222B02
:1009600009D0232B09D107E008E007E006E005E005
:1009700004E003E002E001E000E000BF00BF00206F
:10098000704700207047000010B500220449054858
:1009900005F067FD0449034805F059FD002010BD2E
:1009A000A40D0020F8040020BC09002070B5044606
:1009B0000D462146034805F04AFD024805F019FDA1
:1009C000002070BDF8040020FEB504460F46154611
:1009D0001E46002F03D00120C003054304E001217F
:1009E000C903284688430546002C06D10022102161
:1009F0000920C00600F047FC05E000220121C902E1
:100A00002F4800F040FC042000F060F86846457173
:100A10002D120571002C06D10523022201A92948B7
:100A200002F091FD05E00523022201A9264802F00B
:100A30008AFD042000F04AF8002F1AD0002C06D1BD
:100A40000523022201A91F4802F098FC05E00523B6
:100A5000022201A91C4802F091FC6846007900902E
:100A60000098000200906846407900990843009081
:100A700012E06846467136120671002C06D1052335
:100A8000022201A90F4802F05EFD05E005230222C3
:100A900001A90D4802F057FD002C06D101221021BA
:100AA0000920C00600F0EFFB04E00122D102044857
:100AB00000F0E9FB002C01D10098FEBD0098FCE796
:100AC0000004004864030020C8030020002110E057
:100AD00000220AE000BF00BF00BF00BF00BF00BF90
:100AE00000BF00BF00BF531CDAB2142AF2DB4A1C5D
:100AF000D1B28142ECD3704710B5421C024CA154D4
:100B000009122346195410BD9802002010B5012087
:100B100000F09AFA022000F097FA10BD72B600BFFA
:100B2000FEE7000070B5012500F05CFA3420294989
:100B3000C860294C42E000BF2648C068C007C00F0B
:100B40000028F9D12348C06810210840002801D0AE
:100B5000002536E01F48C06804210840002801D065
:100B600000252EE01B48006902210843194908614D
:100B7000084644610069402108431649086100BFE6
:100B80001448C068C007C00F0028F9D11148C068D8
:100B900010210840002801D0002512E00D48C0684F
:100BA00004210840002801D000250AE00948006916
:100BB0000221884307490861C81424180748844261
:100BC000B9D300BF03480069802108430149086187
:100BD000284670BD0020024000F80108FFFF010810
:100BE000F8B505460C46164601200090334885426C
:100BF0005FD3334885425CD800F0F4F934203149A2
:100C0000C8604CE0012E03D12778641C761E06E0F4
:100C100020786178090208430746A41CB61E00BF6D
:100C20002848C068C007C00F0028F9D12548C0680F
:100C300010210840002802D00020009031E0214817
:100C4000C06804210840002802D00020009028E05D
:100C50001C480069012108431A4908612F8000BF20
:100C60001848C068C007C00F0028F9D11548C068EF
:100C700010210840002802D00020009011E0114807
:100C8000C06804210840002802D00020009008E03D
:100C90000C480069400840000A490861AD1C002E5C
:100CA000B0D100BF074800698021084305490861A9
:100CB00001E0002000900098F8BD000000F8010855
:100CC000FFFF01080020024070B50446074BF822E0
:100CD00001212046FFF778FE05462846FFF7D4FBA2
:100CE00006460349FFF7B1FA70BD0000FFFF0000A0
:100CF0000000C842F1B582B00A4BD9220121029806
:100D0000FFF762FE01900198FFF7BEFB0090FFF72E
:100D1000E5FB04460022044BFFF73EFB0646FFF7C7
:100D2000F1FBFEBDFFFF000000D06D40F1B582B0C9
:100D30000A4BDA2201210298FFF746FE0190019842
:100D4000FFF7A2FB0090FFF7C9FB04460022044B0B
:100D5000FFF722FB0646FFF7D5FBFEBDFFFF0000B5
:100D600000D06D40F1B582B00A4BDB220121029820
:100D7000FFF72AFE01900198FFF786FB0090FFF72E
:100D8000ADFB04460022044BFFF706FB0646FFF7C7
:100D9000B9FBFEBDFFFF000000D06D4010B504465A
:100DA000034B712201212046FFF70EFE10BD00000B
:100DB000FFFF000070B50948C46A056B466BA419B3
:100DC000002C0AD008220649204603F01FFD042209
:100DD00003491031284603F019FD70BD80F7FF1F4D
:100DE0002201002070B503460C4600201F2100BFE1
:100DF0000D46491E002D06D0CE06F60E0125B54043
:100E00002540002DF4D0002A11D0082A0BD0102A3A
:100E100005D0182A0CD1072900D301200AE008299F
:100E200000D3012006E0102900D3012002E001E0F8
:100E3000012000BF00BF002808D11D686C611D683B
:100E4000AD681826B54315431E68B56070BD000037
:100E500010B50446002C01D1012010BD607F002890
:100E600003D12077204600F039F8022060772079FE
:100E7000002809D118482168486120688068182135
:100E800088432168886008E02046E268A168FFF78F
:100E9000A9FF002801D00120DFE76079002803D1F5
:100EA000401E2168086102E021682069086120680D
:100EB00080686021884361690843216888602068F0
:100EC000806880218843A1690843216888600120E7
:100ED00060770020C1E70000B71DC10408B5094ACA
:100EE000016891420DD100BF074949694022114371
:100EF000054A51611146496940221140009100BFE5
:100F000000BF08BD00300240001002400146212011
:100F1000405C022808D00420886300BF0022202003
:100F2000425400BF01207047086800680E229043B9
:100F30000A68106008680068400840000A6810608D
:100F400001200A6C9040CA6B50600122212042545B
:100F500000BF00222020425400BF0020E3E770B50C
:100F6000044600252120005D022803D00420A06350
:100F700001251EE0206800680E2188432168086072
:100F80002068006840084000216808600120216C4A
:100F90008840E16B486001212120015500BF0021FC
:100FA0002020015500BF606B002802D02046616BF5
:100FB0008847284670BD000070B5044600F06AF905
:100FC00006462546681C002802D0054800782D18E2
:100FD00000BF00F05FF9801BA842FAD370BD00008B
:100FE000540100200020094909698022114000298C
:100FF0000BD00749054A51600649516011460969FD
:1010000080221140002900D00120704700200240BA
:1010100023016745AB89EFCD09490978002904D13F
:10102000022802D1FF21064A1170064909780029D9
:1010300004D1012802D1FF21024A1170704700003B
:10104000CE000020CF00002010B5044605484069BE
:101050002040002804D0034844612046FFF7DCFF0D
:1010600010BD00000004014078B503460022E2E014
:10107000012696400C683440002C7DD04D68012D2F
:1010800008D04D68022D05D04D68112D02D04D6855
:10109000122D18D1986856000325B5400646AE4378
:1010A00030465600CD68B540284398605868012501
:1010B00095400646AE43304610264D6835402D0912
:1010C000954028435860D86856000325B540064629
:1010D000AE43304656008D68B5402843D8604D6811
:1010E000022D02D04D68122D15D1D508AE001D4637
:1010F0002035A8595507EE0E0F25B5400646AE43DC
:1011000030465607F60E0D69B5402843D508AD00A8
:101110001E4620367051186856000325B540064615
:10112000AE4330460D79AD07AD0F5600B5402843AC
:101130001860012636074D683540B5427AD100BFA8
:10114000404DAD69012635433E4EB5613546AD692A
:10115000ED07ED0F009500BF00BF3B4D9608B600B0
:10116000A85995072E0F0F25B5400646AE433046C9
:101170000925ED06AB4200E05CE001D1002514E05A
:10118000324DAB4201D101250FE0314DAB4201D1CF
:1011900002250AE02F4DAB4201D1032505E02E4D7B
:1011A000AB4201D1042500E005259607360FB54076
:1011B0002843254D9608B600A851284D28680546B5
:1011C000A5432846012636044D683540B54202D174
:1011D000054625432846214D286068680546A543F5
:1011E0002846012676044D683540B54202D10546B1
:1011F00025432846194D6860A8680546A54328463A
:10120000012636054D683540B54202D105462543D5
:101210002846124DA860E8680546A54328460126E1
:1012200076054D683540B54202D10546254328462E
:101230000A4DE860521C0D68D540002D00D017E71C
:1012400078BD000000100240080001400004004882
:1012500000080048000C004800100048000401404D
:10126000024613690B40002B01D0012000E0002052
:10127000704710B5426913460B401B040C4694435B
:101280002343836110BD002A01D0816100E08162A7
:101290007047000001480068704700004C010020C2
:1012A00003480068034909784018014908607047FD
:1012B0004C0100205401002010B5064800681021A0
:1012C000084304490860002000F006F800F02EF8FA
:1012D000002010BD0020024070B50446104801787F
:1012E0007D20C000FEF704FF064631460D48006829
:1012F000FEF7FEFE054602F00BFD002801D001209E
:1013000070BD042C07D200222146501E00F03CF88C
:101310000548046001E00120F2E70020F0E700004A
:1013200054010020580100205001002008B500BFE2
:101330000D488069012108430B498861084680698E
:10134000C007C00F009000BF00BF00BF0846C069C3
:10135000090408430449C8610846C06909040840F3
:10136000009000BF00BF08BD0010024001460029E8
:1013700005DBCB06DB0E01229A40024B1A6000BF50
:101380007047000000E100E070B504460D461646C7
:101390002946204607F07AFB70BD01460A68012005
:1013A0000523DB01CB189866002017235B01CB18BF
:1013B00018705420805A0123184354239852542003
:1013C000805A0223184354239852002070477047D4
:1013D00070B505460C4680202040802806D1600765
:1013E000400F28267043AE19811905E0282060437C
:1013F0002E46FF3669368119002A03D10020087372
:10140000CB8004E0012008730B81180C4881002078
:1014100070BD70B504460D46282169432346283324
:10142000C9184A690521C9016118086F294605F0E4
:10143000EAFB70BD70B504460D462821694323467A
:10144000FF336933C9184A690521C9016118086F5A
:10145000294605F073FC70BD70B504460E46802029
:101460003040802808D17007400F28214843611878
:1014700045180120687009E07007400F2821484393
:101480002146FF3169314518002068707007400F10
:10149000287000BF152040012018007A012801D1D2
:1014A000022070BD0120152149016118087200BF9A
:1014B0002946206806F04AFB00BF0020152149019B
:1014C0006118087200BF00BFEBE770B504460E4616
:1014D0003007000F6168884201D9012070BD80206B
:1014E0003040802808D17007400F282148436118F8
:1014F00045180120687009E07007400F2821484313
:101500002146FF3169314518002068700020A8701D
:101510007007400F287000BF152040012018007A86
:10152000012801D10220D9E70120152149016118C4
:10153000087200BF2946206806F05EFC00BF00204C
:10154000152149016118087200BF00BFC6E70000FD
:10155000F8B505460C4617460120800338400028A0
:101560004ED028684030008A2178C9004018801C7D
:101570000122920229688918405A8605B60DA06991
:10158000B04203D3A069801BA06101E00020A061EC
:10159000A069002813D100BF227892002968895AD7
:1015A0003F4A114008460121490348408900014350
:1015B0008022114323789B002A68D15200BF40202B
:1015C0003840002813D000BF00BF2278920029685D
:1015D000895A344A114008460121C9030143C022F7
:1015E000114323789B002A68D15200BF00BF002E10
:1015F00054D0228961693346286807F095F94DE097
:1016000028684030008A2178C9004018801D0122D6
:10161000920229688918405A8605B60DA069B04221
:1016200003D3A069801BA06101E00020A061A06934
:10163000002813D100BF227892002968895A184ADD
:101640001140084601214903484089000143802296
:10165000114323789B002A68D15200BF40203840B4
:10166000002813D100BF00BF227892002968895A50
:101670000C4A114008460121C9030143C02211430D
:1016800023789B002A68D15200BF00BF002E05D0EE
:10169000628961693346286807F046F93046F8BD2B
:1016A0008FBF00008F8F0000F7B584B005460C4651
:1016B00040210698084000287ED028684030008AE3
:1016C0002178C9004018801C0122920229688918DB
:1016D000405A8705BF0DA069B84203D9A069C01B55
:1016E000A06101E00020A061A06900281ED121783E
:1016F0002846FFF78EFE012189030698084000283E
:1017000013D000BF00BF227892002968895AC94AC5
:10171000114008460121C90301438122D20111432E
:1017200023789B002A68D15200BF69E10121890317
:1017300006980840002814D000BF00BF227892000D
:101740002968895ABB4A114008460121C90301434F
:101750008122D201114323789B002A68D15200BF15
:1017600000BF2420005D0128DFD16069C0196061DD
:10177000E069C019E0612169206A884204D32669C2
:10178000206A801B20620DE0206A002804D13E46BA
:1017900000212420015505E0002124200155266A5E
:1017A0000020206200BF607800283CD100BF29687B
:1017B00003912968403100E050E00A8A03995118EA
:1017C00003912178C900891C01239B02039AD21836
:1017D0008918084600BF002E09D10288964B1A408E
:1017E000028002880123DB031A43028019E03E2EA7
:1017F0000AD800BF7108F207D20F002A00D0491C96
:101800008A06120C02800CE000BF7109F206D20EAB
:10181000002A00D1491E8A020123DB031A430280F9
:1018200000BF00BF11E0607801280ED100BF28681A
:101830002A684032128A10182278D200921C0123A2
:101840009B02C318D1180E8000BF00BFB3B222891B
:1018500061692868039007F08FF8D1E0286840306C
:10186000008A2178C9004018801D0122920229684F
:101870008918405A8705BF0DA069B84203D3A069F3
:10188000C01BA06101E00020A061A06900281ED15A
:1018900021782846FFF7BDFD0121890306980840FD
:1018A0000028DAD100BF00BF227892002968895A47
:1018B000604A114008460121C90301438122D20137
:1018C000114323789B002A68D15200BF98E0012180
:1018D000890306980840002814D100BF00BF227871
:1018E00092002968895A534A114008460121C903C8
:1018F00001438122D201114323789B002A68D152EF
:1019000000BF00BF2420005D012879D16069C019A3
:101910006061E069C019E0612169206A884204D3EE
:101920002669206A801B20620DE0206A002804D10D
:101930003E4600212420015505E0266A0020206251
:1019400000212420015500BF2868039060780028FA
:101950003AD100BF29680191296840310A8A01996A
:10196000511801912178C900891D01239B02019A18
:10197000D2188918084600BF002E09D102882E4BC4
:101980001A40028002880123DB031A43028019E017
:101990003E2E0AD800BF7108F207D20F002A00D0ED
:1019A000491C8A06120C02800CE000BF7109F20685
:1019B000D20E002A00D1491E8A020123DB031A43FA
:1019C000028000BF00BF13E06078012810D12868B2
:1019D0004030018A0398081803902078C000801DC9
:1019E00001229202039989184018029002980680F9
:1019F00000BFB3B2628961692868039006F0BCFF3A
:101A000000BF227892002968895A0A4A3032114070
:101A10000846102148402021484089020143802285
:101A2000114323789B002A68D15200BF002007B0E1
:101A3000F0BD00008F8F0000FF83000002464807C2
:101A4000400F282358431346FF336933C018C06939
:101A50007047FFB581B005460E461F460020009036
:101A600080203040802808D17007400F282148434B
:101A7000691844180120607009E07007400F2821A0
:101A800048432946FF3169314418002060707007CF
:101A9000400F207003982061E7706078002801D023
:101AA0002078E081022F01D10020207100BF152095
:101AB00040012818007A012802D1022005B0F0BDAB
:101AC0000120152149016918087200BF21462868C4
:101AD00005F020FE00BF0020152149016918087299
:101AE00000BF0098EAE7FFB581B005460E461746ED
:101AF0007007400F282148432946FF3169314418B7
:101B000067610498A0610020E06160707007400F79
:101B100020707007400F002804D12146286806F085
:101B200005FA03E02146286806F000FA002005B017
:101B3000F0BD70B504460E467007400F61688842DC
:101B400001D9012070BD80203040802808D1700765
:101B5000400F28214843611845180120687007E0AC
:101B6000282070432146FF316931451800206870F4
:101B70000120A8707007400F287000BF1520400199
:101B80002018007A012801D10220DBE7012015216D
:101B900049016118087200BF2946206806F098F9CB
:101BA00000BF0020152149016118087200BF00BF65
:101BB000C8E7FFB581B005460E461F467007400FC7
:101BC000282148436918441803986061A7610121DE
:101BD0002420015527620020E06101206070700719
:101BE000400F20707007400F002804D1214628685C
:101BF00006F09CF903E02146286806F097F90020DA
:101C000005B0F0BD10B50446206806F089FE01213C
:101C1000C9030840884202D1204603F025F8206815
:101C200006F07EFE01218902084088420ED120681C
:101C300040308088714908402168403188802046C2
:101C400000F08EF90021204600F0BFF9206806F070
:101C500067FE012189030840884207D1206840308F
:101C6000808867490840216840318880206806F0F4
:101C700057FE012149030840884207D120684030BF
:101C8000808860490840216840318880206806F0DB
:101C900047FE01210903084088422AD120684030CC
:101CA0000088594908402168403108802068403048
:101CB00000885549091F08402168403108801720D5
:101CC000400120180078012808D10020172149017F
:101CD0006118087000212046FFF779FB204600F0CC
:101CE00055F92068403080884849084021684031D3
:101CF0008880206806F014FE0121C902084088424D
:101D00001AD12068403000880821084321684031FA
:101D100008802068403080883D4908402168403173
:101D200088802068403000880421084321684031C1
:101D30000880204600F096F9206806F0F1FD802129
:101D40000840802835D12068403080882E497C3971
:101D50000840216840318880172040012018007811
:101D6000002823D1206840300088042108432168DE
:101D700040310880206840300088082108432168ED
:101D8000403108800120172149016118087020683E
:101D90004030808AF021084080080521C90161187F
:101DA000486601212046FFF712FB02E0204600F0C2
:101DB00059F9206806F0B4FD012149020840884223
:101DC0000AD120684030808812490840216840319B
:101DD0008880204600F0F0F8206806F0A1FDFF2181
:101DE00001310840884208D1206840308088064987
:101DF000FC39084021684031888010BDFFFB00009D
:101E0000FFBF0000FFDF0000FBFF0000FFEF00004E
:101E1000FFF70000FFFD000030B585B00446002C40
:101E200002D1012005B030BD152040012018407AB4
:101E3000002806D11521490161180872204600F0DA
:101E40006BF803201521490161184872206805F0DC
:101E5000C7FF002520E001222820684321462831C1
:101E600040184270282068430D54282068434018C9
:101E7000C5810022282068434018C270282068438A
:101E800040180261282068434018426128206843B6
:101E900040188261681CC5B26068A842DBD8002582
:101EA0001CE00022282068432146FF316931401898
:101EB0004270282068430D54282068434018C2709F
:101EC0002820684340180261282068434018426176
:101ED0002820684340188261681CC5B26068A84227
:101EE000DFD81422214610316846FEF76CF92046EF
:101EF0000FC805F067FF002124200155012015219E
:101F0000490161184872E069012802D12046FFF7B3
:101F100044FA002086E7000038B504460E492068E0
:101F2000884217D100BF0D48C0690121C905084387
:101F30000A49C8610846C0690121C90508400090E6
:101F400000BF00BF002202211F20FFF71DFA1F2043
:101F5000FFF70CFA38BD0000005C004000100240A2
:101F600070B504460125A068022801D0FEF7D6FD11
:101F70000521C9016118086F294605F053F80521AC
:101F8000C9016118086F04F0EBFF70BD10B504467D
:101F9000A069002807D00748006906218843054941
:101FA000086103F0E2FD0521C9016118086F05F021
:101FB00010F810BD00ED00E010B504460521C90180
:101FC0006118086F05F016F810BD70B504460D468F
:101FD00000BF152040012018007A012801D10220FD
:101FE00070BD0120152149016118087200BF24202D
:101FF00005552946206806F0B7FC00BF00201521D2
:1020000049016118087200BF00BFE9E710B5044636
:102010000521C9016118086F2B210901611805F01C
:1020200018F810BD10B5044600BF15204001201857
:10203000007A012801D1022010BD0120152149019B
:102040006118087200BF206806F056FC206805F091
:10205000AFFE00BF0020152149016118087200BFC2
:1020600000BFE9E710B504460521C9016118086FF2
:1020700005F059F8A069002805D003480069062139
:1020800008430149086110BD00ED00E00348006805
:10209000FF2101310843014908607047007000408A
:1020A000F8B50446002600250121090420680840EF
:1020B00088427AD100276048C06909030840002897
:1020C0000DD100BF5C48C06908435B49C861084640
:1020D000C06909040840009000BF00BF01275748AD
:1020E0000068FF2101310840002816D153480068DC
:1020F000084352490860FFF7CDF8064606E0FFF7AF
:10210000C9F8801B642801D90320F8BD4B4800683A
:10211000FF21013108400028F1D04748006A03211F
:10212000090208400546002D2DD060680840A842ED
:1021300029D04148006A884305463F48006A01218A
:10214000090408433C4908620846006A0121090461
:1021500088433949086208460562E807C00F00282D
:1021600011D0FFF797F8064607E0FFF793F8801BBA
:102170003349884201D90320C7E72F48006A02216A
:1021800008400028F1D02C48006A03210902884346
:102190006168084328490862012F05D10846C069D3
:1021A000090488432449C86100BF2078C007C00FD4
:1021B000002807D02048006B80088000A1680843F1
:1021C0001D490863022120680840022808D11A48E6
:1021D000006B032109048843E1680843164908633A
:1021E000202120680840202807D11348006B1021C7
:1021F0008843216908431049086301214904206884
:102200000840884207D10C48006B80218843A169AF
:10221000084309490863012189022068084088426F
:1022200007D10548006B4021884361690843024992
:102230000863002069E700000010024000700040C1
:102240008813000070B504460D46002C01D1012012
:1022500070BD58480068C007C00FA8420ED255484C
:10226000006840084000284352490860084600685A
:10227000C007C00FA84201D00120E9E70221206871
:102280000840022814D1042120680840042807D1FE
:102290004948406807210902884340184649486078
:1022A00045484068F0218843A16808434249486096
:1022B0002078C007C00F002847D06068012808D1E7
:1022C0003D480068012149040840002821D101202F
:1022D000BEE76068022808D1374800680121490636
:1022E0000840002815D10120B2E76068032808D112
:1022F0003148406B012109040840002809D1012020
:10230000A6E72D48006802210840002801D10120DD
:102310009EE7294840688008800061680843264994
:102320004860FEF7B7FF064607E0FEF7B3FF801BE5
:102330002249884201D903208AE71F4840680C21BE
:102340000840616889008842EFD11A480068C007D8
:10235000C00FA8420ED91748006840084000284323
:102360001449086008460068C007C00FA84201D0A1
:1023700001206DE7042120680840042808D10E4898
:102380004068072109028843E16808430A49486018
:1023900000F032F808494968F02211400909084A5A
:1023A000515CC840074908600020FEF795FF0020F7
:1023B0004EE7000000200240001002408813000099
:1023C000BCE5000858010020014800687047000083
:1023D0005801002000B5FFF7F7FF054949680722BB
:1023E00012021140090A034A515CC84000BD0000B6
:1023F00000100240CCE50008F0B589B035A00146D8
:102400000EC9C06805AC0EC4089036A001460EC9BE
:10241000C06801AC0EC404900025002400270026EB
:1024200000200090334845680C202840002849D0FF
:10243000042804D0082805D00C2842D13EE02E48BC
:10244000009042E00F2080042840800C05A90E5C1B
:102450002848C06A0007000F01A90C5C0320C003D4
:1024600028400121090488420AD12246002322483B
:102470001946FDF767FE314606F0E1FA07461BE014
:102480000320C00328400321C90388420AD1224601
:1024900000231A481946FDF755FE314606F0CFFADB
:1024A000074609E02246002313481946FDF74AFE75
:1024B000314606F0C4FA0746009706E00F48009040
:1024C00003E000BF0C48009000BF00BF009809B0B7
:1024D000F0BD000002030405060708090A0B0C0DF5
:1024E0000E0F10100102030405060708090A0B0C61
:1024F0000D0E0F100010024000127A00006CDC027A
:10250000FEB50446002C01D10120FEBD2078C00795
:10251000C00F002872D0FC4840680C2108400428F5
:102520000CD0F94840680840082813D1F6484068A4
:10253000490308400121090488420BD1F248006890
:1025400001214904084000286BD06068002868D148
:102550000120DAE700BF6068012807D1EA48006877
:10256000012109040843E849086031E06068002857
:102570000ED1E5480068012109048843E24908605A
:1025800008460068012189048843DF4908601FE08C
:10259000606805280ED1DC480068012189040843E1
:1025A000D949086008460068012109040843D64952
:1025B00008600DE0D4480068012109048843D2492D
:1025C000086008460068012189048843CE490860F4
:1025D00000BF6068002812D0FEF75CFE054606E0EA
:1025E000FEF758FE401B642801D903208DE7C6483A
:1025F00000680121490408400028F1D011E0FEF7ED
:1026000049FE054606E0FEF745FE401B642801D959
:1026100003207AE7BC4800680121490408400028EB
:10262000F1D1022120680840022862D1B6484068F2
:102630000C21084000280CD0B34840680840082806
:102640001CD1B1484068490308400121C9038842B0
:1026500014D1AD48006802210840002804D0E06889
:10266000012801D0012050E7A7480068F8218843DD
:102670002169C9000843A44908603AE0E0680028DD
:1026800020D0A1480068012108439F490860FEF757
:1026900001FE054606E0FEF7FDFD401B022801D9BC
:1026A000032032E798480068022108400028F2D051
:1026B00095480068F82188432169C9000843924978
:1026C000086016E090480068400840008E490860A5
:1026D000FEF7E0FD054606E0FEF7DCFD401B0228A4
:1026E00001D9032011E7884800680221084000282A
:1026F000F2D1082120680840082831D1E06900287B
:1027000017D08148406A012108437F494862FEF79B
:10271000C1FD054606E0FEF7BDFD401B022801D9BC
:102720000320F2E67848406A022108400028F2D0EF
:1027300016E07548406A4008400073494862FEF759
:10274000A9FD054606E0FEF7A5FD401B022801D9BC
:102750000320DAE66C48406A022108400028F2D1E2
:10276000042120680840042872D1002001906648A6
:10277000C0698906084000280ED100BF6248C069C0
:1027800008436149C8610846C069090408400090CF
:1027900000BF00BF012001905C480068FF210131AB
:1027A0000840002816D15948006808435749086076
:1027B000FEF770FD054606E0FEF76CFD401B642841
:1027C00001D90320A1E651480068FF2101310840EA
:1027D0000028F1D000BFA068012806D14A48006A4D
:1027E00001210843484908622AE0A06800280BD16B
:1027F0004548006A4108490043480162006A0421D3
:102800008843414908621BE0A06805280CD13E4876
:10281000006A042108433C4908620846006A012115
:102820000843394908620BE03748006A4008400015
:10283000354908620846006A042188433249086223
:1028400000BFA068002813D0FEF724FD054608E06D
:102850002BE0FEF71FFD401B2D49884201D90320C4
:1028600053E62948006A022108400028F1D011E00F
:10287000FEF710FD054607E0FEF70CFD411B24485E
:10288000814201D9032040E61F48006A0221084026
:102890000028F1D10198012806D11B48C069012107
:1028A000090788431849C86100BF10212068084003
:1028B00010285FD1606901282CD11348406B042196
:1028C0000843114948630846406B012108430E49FB
:1028D0004863FEF7DFFC054606E0FEF7DBFC401B25
:1028E000022801D9032010E60748406B0221084066
:1028F0000028F2D00448406BF8218843A169C90040
:1029000008430149486335E0001002400070004070
:10291000881300006069401D00280FD18648406B75
:1029200004218843844948630846406BF821884362
:10293000A169C9000843804948631BE07E48406B99
:10294000042108437C4948630846406B4008400026
:102950004863FEF79FFC054606E0FEF79BFC401B24
:10296000022801D90320D0E57348406B02210840BA
:102970000028F2D1202120680840202852D16E483A
:1029800040680C2108400C280AD06B484068084079
:10299000082811D1684840684903084088420BD193
:1029A0006548406B01210904084000283AD0206A9C
:1029B000012837D00120A8E5206A002819D05E48F8
:1029C000406B0121090408435B494863FEF762FC40
:1029D000054606E0FEF75EFC401B022801D90320F5
:1029E00093E55548406B0121090408400028F1D0C7
:1029F00018E05148406B0121090488434E4948635F
:102A0000FEF748FC054606E0FEF744FC401B0228A2
:102A100001D9032079E54848406B012109040840A9
:102A20000028F1D1606A00284FD0434840680C214B
:102A30000840082864D0606A022847D13E480068F0
:102A40000121090688433C490860FEF723FC05463E
:102A500006E0FEF71FFC401B022801D9032054E5C5
:102A6000354800680121490608400028F1D100BF1F
:102A70003148C06A00090001216B08432E49C86231
:102A8000A16AE06A08432C4949687B22D20391433A
:102A900008432949486000BF08460068012109062B
:102AA000084325490860FEF7F5FB054606E0FEF7FA
:102AB000F1FB401B022801D9032026E51E480068CF
:102AC0000121490608400028F1D033E01A48006887
:102AD00001210906884318490860FEF7DBFB05461B
:102AE00006E0FEF7D7FB401B022801D903200CE5C6
:102AF000114800680121490608400028F1D119E079
:102B0000606A012800D100E50B484668C76A0320C7
:102B1000C0033040A16A88420AD13907090F206BEF
:102B2000814205D10F2080043040E16A884201D003
:102B30000120EAE40020E8E400100240F0B5064677
:102B40000C46174600253068406812490840054683
:102B5000FF2000042840000CE0701F2000022840E5
:102B6000000A6070A806800EA0700720400328406D
:102B7000400B2070002F0BD1E07802F08CFAE0704F
:102B8000607802F088FA6070A07802F084FAA07091
:102B90000020F0BD3FFFFF00F0B505460C4617468C
:102BA00000262868806A6060286800694004400C3C
:102BB000A060286800681249084006463F200004CB
:102BC0003040000C20707F2000023040000A60700E
:102BD0007006400EA070012080053040000CE070AF
:102BE000002F0BD1207802F056FA2070607802F0A6
:102BF00052FA6070A07802F04EFAA0700020F0BD8A
:102C00007F7F7F0010B50446002C01D1012010BD4C
:102C1000607F002803D12077204600F065F802206D
:102C2000607700BFCA20216848625320216848624B
:102C300000BF204602F049FA002808D000BFFF205C
:102C40002168486200BF042060770120DFE7206828
:102C500080682449084021688860216960680843C9
:102C60006169084321688968084321688860216890
:102C7000E068086120680069218909040843216827
:102C800008612068C068802188432168C860206886
:102C900080682021084000280DD1204600F058F916
:102CA000002808D000BFFF202168486200BF042030
:102CB00060770120ABE72068006C0121890488431C
:102CC000216808642068006CA169084321680864D1
:102CD00000BFFF202168486200BF0120607700200C
:102CE00095E70000BFFF8FFF054A0168914205D1BB
:102CF0000449096AD2131143024A11627047000065
:102D00000028004000100240F8B504460D46164663
:102D1000002700BF207F012801D10220F8BD01203B
:102D2000207700BF02206077002E09D1687810213B
:102D30000840102804D16878EF2108400A306870F4
:102D4000002E11D1E87802F0B3F90304687802F09C
:102D5000AFF900020343A87802F0AAF903432878E8
:102D6000400303431F460AE0E8780004697809023B
:102D70000843A9780843297849030843074600BF58
:102D8000CA202168486253202168486200BF20465B
:102D900002F09BF900280CD000BFFF202168486298
:102DA00000BF0420607700BF0020207700BF012013
:102DB000B4E717483840216848602068C06880211F
:102DC00088432168C8602068806820210840002866
:102DD00011D1204600F0BCF800280CD000BFFF2025
:102DE0002168486200BF0420607700BF0020207780
:102DF00000BF012092E700BFFF202168486200BFAA
:102E00000120607700BF0020207700BF00BF85E76A
:102E10003FFFFF00F8B504460D461646002700BFE9
:102E2000207F012801D10220F8BD0120207700BFBA
:102E300002206077002E1BD1206880684021084066
:102E4000002800D002E00020E87000BF287802F0DF
:102E50002FF90304687802F02BF900020343A878E5
:102E600002F026F90343E878000403431F4614E008
:102E70002068806840210840002800D002E000203F
:102E8000E87000BF28780004697809020843A9782F
:102E90000843E97809040843074600BFCA202168AF
:102EA000486253202168486200BF204602F00DF9B5
:102EB00000280CD000BFFF202168486200BF04201A
:102EC000607700BF0020207700BF0120ACE71F48DB
:102ED000384021680860206880680121890488439F
:102EE000216888602969E86808432168896808437F
:102EF000216888602068C068802188432168C86094
:102F00002068806820210840002811D1204600F068
:102F10001FF800280CD000BFFF202168486200BFC6
:102F20000420607700BF0020207700BF01207BE7EE
:102F300000BFFF202168486200BF0120607700BF0A
:102F40000020207700BF00BF6EE700007F7F7F007A
:102F500070B5044600252068C068A0218843216818
:102F6000C860FEF797F9054608E0FEF793F9401BA5
:102F70007D21C900884201D9032070BD2068C06846
:102F8000202108400028F0D00020F6E7704700001C
:102F9000F8B50446206846682068856840202840C7
:102FA000800900280FD1E807C00F012148404840A0
:102FB000002808D0402030408009002803D0204657
:102FC000E16C8847F8BD022028404008002808D05E
:102FD00080203040C009002803D02046216D88475A
:102FE000F0E720202840400900280AD1402028404E
:102FF0008009002805D1FF2001302840000A002860
:103000007ED02020304040090028F9D040202840C0
:10301000800900281ED05D20005D03280ED0206EA0
:1030200004210843206600BF002000902068C0688B
:10303000009020688068009000BF0BE000BF002077
:1030400000902068C068009020688068009000BFF1
:1030500000BFB7E7202028404009002811D0206E8B
:1030600001210843206600BF00200090206880688E
:10307000009020680068402188432168086000BFF4
:1030800000BFFF2001302840000A00280BD0206E2E
:1030900008210843206600BF002000902068806857
:1030A000009000BF00BF206E00283AD02068406822
:1030B000E02188432168486001215D2001550220FC
:1030C0003040022803D0F007C00F002826D0206827
:1030D00040688008800021684860A06D00280BD0FF
:1030E0001148A16D4863A06DFDF739FF002803D09A
:1030F000206E402108432066606D002811D000E05A
:1031000010E00948616D4863606DFDF728FF0028F5
:1031100007D0206E40210843206602E02046FFF7DA
:1031200035FF4FE700BF4DE78958000870B50446EA
:10313000002C01D1012070BD606A002808D1FF2158
:1031400005316068884200D105E00021E16102E0BC
:103150000021216161610021A1625D20005D0028E4
:1031600004D15C200155204600F066F802215D2064
:1031700001552068006840218843216808600721C4
:103180000902E068884201D9002501E001252D03EC
:103190000F210902E068884206D007210902E06891
:1031A000884201D00021A162FF21053160680840FA
:1031B00021229202A1681140084302222169114094
:1031C0000843217DC907C90F08431202A1691140B4
:1031D00008433822E169114008438022216A1140E6
:1031E00008439201A16A1140084321680860A06960
:1031F000000C042108401022616A11400843082293
:10320000616B114008430F221202E168114008432C
:103210000121090329400843216848602068C069EA
:103220000121C90288432168C8610020206601216C
:103230005D20015500207EE710B586B004461421BC
:1032400001A8FCF7E7FF48492068884234D100BF55
:103250004648806989140843444988610846806962
:1032600089140840009000BF00BF00BF3F4840697C
:10327000490108433D494861084640690121490424
:103280000840009000BF00BFE020019002200290A3
:1032900000200390032004900020059001A909203C
:1032A000C006FDF7E1FE002201211920FEF76CF8AF
:1032B0001920FEF75BF855E02D492068884251D16E
:1032C00000BF2A48C069091408432849C861084654
:1032D000C069012189030840009000BF00BF00BF02
:1032E000224840694901084320494861084640692D
:1032F0000121C9040840009000BF00BF00BF1B4867
:10330000406949100843194948610846406901214C
:1033100089040840009000BF00BF0C2001900220EB
:10332000029000200390032004900120059001A941
:103330001048FDF799FE01208002019002200290C2
:1033400000200390032004900520059001A90A485D
:10335000FDF78AFE002201211A20FEF715F81A2037
:10336000FEF704F806B010BD003001400010024026
:10337000003800400008004800040048FFB583B052
:10338000044616461D4600200290FF210531606864
:1033900088420ED1A06800280BD104215D20015580
:1033A00033460095049A1146204600F0B2F907B062
:1033B000F0BD00BF5C20005D012801D10220F6E7CE
:1033C00001215C20015500BFFDF764FF07465D2029
:1033D000005D012802D002200290AAE00498002893
:1033E00001D0002E02D101200290A2E004215D2034
:1033F000015500202066049820644420065346208E
:1034000006530020A063A087E087E06420650721C1
:103410000902E068884207D9206840680121090351
:1034200088432168486006E020684068012109035C
:103430000843216848600121C903A06888420CD173
:10344000206800684021884321680860206800687F
:1034500001218903884321680860206800684021B1
:103460000840402804D020680068084321680860AC
:1034700007210902E068884226D820E02068806899
:10348000C007C00F00280DD02068007B216C087099
:10349000206C401C20644620005B401E81B2462008
:1034A00001530CE0FDF7F6FEC01BA84202D3681CD6
:1034B000002801D1002D02D10320029039E04620DE
:1034C000005B0028DAD125E020E020688068C00792
:1034D000C00F00280DD02068C068216C0880206CC7
:1034E000801C20644620005B401E81B246200153B0
:1034F0000CE0FDF7CFFEC01BA84202D3681C0028D9
:1035000001D1002D02D10320029012E04620005B81
:103510000028DAD13A462946204602F0C1F90028AF
:1035200001D020202066206E002801D001200290CA
:1035300000BF01215D20015500BF00215C20015525
:1035400000BF029833E7FFB583B0044616461D4618
:103550000020029000BF5C20005D012802D1022003
:1035600007B0F0BD01215C20015500BFFDF792FEC0
:10357000074601965D20005D012802D002200290DE
:10358000BDE00498002801D0002E02D10120029055
:10359000B5E003215D200155002020660498A0635A
:1035A000A687E6870020206400214420015346209E
:1035B000015300202065E0640121C903A06888420E
:1035C0000CD1206800684021884321680860206889
:1035D00000680121890308432168086020680068A9
:1035E00040210840402804D0206800680843216832
:1035F000086007210902E068884232D96068002823
:1036000002D00198012809D1A06B00882168C86008
:10361000A06B801CA063E08F401EE0871DE0206847
:1036200080680221084002280AD1A06B0088216826
:10363000C860A06B801CA063E08F401EE0870CE098
:10364000FDF728FEC01BA84202D3681C002801D148
:10365000002D02D10320029051E0E08F0028DED13E
:1036600031E06068002802D00198012809D1A06BE0
:10367000007821680873A06B401CA063E08F401E97
:10368000E0871DE0206880680221084002280AD1F6
:10369000A06B007821680873A06B401CA063E08FCA
:1036A000401EE0870CE0FDF7F5FDC01BA84202D3E9
:1036B000681C002801D1002D02D1032002901EE0D9
:1036C000E08F0028DED13A462946204602F02FF945
:1036D000002801D020202066A068002809D100BF62
:1036E00000902068C068009020688068009000BF4B
:1036F00000BF206E002801D00120029000BF0121F0
:103700005D20015500BF00215C20015500BF0298DB
:1037100026E7FFB585B004461D460E9E01200190A8
:103720000020009000BF5C20005D012802D1022033
:1037300009B0F0BD01215C20015500BFFDF7AAFDD5
:1037400007465D20005D0290606803900495029832
:1037500001280DD0FF2105310398884205D1A068CA
:10376000002802D10298042802D002200090FBE039
:103770000698002804D00798002801D0002D02D117
:1037800001200090F0E05D20005D042802D00521BA
:103790005D200155002020660798206446200553CF
:1037A000442005530698A063E587A5870020E064C0
:1037B000206507210902E068884207D9206840682F
:1037C0000121090388432168486006E020684068B9
:1037D00001210903084321684860206800684021EE
:1037E0000840402804D02068006808432168086029
:1037F00007210902E068884254D96068002802D095
:103800000498012809D1A06B00882168C860A06BCA
:10381000801CA063E08F401EE0873BE0206880684A
:1038200002210840022811D1E08F00280ED0019813
:1038300001280BD1A06B00882168C860A06B801C98
:10384000A063E08F401EE087002001902068806820
:10385000C007C00F002812D04620005B00280ED001
:103860002068C068216C0880206C801C2064462081
:10387000005B401E81B24620015301200190FDF7FC
:1038800009FDC01BB04205D3701C002802D00320E4
:10389000009069E0E08F0028C0D14620005B00283E
:1038A000BCD155E06068002802D00498012809D1F5
:1038B000A06B007821680873A06B401CA063E08FA8
:1038C000401EE0873DE02068806802210840022811
:1038D00011D1E08F00280ED0019801280BD1A06BE8
:1038E000007821680873A06B401CA063E08F401E25
:1038F000E0870020019020688068C007C00F002882
:1039000012D04620005B00280ED02068007B216C7E
:103910000870206C401C20644620005B401E81B271
:103920004620015301200190FDF7B4FCC01BB042BA
:1039300002D3701C002801D1002E02D10320009078
:1039400012E0E08F0028BED14620005B0028BAD1EB
:103950003A463146204601F0EAFF002803D0012014
:1039600000902020206600BF01215D20015500BF8E
:1039700000215C20015500BF0098D9E610B5CF4862
:103980000088401C00B2CD490880CD48007800284E
:103990000CD0CB480078401E40B2C94908700028BE
:1039A00004DC01225102C748FDF76DFCC6480068DF
:1039B000002810D0C4480068401EC3490860002891
:1039C00009DC01221102C148FDF75DFC0122510210
:1039D000BE48FDF758FCBE48007800287ED0BD48A0
:1039E000008800287BD0BB480088401E00B2B9493F
:1039F0000880002878DC00200880B748008801286B
:103A000034D10020B5490870B5480088012823D179
:103A1000B448007800281BD001218902A948FDF78D
:103A20001FFC00284CD0B048A749086001221102B1
:103A3000A648FDF728FC002201214902A348FDF712
:103A400022FC0220A94908700120A949087037E02A
:103A50000120A849087033E0002208210920C0068F
:103A6000FDF711FC0120A449087029E000209D49C0
:103A700008709B480088012822D1984800780028C7
:103A80001BD00121C9030920C006FDF7E9FB00286E
:103A900016D095488C4908600022FF2101318B48DF
:103AA000FDF7F1FB012251028848FDF7ECFB0120F4
:103AB0008E4908708E49087002E001208F49087015
:103AC00002208F4908708F48008800280CD18E484A
:103AD0000088002808D18D48008801E0EDE003E06F
:103AE000002801D17A4908708648008800287DD0D6
:103AF00084480088401E00B282490880002875DC96
:103B00000020088074480088012846D17349087055
:103B100000207B49087072480088012819D1810271
:103B20006848FDF79DFB00283AD16F486649086058
:103B30000022FF2101316548FDF7A5FB012251025A
:103B40006248FDF7A0FB01206849087068490870C9
:103B500026E0012189025B48FDF782FB002812D193
:103B60006148594908600022FF2101315748FDF79B
:103B70008AFB012251025548FDF785FB01205B4974
:103B800008705B490870012208210920C006FDF772
:103B90007AFB00205849087002E001205149087062
:103BA00057480078032823D10020554908704C4815
:103BB000008801281CD1C1030920C006FDF750FB75
:103BC000002815D1484840490860012211023F48A9
:103BD000FDF759FB0022012149023C48FDF753FB48
:103BE0000220424908700120414900E00EE00870BF
:103BF00038480088002809D143480088002805D1AA
:103C000042480088002801D1314908703E480088A8
:103C1000002825D03C480088401E00B23A49088060
:103C200000281DDC002008802B480088012803D1D3
:103C300000202A49087002E000202A490870062066
:103C40002F49087023480088002809D12D48008892
:103C5000002805D12D480088002801D11C49087092
:103C60002A480088002828D028480088401E00B232
:103C700026490880002820DC00200880164800889B
:103C8000012802D11549087002E001201549087089
:103C90001B480078072802D10020194908700D48F8
:103CA0000088002809D117480088002805D1164847
:103CB0000088002801D10649087010BDC40000200A
:103CC000C600002000080048C8000020000400488A
:103CD000980000208800002060000020BC00002028
:103CE0006C000020BD00002088130000BE000020F2
:103CF000BF000020C1000020C2000020C000002042
:103D0000380000208A000020940000209600002047
:103D100070B504462546681E0949884201D901202C
:103D20000CE0681E074948610321081F04F0AEFE3D
:103D300000200449886107200861002070BD000050
:103D4000FFFFFF0000E000E010B5FFF717FE10BD19
:103D50007047704730B502460B4600BF3C20805C80
:103D6000012801D1022030BD01253C20855400BF2F
:103D700002253D20855410684468106881687025CC
:103D80002046A84304461868044310684460114D57
:103D90001068A8420CD00125AD071068A84207D0D2
:103DA0000D4D1068A84203D00C4D1068A84207D1F1
:103DB00080250846A8430146586801431068816081
:103DC00001253D20855400BF00253C20855400BFBF
:103DD0000020C8E7002C01400004004000400140E2
:103DE00010B50446002C01D1012010BD3D20005D1E
:103DF000002805D100213C200155204600F022F882
:103E000002213D200155211D206801F00FFF0121F5
:103E10004620015500BF3E2001553F20015540205E
:103E200001554120015500BF00BF422001554320EC
:103E30000155442001554520015500BF3D20015545
:103E40000020D2E738B504460D492068884215D1D4
:103E500000BF0C48C069202108430A49C8610846D0
:103E6000C06920210840009000BF00BF002203214C
:103E70001220FDF789FA1220FDF778FA38BD00000C
:103E8000001400400010024001463D20405C012823
:103E900001D00120704702233D2043540868C068C8
:103EA000012318430B68D860124B086898420CD065
:103EB00001239B070868984207D00F4B0868984277
:103EC00003D00E4B086898420CD1086880684207FE
:103ED000520F062A0CD008680068012318430B68AB
:103EE000186005E008680068012318430B68186033
:103EF0000020CFE7002C01400004004000400140BA
:103F0000704710B504462068006902210840400847
:103F100000281CD02068C06808404008002816D03F
:103F2000481F216808610120207720688069800788
:103F3000800F002803D02046FFF7E2FF05E020466F
:103F400000F0C3F8204600F0C1F800202077206878
:103F5000006904210840800800281DD02068C0683E
:103F600008408008002817D0C84321680861022053
:103F7000207720688069032109020840002803D0C7
:103F80002046FFF7BDFF05E0204600F09EF82046E2
:103F900000F09CF800202077206800690821084084
:103FA000C00800281CD02068C0680840C00800284D
:103FB00016D0C84321680861042020772068C069B2
:103FC0008007800F002803D02046FFF799FF05E007
:103FD000204600F07AF8204600F078F8002020779C
:103FE0002068006910210840000900281DD02068C1
:103FF000C06808400009002817D0C843216808613C
:10400000082020772068C0690321090208400028A1
:1040100003D02046FFF774FF05E0204600F055F876
:10402000204600F053F80020207720680069C00780
:10403000C00F01214840484000280CD02068C068CB
:10404000084048404840002805D0C81E2168086143
:10405000204600F03DF82068006980210840C00932
:1040600000280BD02068C0680840C009002805D08F
:10407000C843216808612046FFF76AFE206800698E
:1040800040210840800900280BD02068C068084003
:104090008009002805D0C84321680861204600F047
:1040A00065F82068006920210840400900280BD0ED
:1040B0002068C06808404009002805D0C84321682E
:1040C00008612046FFF745FE10BD704770470000AD
:1040D00010B504461B492068884231D11A4800783F
:1040E00000281CD018480078401E40B216490870BD
:1040F000002814DC00200870144908701449087066
:10410000144908701449087006F004FC002806D011
:10411000FCF708FD802211491148FCF761FD1148A8
:10412000007800280CD00F480078401E40B20D499E
:104130000870002804DC0020087001200A4908707B
:1041400010BD000000140040D00000203A00002004
:104150003B0000203C0000200000002098020020CE
:1041600000F801089E0000209F0000207047704763
:1041700070477047FEB504462068C5692068066828
:1041800020688768BB4828400290029800280ED11A
:104190002020284000280AD020203040002806D0C7
:1041A000606E002802D02046616E8847FEBD0298EE
:1041B00000287DD0F807C00F002803D1AE4830405A
:1041C0000028F6D0E807C00F00280DD0FF200130EE
:1041D0003040002808D00120216808628020005962
:1041E00001210843802108510220284000280CD0DA
:1041F000F807C00F002808D002202168086280203C
:104200000059042108438021085104202840002837
:104210000CD0F807C00F002808D0042021680862DD
:10422000802000590221084380210851082028409D
:10423000002810D020203040002803D1F807C00FFC
:10424000002808D008202168086280200059082131
:104250000843802108510120C002284000280ED0C8
:10426000012080063040002809D00120C0022168CA
:1042700008628020005920210843802108518020B5
:104280000059002848D020202840002809D02020AC
:104290003040002805D0606E002802D02046616EB4
:1042A000884780200059019020688068402100E004
:1042B00033E00840402804D0282101980840002815
:1042C00024D0204601F0C8FD2068806840210840C5
:1042D000402817D120688068884321688860206F53
:1042E00000280BD06548216F4863206FFCF737FE2C
:1042F000002811D0206F416B88470DE02046FFF762
:1043000038FF09E02046FFF734FF05E02046FFF7BD
:1043100030FF00218020015148E7206E01287AD12A
:1043200010202840002876D010203040002872D07D
:1043300010202168086220688068402108404028D9
:104340003DD1206F0068406880B20090009800283E
:1043500034D05820015B009881422FDD5A2100980B
:104360000853206F806920281FD020680068FF2133
:104370000131884321680860206880684008400057
:1043800021688860206880684021884321688860AF
:104390002020E06700202066206800681021884304
:1043A00021680860206FFCF7B1FD5820025B5A209D
:1043B000005B101A81B22046FFF7D9FEF6E65820BE
:1043C000015B5A20005B081A80B200905A20005B03
:1043D00000281ED0009800281BD020680068FF210C
:1043E00021318843216808602068806840084000C7
:1043F000216888602020E0670020206660662068D1
:104400000068102188432168086020460099FFF762
:10441000AEFECBE6FFE701200005284000280CD0C7
:10442000012080053840002807D0012000052168C0
:1044300008622046FFF79CFEB8E68020284000284E
:104440000AD080203040002806D0A06E002802D07C
:104450002046A16E8847A9E640202840002807D0C2
:1044600040203040002803D0204601F011FD9DE699
:1044700000BF9BE60F08000020010004415E000819
:1044800010B50446002C01D1012010BDA069002800
:1044900000D000E000BFA06F002805D100217420EB
:1044A0000155204600F02CF82420A0672068006801
:1044B0004008400021680860204601F0F9FC01280E
:1044C00000D1E2E7606A002802D0204601F006FC35
:1044D000206840680921C902884321684860206833
:1044E00080682A218843216888602068006801214B
:1044F000084321680860204601F068FCC5E7000019
:1045000010B586B00446142101A8FBF783FE1E49AE
:104510002068884236D100BF1C4880690121890388
:1045200008431A49886108468069012189030840C7
:10453000009000BF00BF00BF14484069C900084395
:104540001249486108464069012149040840009029
:1045500000BF00BF03204002019002200290002013
:104560000390032004900120059001A90920C006B2
:10457000FCF77AFD002202211B20FCF705FF1B201F
:10458000FCF7F4FE06B010BD0038014000100240F8
:10459000704700BFFEE7000070B504468C4B002258
:1045A00011462046FCF710FA8A4B70220021204663
:1045B000FCF70AFA884B082200212046FCF704FA8F
:1045C000864B302200212046FCF7FEF9B923312228
:1045D00000212046FCF7F8F9814B322200212046C9
:1045E000FCF7F2F98723332200212046FCF7ECF98F
:1045F0007C4B342200212046FCF7E6F97A4B352229
:1046000000212046FCF7E0F9784B362200212046B5
:10461000FCF7DAF9764B3B2200212046FCF7D4F96F
:1046200000233B2201212046FCF7CEF96B4B4022B0
:1046300000212046FCF7C8F96E4B47220021204696
:10464000FCF7C2F90023482219462046FCF7BCF9C2
:10465000684B492200212046FCF7B6F900234A2284
:1046600019462046FCF7B0F9624B4B220021204648
:10467000FCF7AAF900234C2219462046FCF7A4F9BE
:104680000023412219462046FCF79EF900234222CE
:1046900019462046FCF798F9002343221946204684
:1046A000FCF792F90023442219462046FCF78CF9C6
:1046B0000023452219462046FCF786F900234622AE
:1046C00019462046FCF780F94B4B4D22002120462D
:1046D000FCF77AF900234D2201212046FCF774F9FA
:1046E0003E4B602200212046FCF76EF9434B6122CD
:1046F00000212046FCF768F9414B62220021204648
:10470000FCF762F90023632219462046FCF75CF9A6
:104710000023642219462046FCF756F9374B6522E0
:1047200000212046FCF750F9354B66220021204637
:10473000FCF74AF90023672219462046FCF744F9A2
:104740000023682219462046FCF73EF92B4B6922CC
:1047500000212046FCF738F9294B6A220021204627
:10476000FCF732F900236B2219462046FCF72CF99E
:1047700000236C2219462046FCF726F9214B6F22B4
:1047800000212046FCF720F900236F22012120465A
:10479000FCF71AF91C4B302200212046FCF714F9D3
:1047A000194B402200212046FCF70EF9164B6022DF
:1047B00000212046FCF708F911239B020722002163
:1047C0002046FCF701F92046FCF7E8FA054670BDE3
:1047D000FFFF00009A7800002F1F000078560000AD
:1047E000F3C1000055550000BD080000EC0A0000B0
:1047F000595F0000391D000002240000E9D80000C4
:10480000C91B000094A600006587000030B50B4668
:10481000002100BF12E0040F0A2C04D2040F303430
:104820004D005C5503E0040F37344D005C5500012A
:1048300000254C00641C1D554C1CE1B29142EADB82
:1048400030BD000010B50A480A4908600020087110
:1048500000210848417141618161012005490862D8
:104860000846FCF7F5FA002801D0FCF757F910BD0F
:10487000003002402003002000B587B0142102A8B8
:10488000FBF7C8FC00BF684840690121C904084320
:1048900065494861084640690121C9040840019002
:1048A00000BF00BF00BF60484069C90008435E49BF
:1048B000486108464069012189050840019000BF10
:1048C00000BF00BF58484069491108435649486134
:1048D00008464069012149040840019000BF00BF1B
:1048E00000BF51484069490008434F4948610846A4
:1048F0004069012189040840019000BF00BF00BF4A
:104900004948406989000843474948610846406969
:10491000012109050840019000BF00BF0122C91113
:104920004248FCF7B0FC0022FF2118310920C006E4
:10493000FCF7A9FC012208210920C006FCF7A3FC12
:1049400000223F2109013948FCF79DFC002238492B
:104950003848FCF798FC0122032109023548FCF78E
:1049600092FC3548029001200390002004900590AD
:1049700002A92E48FCF778FB032002902F480390F1
:104980000020049002A92948FCF76EFBFF2020308C
:1049900002900120039000200490059002A90920B4
:1049A000C006FCF761FB264802900120039000201E
:1049B0000490059002A91F48FCF756FB0120C00394
:1049C0000290002003900120049002A90920C00653
:1049D000FCF74AFB07208002029000200390012090
:1049E000049002A91148FCF73FFB0420029000202C
:1049F00003900120049002A91248FCF735FBF8202F
:104A00000290002003900120049002A90948FCF7BD
:104A10002BFB002202210520FCF7B6FC0520FCF749
:104A2000A5FC07B000BD00000010024000080048CF
:104A300007F8000000040048F023000000001110F7
:104A400007FB0000000C004800B587B0142102A845
:104A5000FBF7E0FB002001901B481C490860002088
:104A600048607F2119488160FF21C16000210161F8
:104A700041618161FEF7C6F8002801D0FCF74EF8CD
:104A800000216846017241728172002005900690F3
:104A9000012202A90D48FEF7BDF9002801D0FCF75C
:104AA0003DF8012168460171417181710021C17198
:104AB000012201A90548FEF727F9002801D0FCF7DB
:104AC0002DF807B000BD000000280040440300207E
:104AD00010B5124812490860FF20053048600021D7
:104AE0000F48816007210902C16000210161416115
:104AF0000121490281611021C161002101624162ED
:104B000081620721C162002101634163FEF70EFB50
:104B1000002801D0FCF702F810BD00000030014071
:104B20006403002010B5124812490860FF200530C8
:104B3000486000210F48816007210902C1600021FF
:104B4000016141610121490281612821C161002186
:104B50000162416281620721C162002101634163F8
:104B6000FEF7E4FA002801D0FBF7D8FF10BD0000E3
:104B700000380040C80300201CB5002000900190C0
:104B80000E480F4908600F48486000210C488160BA
:104B90000D49C16080218161FFF722F9002801D011
:104BA000FBF7BCFF00200090019069460448FFF726
:104BB000D1F8002801D0FBF7B1FF1CBD0014004064
:104BC0002C040020ED020000FFF9000010B50E4893
:104BD0000E4908604B20C001486000210B488160ED
:104BE000C16001610C21416100218161C1610162EB
:104BF0000020064948620846FFF742FC002801D021
:104C0000FBF78CFF10BD0000003801407404002049
:104C100010B500220F49104801F0ABFF002801D069
:104C2000FBF77CFF0D490C4802F0B9FA002801D0CF
:104C3000FBF774FF0A49084801F0FFFB002801D088
:104C4000FBF76CFF044802F091FB002801D0FBF752
:104C500065FF10BDEC000020F80400206C0100206E
:104C60003C01002000BFFEE7F0B585B00546FEE13F
:104C7000286840308088039003980607360F002E7E
:104C800070D1102103980840002836D100BF296850
:104C90000988FB4A114008460121C90301432A68DB
:104CA000118000BF2C46283428684030008A2178C3
:104CB000C9004018801C0122920229688918405AB4
:104CC0008005800DE061E169606940186061002144
:104CD0002846FCF79EFB2420405D0028C7D0A06931
:104CE0000028C4D12420405D802108432968403138
:104CF0008881002124204155B9E12C46FF346934D4
:104D00002868008802900121C90202980840002802
:104D100029D028684030008A2178C9004018801DB9
:104D20000122920229688918405A8005800DE061AD
:104D3000A08B83B2E288286800902B2000012918FC
:104D4000009803F0F1FD00BF29680988CD4A1140A1
:104D50000846802101432A68118000BF2846FDF7DC
:104D600055F984E185E00121C90302980840002833
:104D7000C2D000BF29680988C24A11400846802174
:104D800001432A68118000BF28684030008A2178DA
:104D9000C9004018801D0122920229688918405AD2
:104DA0008005800DE061E069002812D0606900286C
:104DB0000FD0A08B83B2E28861692868009003F06D
:104DC000B3FDE16960694018606100212846FCF785
:104DD00031FB00BF29680091296840310A8A009997
:104DE000511800910122920200998918891D0846E4
:104DF00000BF2269002A09D10288A34B1A40028011
:104E000002880123DB031A4302801EE022693E2A46
:104E10000CD800BF22695108227CD207D20F002A89
:104E200000D0491C8A06120C02800EE000BF2269E5
:104E30005109227CD206D20E002A00D1491E8A02D4
:104E40000123DB031A43028000BF00BF00BF00BF85
:104E5000296809888D4A1140084601210903484004
:104E60004900484089000143802211432A6811808B
:104E7000FDE0B1002868405A02900121C903029860
:104E8000084000287ED000BFB2002968895A7D4AB8
:104E90001140084680210143B3002A68D15200BF67
:104EA000282070432946FF3169314418207B0028AF
:104EB00017D128684030008A2178C9004018801D29
:104EC0000122920229688918405A8705BF0D002FD8
:104ED00060D0E288616928683B46009003F024FDB9
:104EE00058E0E078022806D121462846029AFCF7CD
:104EF0002FFB07464EE000BF00BF227892002968D2
:104F0000895A5F4A8032114008460121C903014392
:104F1000C022114323789B002A68D15200BF00BFF2
:104F2000217889002868405A012189030840002817
:104F300017D028684030008A2178C9004018801CAA
:104F40000122920229688918405A8705BF0D002F57
:104F500020D02289616928683B46009003F0E4FC78
:104F600018E028684030008A2178C9004018801D68
:104F70000122920229688918405A8705BF0D002F27
:104F800008D000E01BE06289616928683B46009018
:104F900003F0CAFCE069C019E0616069C019606192
:104FA000A069002802D02069B84204D92178284697
:104FB000FCF740FA03E02146286802F0B7FF8021A1
:104FC00002980840002852D02820704329462831F2
:104FD000441800BFB2002968895A294A114008467E
:104FE0000121C9030143B3002A68D15200BFE07810
:104FF000022808D1E078022834D1FF21013102983B
:10500000084000282ED128684030008A2178C90045
:105010004018801C0122920229688918405A800594
:10502000800D0190A1690198814204D9A16901987C
:10503000081AA06101E00020A061A069002804D145
:1050400021782846FCF7E5F911E061690198081814
:105050006061E16901980818E0612146286802F062
:1050600065FF04E021462846029AFCF71DFB2868EC
:10507000403080880121C9030840002808D0F7E5A6
:105080000F8F00008F0F0000FF8300008FBF000014
:1050900005B0F0BD7047014600BFF0200840001188
:1050A0000A23584302460807000F8018C0B2704711
:1050B0000146002203E0521C08460A38C1B20A2900
:1050C000F9D21007000E0843704770B5044600255A
:1050D0002068C06840210840002815D1401E216882
:1050E000C860FCF7D7F8054608E0FCF7D3F8401B8A
:1050F0007D21C900884201D9032070BD2068C068A5
:10510000402108400028F0D00020F6E700B5FE4816
:105110000078FE49088008460088000200B2088036
:10512000F948407800228A5E10430880F64880786B
:10513000F749088008460088000200B20880F2485B
:10514000C07800228A5E10430880EF480079F14958
:10515000088008460088000200B20880EA484079CA
:1051600000228A5E10430880E7488079EA49088077
:1051700008460088000200B20880E348C079002297
:105180008A5E10430880E048007AE44908800846B7
:105190000088000200B20880DB48407A00228A5E64
:1051A00010430880D848807ADD4908800846008886
:1051B000000200B20880D448C07A00228A5E104300
:1051C0000880D148007BD749088008460088000243
:1051D00000B20880CC48407B00228A5E10430880E1
:1051E000C948807BD049088008460088000200B288
:1051F0000880C548C07B00228A5E10430880C248F0
:10520000007CCA490880084600880006000C088017
:10521000BD48407C09880843C4490880BA48807C5E
:10522000C3490880084600880006000C0880B6487C
:10523000C07C09880843BE490880B348007DBD4949
:105240000880084600880006000C0880AE48407DB3
:1052500009880843B7490880AB48807DB649088073
:10526000084600880006000C0880A748C07D098811
:105270000843B1490880A448007EB0490880084628
:105280000088000200B208809F48407E00228A5EAB
:10529000104308809C48807EA94908800846008801
:1052A000000200B208809848C07E00228A5E104347
:1052B00008809548007FA3490880084600880002BE
:1052C00000B208809048407F00228A5E1043088028
:1052D0008D48807F9C49088008460088000200B203
:1052E00008808948C07F00228A5E10430880864873
:1052F000203000789549088008460088000200B2F6
:10530000088081482030407800228A5E104308805F
:105310007D48203080788E49088008460088000249
:1053200000B2088078482030C07800228A5E10439E
:1053300008807548203000798649488008464088B2
:10534000000200B248800220085E6F49203149798E
:105350000843804948806C4820308079088008469E
:105360000088000200B208800020085E66492031F3
:10537000C97908437749088063482030007A48811A
:1053800008464089000200B248810A20085E5E4952
:105390002031497A08436F4948815B482030807A40
:1053A000088108460089000200B208810820085ED2
:1053B00055492031C97A084366490881524820304E
:1053C000007B888008468088000200B28880042024
:1053D000085E4D492031497B08435E4988804A4830
:1053E0002030807BC8800846C088000200B2C88098
:1053F0000620085E44492031C97B08435549C880CE
:1054000041482030007C888108468089000200B233
:1054100088810C20085E3C492031497C08434D4975
:1054200088813A480021415EDC2903DC0021415E8D
:10543000962902DAC8203549088035490020085EDF
:10544000FF211931884204DC31480021415EEB29FB
:1054500002DAF0202E4908802E480021415EDC2926
:1054600007DC0021415E294A0020105E401D814278
:1054700005DA26480088401D00B2264908802449E4
:105480000020085E401F244900228A5E904204DB0F
:1054900008460021415EDC2905DA1D480088401FCE
:1054A00000B21D4908801D480021415E3C2903DCF3
:1054B0000021415E002902DA0020184908801848BE
:1054C0000021415E3C2903DC0021415E002902DA13
:1054D00000201349088013480021415E3C2903DC69
:1054E0000021415E002902DA05200E4908800E489D
:1054F0000021415E3C2903DC0021415E002902DAE3
:1055000005200949088027E000F801084000002034
:1055100050000020420000205200002044000020E3
:1055200054000020460000205600002060000020AB
:1055300062000020680000206C0000207000002045
:1055400072000020780000207A00002080000020F7
:105550008200002004030020AF480088012802DDFB
:105560000020AD490880AD480088012803DCAB4825
:105570000088002802DA0020A8490880A74800888F
:10558000002805D10120A6490880A64908701DE021
:10559000A3480088022805DD0120A1490880A1490F
:1055A000087013E09E480088012802D19D490870C8
:1055B0000CE09B480088022802D19A49087005E057
:1055C00097480088002801D1964908709648002124
:1055D000415E462903DC0021415E282902DA2F20A2
:1055E0009149088091480021415E462903DC002151
:1055F000415E282902DA30208C4908808C4800213D
:10560000415E462903DC0021415E322902DA352061
:105610008749088087480021415E462903DC002134
:10562000415E322902DA3420824908808248002112
:10563000415E3C2903DC0021415E002902DA05209D
:105640007D4908807D480021415E3C2903DC002122
:10565000415E002902DA0520784908807848022155
:10566000415E012903DC0221415E002902DA0020AB
:105670007349488072480021415E022903DC002101
:10568000415E002902DA02206D4908806C480A2137
:10569000415E1F2903DC0A21415E012902DA012053
:1056A0006749488166480821415E072903DC0821D3
:1056B000415E012902DA072061490881604804211E
:1056C000415E172903DC0421415E002902DA08202B
:1056D0005B4988805A490C20085EFF216931884265
:1056E00004DC57480C21415E012902DA05205449A7
:1056F00088815448008881B20020FBF7FDF95248A8
:10570000008881B20420FBF7F7F95048008881B285
:105710000820FBF7F1F94E48008881B20C20FBF716
:10572000EBF94C48008881B20220FBF7E5F94A48C2
:10573000008881B20620FBF7DFF94848008881B273
:105740000A20FBF7D9F94648008881B20E20FBF702
:10575000D3F9334801881020FBF7CEF92E48018891
:105760001220FBF7C9F93F4801881420FBF7C4F960
:105770002A4801881620FBF7BFF92B48008881B220
:105780001820FBF7B9F92948008881B21A20FBF7E5
:10579000B3F92748008881B21C20FBF7ADF92548F2
:1057A000008881B21E20FBF7A7F92348008881B248
:1057B0002020FBF7A1F92148008881B22220FBF7C5
:1057C0009BF91F48408881B22420FBF795F91C48BB
:1057D000008881B22620FBF78FF91948408981B2F1
:1057E0002820FBF789F91648008981B22A20FBF7A7
:1057F00083F91348808881B22C20FBF77DF910488B
:10580000C08881B22E20FBF777F90D48808981B2DC
:105810003020FBF771F900BD620000206C00002011
:1058200060000020BE0000207000002072000020F8
:10583000780000207A0000208000002082000020F4
:10584000040300204000002042000020440000200B
:10585000460000205000002052000020540000208C
:10586000560000206800002010B50248FDF790FBAC
:1058700010BD00006403002010B50248FDF788FB4E
:1058800010BD0000C803002070B505466C6A0021F9
:10589000462001530020E0872046FDF777FB70BDCE
:1058A000F8B504460E461546FF210531606888426A
:1058B0000ED10121C903A068884203D04911A06814
:1058C000884205D12068006840218843216808602B
:1058D0003346002280212046009500F0D1F80028B0
:1058E00005D0206E2021084320660320F8BDFF214B
:1058F00005316068884218D10121C903A068884237
:1059000003D04911A06888420FD1334600220321F9
:1059100049022046009500F03FF8002805D0206E8F
:105920002021084320660320E0E70020DEE7F8B5E9
:1059300004460E461546334600220321C90220467E
:10594000009500F029F8002805D0206E202108439A
:1059500020660320F8BD33460022802120460095B2
:1059600000F08EF8002805D0206E20210843206624
:105970000320EFE733460022032149022046009529
:1059800000F00AF8002805D0206E20210843206688
:105990000320DFE70020DDE7FEB504460D4616468E
:1059A0001F46FBF777FC0899401A381A0190FBF75D
:1059B00071FC00903148006823214843000D019993
:1059C0004843029052E003204002854203D1002E5A
:1059D00001D12068007B781C002847D0FBF75AFCD7
:1059E0000099411A0198814202D20198002836D1CB
:1059F00020684068E021884321684860FF21053124
:105A0000606888420ED10121C903A068884203D092
:105A10004911A068884205D1206800684021884368
:105A20002168086001214903A06A88420DD100BFA6
:105A300020680068884321680860206800680121A8
:105A4000490308432168086000BF01215D2001551A
:105A500000BF00215C20015500BF0320FEBD02985D
:105A6000002800D101900298401E029020688068B2
:105A70002840B042A7D10020F0E7000058010020E4
:105A8000FFB583B004460D461E46FBF703FC0C9998
:105A9000401A371AFBF7FEFB01902F4800684001BF
:105AA000000D7843029049E0701C002846D0FBF7B7
:105AB000F1FB0199401AB84201D2002F37D120687A
:105AC0004068E021884321684860FF210531606813
:105AD00088420ED10121C903A068884203D0491130
